{
  "contractName": "TumbulaStore",
  "abi": [
    {
      "constant": true,
      "inputs": [],
      "name": "storeFrontNumber",
      "outputs": [
        {
          "name": "",
          "type": "uint256"
        }
      ],
      "payable": false,
      "stateMutability": "view",
      "type": "function",
      "signature": "0x1b689e8b"
    },
    {
      "constant": true,
      "inputs": [
        {
          "name": "",
          "type": "address"
        },
        {
          "name": "",
          "type": "uint256"
        }
      ],
      "name": "storefrontIds",
      "outputs": [
        {
          "name": "",
          "type": "uint256"
        }
      ],
      "payable": false,
      "stateMutability": "view",
      "type": "function",
      "signature": "0x3db1dbfd"
    },
    {
      "constant": true,
      "inputs": [
        {
          "name": "",
          "type": "uint256"
        }
      ],
      "name": "storefronts",
      "outputs": [
        {
          "name": "id",
          "type": "uint256"
        },
        {
          "name": "storeowner",
          "type": "address"
        },
        {
          "name": "storename",
          "type": "string"
        },
        {
          "name": "storelocation",
          "type": "string"
        },
        {
          "name": "storemerchandise",
          "type": "string"
        }
      ],
      "payable": false,
      "stateMutability": "view",
      "type": "function",
      "signature": "0x6c3aedfb"
    },
    {
      "constant": true,
      "inputs": [
        {
          "name": "",
          "type": "uint256"
        }
      ],
      "name": "products",
      "outputs": [
        {
          "name": "",
          "type": "address"
        }
      ],
      "payable": false,
      "stateMutability": "view",
      "type": "function",
      "signature": "0x7acc0b20"
    },
    {
      "constant": true,
      "inputs": [
        {
          "name": "",
          "type": "uint256"
        }
      ],
      "name": "storeowners",
      "outputs": [
        {
          "name": "id",
          "type": "uint256"
        },
        {
          "name": "storeowneraddress",
          "type": "address"
        },
        {
          "name": "firstname",
          "type": "string"
        },
        {
          "name": "lastname",
          "type": "string"
        },
        {
          "name": "password",
          "type": "string"
        },
        {
          "name": "email",
          "type": "string"
        },
        {
          "name": "role",
          "type": "string"
        },
        {
          "name": "active",
          "type": "bool"
        }
      ],
      "payable": false,
      "stateMutability": "view",
      "type": "function",
      "signature": "0x8a610565"
    },
    {
      "constant": true,
      "inputs": [],
      "name": "storeOwnerNumber",
      "outputs": [
        {
          "name": "",
          "type": "uint256"
        }
      ],
      "payable": false,
      "stateMutability": "view",
      "type": "function",
      "signature": "0xa726f30a"
    },
    {
      "inputs": [],
      "payable": false,
      "stateMutability": "nonpayable",
      "type": "constructor",
      "signature": "constructor"
    },
    {
      "anonymous": false,
      "inputs": [
        {
          "indexed": false,
          "name": "id",
          "type": "uint256"
        },
        {
          "indexed": false,
          "name": "storeowneraddress",
          "type": "address"
        },
        {
          "indexed": false,
          "name": "firstname",
          "type": "string"
        },
        {
          "indexed": false,
          "name": "lastname",
          "type": "string"
        },
        {
          "indexed": false,
          "name": "password",
          "type": "string"
        },
        {
          "indexed": false,
          "name": "email",
          "type": "string"
        },
        {
          "indexed": false,
          "name": "role",
          "type": "string"
        },
        {
          "indexed": false,
          "name": "active",
          "type": "bool"
        }
      ],
      "name": "storeOwnerCreated",
      "type": "event",
      "signature": "0xcd97f319b0838c4ab135ad9bad031c7bb084beb9aedced11dc9e83875e57368c"
    },
    {
      "anonymous": false,
      "inputs": [
        {
          "indexed": false,
          "name": "role_address",
          "type": "address"
        },
        {
          "indexed": false,
          "name": "added_by",
          "type": "address"
        }
      ],
      "name": "roleAdded",
      "type": "event",
      "signature": "0xc91daac650a2962f6712b7ea2b91b57d03046d0f5e6f74225c6d99b435db311c"
    },
    {
      "anonymous": false,
      "inputs": [
        {
          "indexed": false,
          "name": "id",
          "type": "uint256"
        },
        {
          "indexed": false,
          "name": "storeowner",
          "type": "address"
        },
        {
          "indexed": false,
          "name": "storename",
          "type": "string"
        },
        {
          "indexed": false,
          "name": "storelocation",
          "type": "string"
        },
        {
          "indexed": false,
          "name": "storemerchandise",
          "type": "string"
        }
      ],
      "name": "storeFrontCreated",
      "type": "event",
      "signature": "0x846f140bb6ce8522d3684a2d7a3aad94bb9b8c4e41207390b9a6667ca3fee902"
    },
    {
      "anonymous": false,
      "inputs": [
        {
          "indexed": false,
          "name": "product",
          "type": "address"
        },
        {
          "indexed": false,
          "name": "availableStock",
          "type": "uint256"
        },
        {
          "indexed": false,
          "name": "price",
          "type": "uint256"
        },
        {
          "indexed": false,
          "name": "productName",
          "type": "string"
        },
        {
          "indexed": false,
          "name": "shortDescription",
          "type": "string"
        }
      ],
      "name": "productCreated",
      "type": "event",
      "signature": "0xcb4454c9f75f7c4f224ba8cbfc7e2009cfd9bfe533fb35ae33baec4227f59267"
    },
    {
      "anonymous": false,
      "inputs": [
        {
          "indexed": false,
          "name": "product",
          "type": "address"
        },
        {
          "indexed": false,
          "name": "buyer",
          "type": "address"
        },
        {
          "indexed": false,
          "name": "price",
          "type": "uint256"
        },
        {
          "indexed": false,
          "name": "quantity",
          "type": "uint256"
        }
      ],
      "name": "productsBought",
      "type": "event",
      "signature": "0x63dc35ab5de9d27611173a7063178977d3b185916a4fff05f83c07ace07d7c6f"
    },
    {
      "anonymous": false,
      "inputs": [
        {
          "indexed": true,
          "name": "date",
          "type": "uint256"
        },
        {
          "indexed": true,
          "name": "product",
          "type": "address"
        },
        {
          "indexed": false,
          "name": "recipient",
          "type": "address"
        },
        {
          "indexed": false,
          "name": "amount",
          "type": "uint256"
        }
      ],
      "name": "FundWithdrawn",
      "type": "event",
      "signature": "0x1a1e3b27ffc8fbf5f37e5181eedd05effa9d58246409df7ff24b82a8b2056d85"
    },
    {
      "constant": false,
      "inputs": [
        {
          "name": "_address",
          "type": "address"
        }
      ],
      "name": "addAdmin",
      "outputs": [],
      "payable": false,
      "stateMutability": "nonpayable",
      "type": "function",
      "signature": "0x70480275"
    },
    {
      "constant": false,
      "inputs": [
        {
          "name": "_storeowneraddress",
          "type": "address"
        },
        {
          "name": "_firstname",
          "type": "string"
        },
        {
          "name": "_lastname",
          "type": "string"
        },
        {
          "name": "_email",
          "type": "string"
        }
      ],
      "name": "addStoreOwner",
      "outputs": [],
      "payable": false,
      "stateMutability": "nonpayable",
      "type": "function",
      "signature": "0xe95dc1f7"
    },
    {
      "constant": false,
      "inputs": [],
      "name": "toggleEmergency",
      "outputs": [
        {
          "name": "",
          "type": "bool"
        }
      ],
      "payable": false,
      "stateMutability": "nonpayable",
      "type": "function",
      "signature": "0x2d1d2744"
    },
    {
      "constant": false,
      "inputs": [
        {
          "name": "_storename",
          "type": "string"
        },
        {
          "name": "_storelocation",
          "type": "string"
        },
        {
          "name": "_storemerchandise",
          "type": "string"
        }
      ],
      "name": "addStoreFront",
      "outputs": [],
      "payable": false,
      "stateMutability": "nonpayable",
      "type": "function",
      "signature": "0x0eb13ab7"
    },
    {
      "constant": true,
      "inputs": [
        {
          "name": "_userAddress",
          "type": "address"
        }
      ],
      "name": "getStoreFronts",
      "outputs": [
        {
          "name": "storefrontsarray",
          "type": "uint256[]"
        }
      ],
      "payable": false,
      "stateMutability": "view",
      "type": "function",
      "signature": "0xcfd175c4"
    },
    {
      "constant": true,
      "inputs": [],
      "name": "getStoreFrontNumber",
      "outputs": [
        {
          "name": "",
          "type": "uint256"
        }
      ],
      "payable": false,
      "stateMutability": "view",
      "type": "function",
      "signature": "0x94c881f4"
    },
    {
      "constant": false,
      "inputs": [
        {
          "name": "availableStock",
          "type": "uint256"
        },
        {
          "name": "price",
          "type": "uint256"
        },
        {
          "name": "productName",
          "type": "string"
        },
        {
          "name": "shortDescription",
          "type": "string"
        }
      ],
      "name": "createProduct",
      "outputs": [
        {
          "name": "",
          "type": "bool"
        }
      ],
      "payable": false,
      "stateMutability": "nonpayable",
      "type": "function",
      "signature": "0xfc1c3a2d"
    },
    {
      "constant": false,
      "inputs": [
        {
          "name": "_product",
          "type": "address"
        },
        {
          "name": "_quantity",
          "type": "uint256"
        }
      ],
      "name": "buyProducts",
      "outputs": [],
      "payable": true,
      "stateMutability": "payable",
      "type": "function",
      "signature": "0x1718b22e"
    },
    {
      "constant": false,
      "inputs": [
        {
          "name": "_product",
          "type": "address"
        },
        {
          "name": "_recipient",
          "type": "address"
        },
        {
          "name": "_amount",
          "type": "uint256"
        }
      ],
      "name": "withdrawFund",
      "outputs": [
        {
          "name": "",
          "type": "bool"
        }
      ],
      "payable": false,
      "stateMutability": "nonpayable",
      "type": "function",
      "signature": "0x3ff681e4"
    },
    {
      "constant": true,
      "inputs": [
        {
          "name": "_theAddress",
          "type": "address"
        }
      ],
      "name": "checkAdressRole",
      "outputs": [
        {
          "name": "",
          "type": "uint256"
        }
      ],
      "payable": false,
      "stateMutability": "view",
      "type": "function",
      "signature": "0x750bfb97"
    },
    {
      "constant": true,
      "inputs": [],
      "name": "getProducts",
      "outputs": [
        {
          "name": "",
          "type": "address[]"
        }
      ],
      "payable": false,
      "stateMutability": "view",
      "type": "function",
      "signature": "0xc29b2f20"
    }
  ],
  "bytecode": "0x60806040523480156200001157600080fd5b50620000363360006200006764010000000002620036b0179091906401000000009004565b6000600560006101000a81548160ff021916908315150217905550600060028190555060006003819055506200027a565b62000082828262000156640100000000026401000000009004565b151515620000f8576040517f08c379a000000000000000000000000000000000000000000000000000000000815260040180806020018281038252601f8152602001807f526f6c65733a206163636f756e7420616c72656164792068617320726f6c650081525060200191505060405180910390fd5b60018260000160008373ffffffffffffffffffffffffffffffffffffffff1673ffffffffffffffffffffffffffffffffffffffff16815260200190815260200160002060006101000a81548160ff0219169083151502179055505050565b60008073ffffffffffffffffffffffffffffffffffffffff168273ffffffffffffffffffffffffffffffffffffffff161415151562000223576040517f08c379a00000000000000000000000000000000000000000000000000000000081526004018080602001828103825260228152602001807f526f6c65733a206163636f756e7420697320746865207a65726f20616464726581526020017f737300000000000000000000000000000000000000000000000000000000000081525060400191505060405180910390fd5b8260000160008373ffffffffffffffffffffffffffffffffffffffff1673ffffffffffffffffffffffffffffffffffffffff16815260200190815260200160002060009054906101000a900460ff16905092915050565b615faa806200028a6000396000f3fe60806040526004361062000103576000357c0100000000000000000000000000000000000000000000000000000000900463ffffffff1680630eb13ab714620001085780631718b22e146200030b5780631b689e8b146200035c5780632d1d2744146200038a5780633db1dbfd14620003bc5780633ff681e4146200042f5780636c3aedfb14620004c6578063704802751462000699578063750bfb9714620006ee5780637acc0b2014620007575780638a61056514620007d657806394c881f41462000a92578063a726f30a1462000ac0578063c29b2f201462000aee578063cfd175c41462000b5f578063e95dc1f71462000c0b578063fc1c3a2d1462000e2e575b600080fd5b3480156200011557600080fd5b5062000309600480360360608110156200012e57600080fd5b81019080803590602001906401000000008111156200014c57600080fd5b8201836020820111156200015f57600080fd5b803590602001918460018302840111640100000000831117156200018257600080fd5b91908080601f016020809104026020016040519081016040528093929190818152602001838380828437600081840152601f19601f82011690508083019250505050505050919291929080359060200190640100000000811115620001e657600080fd5b820183602082011115620001f957600080fd5b803590602001918460018302840111640100000000831117156200021c57600080fd5b91908080601f016020809104026020016040519081016040528093929190818152602001838380828437600081840152601f19601f820116905080830192505050505050509192919290803590602001906401000000008111156200028057600080fd5b8201836020820111156200029357600080fd5b80359060200191846001830284011164010000000083111715620002b657600080fd5b91908080601f016020809104026020016040519081016040528093929190818152602001838380828437600081840152601f19601f82011690508083019250505050505050919291929050505062000fc3565b005b6200035a600480360360408110156200032357600080fd5b81019080803573ffffffffffffffffffffffffffffffffffffffff169060200190929190803590602001909291905050506200145f565b005b3480156200036957600080fd5b5062000374620019d9565b6040518082815260200191505060405180910390f35b3480156200039757600080fd5b50620003a2620019df565b604051808215151515815260200191505060405180910390f35b348015620003c957600080fd5b506200041960048036036040811015620003e257600080fd5b81019080803573ffffffffffffffffffffffffffffffffffffffff1690602001909291908035906020019092919050505062001ac3565b6040518082815260200191505060405180910390f35b3480156200043c57600080fd5b50620004ac600480360360608110156200045557600080fd5b81019080803573ffffffffffffffffffffffffffffffffffffffff169060200190929190803573ffffffffffffffffffffffffffffffffffffffff1690602001909291908035906020019092919050505062001af4565b604051808215151515815260200191505060405180910390f35b348015620004d357600080fd5b506200050360048036036020811015620004ec57600080fd5b810190808035906020019092919050505062001e6b565b604051808681526020018573ffffffffffffffffffffffffffffffffffffffff1673ffffffffffffffffffffffffffffffffffffffff168152602001806020018060200180602001848103845287818151815260200191508051906020019080838360005b838110156200058557808201518184015260208101905062000568565b50505050905090810190601f168015620005b35780820380516001836020036101000a031916815260200191505b50848103835286818151815260200191508051906020019080838360005b83811015620005ee578082015181840152602081019050620005d1565b50505050905090810190601f1680156200061c5780820380516001836020036101000a031916815260200191505b50848103825285818151815260200191508051906020019080838360005b83811015620006575780820151818401526020810190506200063a565b50505050905090810190601f168015620006855780820380516001836020036101000a031916815260200191505b509850505050505050505060405180910390f35b348015620006a657600080fd5b50620006ec60048036036020811015620006bf57600080fd5b81019080803573ffffffffffffffffffffffffffffffffffffffff16906020019092919050505062002095565b005b348015620006fb57600080fd5b5062000741600480360360208110156200071457600080fd5b81019080803573ffffffffffffffffffffffffffffffffffffffff169060200190929190505050620022a1565b6040518082815260200191505060405180910390f35b3480156200076457600080fd5b5062000794600480360360208110156200077d57600080fd5b81019080803590602001909291905050506200233c565b604051808273ffffffffffffffffffffffffffffffffffffffff1673ffffffffffffffffffffffffffffffffffffffff16815260200191505060405180910390f35b348015620007e357600080fd5b506200081360048036036020811015620007fc57600080fd5b81019080803590602001909291905050506200237b565b604051808981526020018873ffffffffffffffffffffffffffffffffffffffff1673ffffffffffffffffffffffffffffffffffffffff16815260200180602001806020018060200180602001806020018715151515815260200186810386528c818151815260200191508051906020019080838360005b83811015620008a75780820151818401526020810190506200088a565b50505050905090810190601f168015620008d55780820380516001836020036101000a031916815260200191505b5086810385528b818151815260200191508051906020019080838360005b8381101562000910578082015181840152602081019050620008f3565b50505050905090810190601f1680156200093e5780820380516001836020036101000a031916815260200191505b5086810384528a818151815260200191508051906020019080838360005b83811015620009795780820151818401526020810190506200095c565b50505050905090810190601f168015620009a75780820380516001836020036101000a031916815260200191505b50868103835289818151815260200191508051906020019080838360005b83811015620009e2578082015181840152602081019050620009c5565b50505050905090810190601f16801562000a105780820380516001836020036101000a031916815260200191505b50868103825288818151815260200191508051906020019080838360005b8381101562000a4b57808201518184015260208101905062000a2e565b50505050905090810190601f16801562000a795780820380516001836020036101000a031916815260200191505b509d505050505050505050505050505060405180910390f35b34801562000a9f57600080fd5b5062000aaa620026fc565b6040518082815260200191505060405180910390f35b34801562000acd57600080fd5b5062000ad862002706565b6040518082815260200191505060405180910390f35b34801562000afb57600080fd5b5062000b066200270c565b6040518080602001828103825283818151815260200191508051906020019060200280838360005b8381101562000b4b57808201518184015260208101905062000b2e565b505050509050019250505060405180910390f35b34801562000b6c57600080fd5b5062000bb26004803603602081101562000b8557600080fd5b81019080803573ffffffffffffffffffffffffffffffffffffffff1690602001909291905050506200279c565b6040518080602001828103825283818151815260200191508051906020019060200280838360005b8381101562000bf757808201518184015260208101905062000bda565b505050509050019250505060405180910390f35b34801562000c1857600080fd5b5062000e2c6004803603608081101562000c3157600080fd5b81019080803573ffffffffffffffffffffffffffffffffffffffff1690602001909291908035906020019064010000000081111562000c6f57600080fd5b82018360208201111562000c8257600080fd5b8035906020019184600183028401116401000000008311171562000ca557600080fd5b91908080601f016020809104026020016040519081016040528093929190818152602001838380828437600081840152601f19601f8201169050808301925050505050505091929192908035906020019064010000000081111562000d0957600080fd5b82018360208201111562000d1c57600080fd5b8035906020019184600183028401116401000000008311171562000d3f57600080fd5b91908080601f016020809104026020016040519081016040528093929190818152602001838380828437600081840152601f19601f8201169050808301925050505050505091929192908035906020019064010000000081111562000da357600080fd5b82018360208201111562000db657600080fd5b8035906020019184600183028401116401000000008311171562000dd957600080fd5b91908080601f016020809104026020016040519081016040528093929190818152602001838380828437600081840152601f19601f820116905080830192505050505050509192919290505050620028e6565b005b34801562000e3b57600080fd5b5062000fa96004803603608081101562000e5457600080fd5b8101908080359060200190929190803590602001909291908035906020019064010000000081111562000e8657600080fd5b82018360208201111562000e9957600080fd5b8035906020019184600183028401116401000000008311171562000ebc57600080fd5b91908080601f016020809104026020016040519081016040528093929190818152602001838380828437600081840152601f19601f8201169050808301925050505050505091929192908035906020019064010000000081111562000f2057600080fd5b82018360208201111562000f3357600080fd5b8035906020019184600183028401116401000000008311171562000f5657600080fd5b91908080601f016020809104026020016040519081016040528093929190818152602001838380828437600081840152601f19601f82011690508083019250505050505050919291929050505062002e8a565b604051808215151515815260200191505060405180910390f35b62000fd9336001620034bb90919063ffffffff16565b151562001074576040517f08c379a000000000000000000000000000000000000000000000000000000000815260040180806020018281038252602b8152602001807f4f6e6c79207468652073746f7265206f776e65722063616e2063616c6c20746881526020017f69732066756e6374696f6e00000000000000000000000000000000000000000081525060400191505060405180910390fd5b600560009054906101000a900460ff1615151562001120576040517f08c379a000000000000000000000000000000000000000000000000000000000815260040180806020018281038252603e8152602001807f436f6e74726163742063757272656e746c7920696e20656d657267656e63792081526020017f6d6f64652c2046756e6374696f6e2063616e27742062652063616c6c6564000081525060400191505060405180910390fd5b60a06040519081016040528060035481526020013373ffffffffffffffffffffffffffffffffffffffff168152602001848152602001838152602001828152506007600060035481526020019081526020016000206000820151816000015560208201518160010160006101000a81548173ffffffffffffffffffffffffffffffffffffffff021916908373ffffffffffffffffffffffffffffffffffffffff1602179055506040820151816002019080519060200190620011e492919062003790565b5060608201518160030190805190602001906200120392919062003790565b5060808201518160040190805190602001906200122292919062003790565b50905050600160035401600381905550600860003373ffffffffffffffffffffffffffffffffffffffff1673ffffffffffffffffffffffffffffffffffffffff16815260200190815260200160002060035490806001815401808255809150509060018203906000526020600020016000909192909190915055507f846f140bb6ce8522d3684a2d7a3aad94bb9b8c4e41207390b9a6667ca3fee90260035433858585604051808681526020018573ffffffffffffffffffffffffffffffffffffffff1673ffffffffffffffffffffffffffffffffffffffff168152602001806020018060200180602001848103845287818151815260200191508051906020019080838360005b83811015620013475780820151818401526020810190506200132a565b50505050905090810190601f168015620013755780820380516001836020036101000a031916815260200191505b50848103835286818151815260200191508051906020019080838360005b83811015620013b057808201518184015260208101905062001393565b50505050905090810190601f168015620013de5780820380516001836020036101000a031916815260200191505b50848103825285818151815260200191508051906020019080838360005b8381101562001419578082015181840152602081019050620013fc565b50505050905090810190601f168015620014475780820380516001836020036101000a031916815260200191505b509850505050505050505060405180910390a1505050565b600560009054906101000a900460ff161515156200150b576040517f08c379a000000000000000000000000000000000000000000000000000000000815260040180806020018281038252603e8152602001807f436f6e74726163742063757272656e746c7920696e20656d657267656e63792081526020017f6d6f64652c2046756e6374696f6e2063616e27742062652063616c6c6564000081525060400191505060405180910390fd5b600081111515620015aa576040517f08c379a00000000000000000000000000000000000000000000000000000000081526004018080602001828103825260248152602001807f456e73757265207175616e746974792069732067726561746572207468616e2081526020017f7a65726f0000000000000000000000000000000000000000000000000000000081525060400191505060405180910390fd5b600082905060008173ffffffffffffffffffffffffffffffffffffffff1663a035b1fe6040518163ffffffff167c010000000000000000000000000000000000000000000000000000000002815260040160206040518083038186803b1580156200161457600080fd5b505afa15801562001629573d6000803e3d6000fd5b505050506040513d60208110156200164057600080fd5b8101908080519060200190929190505050905060008273ffffffffffffffffffffffffffffffffffffffff1663d6c14bbc6040518163ffffffff167c010000000000000000000000000000000000000000000000000000000002815260040160206040518083038186803b158015620016b857600080fd5b505afa158015620016cd573d6000803e3d6000fd5b505050506040513d6020811015620016e457600080fd5b8101908080519060200190929190505050905083811015151562001796576040517f08c379a000000000000000000000000000000000000000000000000000000000815260040180806020018281038252602c8152602001807f456e73757265207175616e74697479206973206c657373207468616e2061766181526020017f696c61626c652053746f636b000000000000000000000000000000000000000081525060400191505060405180910390fd5b620017ab8285620035df90919063ffffffff16565b341015151562001849576040517f08c379a000000000000000000000000000000000000000000000000000000000815260040180806020018281038252602a8152602001807f456e73757265207072696365207061696420697320656e6f75676820746f206381526020017f6f76657220636f7374730000000000000000000000000000000000000000000081525060400191505060405180910390fd5b8273ffffffffffffffffffffffffffffffffffffffff16631718b22e33866040518363ffffffff167c0100000000000000000000000000000000000000000000000000000000028152600401808373ffffffffffffffffffffffffffffffffffffffff1673ffffffffffffffffffffffffffffffffffffffff16815260200182815260200192505050602060405180830381600087803b158015620018ed57600080fd5b505af115801562001902573d6000803e3d6000fd5b505050506040513d60208110156200191957600080fd5b8101908080519060200190929190505050507f63dc35ab5de9d27611173a7063178977d3b185916a4fff05f83c07ace07d7c6f83338487604051808573ffffffffffffffffffffffffffffffffffffffff1673ffffffffffffffffffffffffffffffffffffffff1681526020018473ffffffffffffffffffffffffffffffffffffffff1673ffffffffffffffffffffffffffffffffffffffff16815260200183815260200182815260200194505050505060405180910390a15050505050565b60035481565b6000620019f7336000620034bb90919063ffffffff16565b151562001a92576040517f08c379a00000000000000000000000000000000000000000000000000000000081526004018080602001828103825260258152602001807f4f6e6c79207468652061646d696e2063616e2063616c6c20746869732066756e81526020017f6374696f6e00000000000000000000000000000000000000000000000000000081525060400191505060405180910390fd5b600560009054906101000a900460ff1615600560006101000a81548160ff0219169083151502179055506001905090565b60086020528160005260406000208181548110151562001adf57fe5b90600052602060002001600091509150505481565b6000600560009054906101000a900460ff1615151562001ba2576040517f08c379a000000000000000000000000000000000000000000000000000000000815260040180806020018281038252603e8152602001807f436f6e74726163742063757272656e746c7920696e20656d657267656e63792081526020017f6d6f64652c2046756e6374696f6e2063616e27742062652063616c6c6564000081525060400191505060405180910390fd5b600073ffffffffffffffffffffffffffffffffffffffff168373ffffffffffffffffffffffffffffffffffffffff161415151562001c48576040517f08c379a00000000000000000000000000000000000000000000000000000000081526004018080602001828103825260208152602001807f41646d696e732073686f756c64206e6f742062652072656369657069656e747381525060200191505060405180910390fd5b60008211151562001ce7576040517f08c379a00000000000000000000000000000000000000000000000000000000081526004018080602001828103825260228152602001807f416d6f756e742073686f756c642062652067726561746572207468616e207a6581526020017f726f00000000000000000000000000000000000000000000000000000000000081525060400191505060405180910390fd5b8373ffffffffffffffffffffffffffffffffffffffff16630cee1725836040518263ffffffff167c010000000000000000000000000000000000000000000000000000000002815260040180828152602001915050602060405180830381600087803b15801562001d5757600080fd5b505af115801562001d6c573d6000803e3d6000fd5b505050506040513d602081101562001d8357600080fd5b8101908080519060200190929190505050508373ffffffffffffffffffffffffffffffffffffffff16427f1a1e3b27ffc8fbf5f37e5181eedd05effa9d58246409df7ff24b82a8b2056d858585604051808373ffffffffffffffffffffffffffffffffffffffff1673ffffffffffffffffffffffffffffffffffffffff1681526020018281526020019250505060405180910390a38273ffffffffffffffffffffffffffffffffffffffff166108fc839081150290604051600060405180830381858888f1935050505015801562001e5f573d6000803e3d6000fd5b50600190509392505050565b60076020528060005260406000206000915090508060000154908060010160009054906101000a900473ffffffffffffffffffffffffffffffffffffffff1690806002018054600181600116156101000203166002900480601f01602080910402602001604051908101604052809291908181526020018280546001816001161561010002031660029004801562001f475780601f1062001f1b5761010080835404028352916020019162001f47565b820191906000526020600020905b81548152906001019060200180831162001f2957829003601f168201915b505050505090806003018054600181600116156101000203166002900480601f01602080910402602001604051908101604052809291908181526020018280546001816001161561010002031660029004801562001fe95780601f1062001fbd5761010080835404028352916020019162001fe9565b820191906000526020600020905b81548152906001019060200180831162001fcb57829003601f168201915b505050505090806004018054600181600116156101000203166002900480601f0160208091040260200160405190810160405280929190818152602001828054600181600116156101000203166002900480156200208b5780601f106200205f576101008083540402835291602001916200208b565b820191906000526020600020905b8154815290600101906020018083116200206d57829003601f168201915b5050505050905085565b620020ab336000620034bb90919063ffffffff16565b151562002146576040517f08c379a00000000000000000000000000000000000000000000000000000000081526004018080602001828103825260258152602001807f4f6e6c79207468652061646d696e2063616e2063616c6c20746869732066756e81526020017f6374696f6e00000000000000000000000000000000000000000000000000000081525060400191505060405180910390fd5b600560009054906101000a900460ff161515620021f1576040517f08c379a00000000000000000000000000000000000000000000000000000000081526004018080602001828103825260288152602001807f46756e6374696f6e2063616c6c61626c65206f6e6c7920696e20656d6572676581526020017f6e6379206d6f646500000000000000000000000000000000000000000000000081525060400191505060405180910390fd5b62002207816000620036b090919063ffffffff16565b7fc91daac650a2962f6712b7ea2b91b57d03046d0f5e6f74225c6d99b435db311c8133604051808373ffffffffffffffffffffffffffffffffffffffff1673ffffffffffffffffffffffffffffffffffffffff1681526020018273ffffffffffffffffffffffffffffffffffffffff1673ffffffffffffffffffffffffffffffffffffffff1681526020019250505060405180910390a150565b6000620022b9826000620034bb90919063ffffffff16565b15620022c9576000905062002337565b620022df826001620034bb90919063ffffffff16565b15620022ef576001905062002337565b62002305826001620034bb90919063ffffffff16565b15801562002326575062002324826000620034bb90919063ffffffff16565b155b1562002336576002905062002337565b5b919050565b6004818154811015156200234c57fe5b906000526020600020016000915054906101000a900473ffffffffffffffffffffffffffffffffffffffff1681565b60066020528060005260406000206000915090508060000154908060010160009054906101000a900473ffffffffffffffffffffffffffffffffffffffff1690806002018054600181600116156101000203166002900480601f016020809104026020016040519081016040528092919081815260200182805460018160011615610100020316600290048015620024575780601f106200242b5761010080835404028352916020019162002457565b820191906000526020600020905b8154815290600101906020018083116200243957829003601f168201915b505050505090806003018054600181600116156101000203166002900480601f016020809104026020016040519081016040528092919081815260200182805460018160011615610100020316600290048015620024f95780601f10620024cd57610100808354040283529160200191620024f9565b820191906000526020600020905b815481529060010190602001808311620024db57829003601f168201915b505050505090806004018054600181600116156101000203166002900480601f0160208091040260200160405190810160405280929190818152602001828054600181600116156101000203166002900480156200259b5780601f106200256f576101008083540402835291602001916200259b565b820191906000526020600020905b8154815290600101906020018083116200257d57829003601f168201915b505050505090806005018054600181600116156101000203166002900480601f0160208091040260200160405190810160405280929190818152602001828054600181600116156101000203166002900480156200263d5780601f1062002611576101008083540402835291602001916200263d565b820191906000526020600020905b8154815290600101906020018083116200261f57829003601f168201915b505050505090806006018054600181600116156101000203166002900480601f016020809104026020016040519081016040528092919081815260200182805460018160011615610100020316600290048015620026df5780601f10620026b357610100808354040283529160200191620026df565b820191906000526020600020905b815481529060010190602001808311620026c157829003601f168201915b5050505050908060070160009054906101000a900460ff16905088565b6000600354905090565b60025481565b606060048054806020026020016040519081016040528092919081815260200182805480156200279257602002820191906000526020600020905b8160009054906101000a900473ffffffffffffffffffffffffffffffffffffffff1673ffffffffffffffffffffffffffffffffffffffff168152602001906001019080831162002747575b5050505050905090565b6060620027b4336001620034bb90919063ffffffff16565b15156200284f576040517f08c379a000000000000000000000000000000000000000000000000000000000815260040180806020018281038252602b8152602001807f4f6e6c79207468652073746f7265206f776e65722063616e2063616c6c20746881526020017f69732066756e6374696f6e00000000000000000000000000000000000000000081525060400191505060405180910390fd5b600860008373ffffffffffffffffffffffffffffffffffffffff1673ffffffffffffffffffffffffffffffffffffffff168152602001908152602001600020805480602002602001604051908101604052809291908181526020018280548015620028da57602002820191906000526020600020905b815481526020019060010190808311620028c5575b50505050509050919050565b620028fc336000620034bb90919063ffffffff16565b151562002997576040517f08c379a00000000000000000000000000000000000000000000000000000000081526004018080602001828103825260258152602001807f4f6e6c79207468652061646d696e2063616e2063616c6c20746869732066756e81526020017f6374696f6e00000000000000000000000000000000000000000000000000000081525060400191505060405180910390fd5b600560009054906101000a900460ff16151562002a42576040517f08c379a00000000000000000000000000000000000000000000000000000000081526004018080602001828103825260288152602001807f46756e6374696f6e2063616c6c61626c65206f6e6c7920696e20656d6572676581526020017f6e6379206d6f646500000000000000000000000000000000000000000000000081525060400191505060405180910390fd5b6101006040519081016040528060025481526020018573ffffffffffffffffffffffffffffffffffffffff1681526020018481526020018381526020016040805190810160405280600a81526020017f64656661756c743132330000000000000000000000000000000000000000000081525081526020018281526020016040805190810160405280600b81526020017f73746f72655f6f776e65720000000000000000000000000000000000000000008152508152602001600115158152506006600060025481526020019081526020016000206000820151816000015560208201518160010160006101000a81548173ffffffffffffffffffffffffffffffffffffffff021916908373ffffffffffffffffffffffffffffffffffffffff160217905550604082015181600201908051906020019062002b8692919062003790565b50606082015181600301908051906020019062002ba592919062003790565b50608082015181600401908051906020019062002bc492919062003790565b5060a082015181600501908051906020019062002be392919062003790565b5060c082015181600601908051906020019062002c0292919062003790565b5060e08201518160070160006101000a81548160ff02191690831515021790555090505060016002540160028190555062002c48846001620036b090919063ffffffff16565b7fcd97f319b0838c4ab135ad9bad031c7bb084beb9aedced11dc9e83875e57368c600254858585856001604051808781526020018673ffffffffffffffffffffffffffffffffffffffff1673ffffffffffffffffffffffffffffffffffffffff16815260200180602001806020018060200180602001806020018715151515815260200186810386528a818151815260200191508051906020019080838360005b8381101562002d0657808201518184015260208101905062002ce9565b50505050905090810190601f16801562002d345780820380516001836020036101000a031916815260200191505b50868103855289818151815260200191508051906020019080838360005b8381101562002d6f57808201518184015260208101905062002d52565b50505050905090810190601f16801562002d9d5780820380516001836020036101000a031916815260200191505b508681038452600a8152602001807f64656661756c7431323300000000000000000000000000000000000000000000815250602001868103835288818151815260200191508051906020019080838360005b8381101562002e0c57808201518184015260208101905062002def565b50505050905090810190601f16801562002e3a5780820380516001836020036101000a031916815260200191505b508681038252600b8152602001807f73746f72655f6f776e65720000000000000000000000000000000000000000008152506020019b50505050505050505050505060405180910390a150505050565b600062002ea2336001620034bb90919063ffffffff16565b151562002f3d576040517f08c379a000000000000000000000000000000000000000000000000000000000815260040180806020018281038252602b8152602001807f4f6e6c79207468652073746f7265206f776e65722063616e2063616c6c20746881526020017f69732066756e6374696f6e00000000000000000000000000000000000000000081525060400191505060405180910390fd5b600560009054906101000a900460ff1615151562002fe9576040517f08c379a000000000000000000000000000000000000000000000000000000000815260040180806020018281038252603e8152602001807f436f6e74726163742063757272656e746c7920696e20656d657267656e63792081526020017f6d6f64652c2046756e6374696f6e2063616e27742062652063616c6c6564000081525060400191505060405180910390fd5b60008411151562003088576040517f08c379a00000000000000000000000000000000000000000000000000000000081526004018080602001828103825260218152602001807f50726963652073686f756c642062652067726561746572207468616e207a657281526020017f6f0000000000000000000000000000000000000000000000000000000000000081525060400191505060405180910390fd5b6000835111151562003102576040517f08c379a00000000000000000000000000000000000000000000000000000000081526004018080602001828103825260168152602001807f54686572652073686f756c642062652061206e616d650000000000000000000081525060200191505060405180910390fd5b60008251111515620031a2576040517f08c379a00000000000000000000000000000000000000000000000000000000081526004018080602001828103825260238152602001807f54686572652073686f756c6420626520612073686f727420646573637269707481526020017f696f6e000000000000000000000000000000000000000000000000000000000081525060400191505060405180910390fd5b60003386868686620031b362003817565b808673ffffffffffffffffffffffffffffffffffffffff1673ffffffffffffffffffffffffffffffffffffffff1681526020018581526020018481526020018060200180602001838103835285818151815260200191508051906020019080838360005b838110156200323457808201518184015260208101905062003217565b50505050905090810190601f168015620032625780820380516001836020036101000a031916815260200191505b50838103825284818151815260200191508051906020019080838360005b838110156200329d57808201518184015260208101905062003280565b50505050905090810190601f168015620032cb5780820380516001836020036101000a031916815260200191505b50975050505050505050604051809103906000f080158015620032f2573d6000803e3d6000fd5b50905060048190806001815401808255809150509060018203906000526020600020016000909192909190916101000a81548173ffffffffffffffffffffffffffffffffffffffff021916908373ffffffffffffffffffffffffffffffffffffffff160217905550507fcb4454c9f75f7c4f224ba8cbfc7e2009cfd9bfe533fb35ae33baec4227f592678187878787604051808673ffffffffffffffffffffffffffffffffffffffff1673ffffffffffffffffffffffffffffffffffffffff1681526020018581526020018481526020018060200180602001838103835285818151815260200191508051906020019080838360005b8381101562003405578082015181840152602081019050620033e8565b50505050905090810190601f168015620034335780820380516001836020036101000a031916815260200191505b50838103825284818151815260200191508051906020019080838360005b838110156200346e57808201518184015260208101905062003451565b50505050905090810190601f1680156200349c5780820380516001836020036101000a031916815260200191505b5097505050505050505060405180910390a16001915050949350505050565b60008073ffffffffffffffffffffffffffffffffffffffff168273ffffffffffffffffffffffffffffffffffffffff161415151562003588576040517f08c379a00000000000000000000000000000000000000000000000000000000081526004018080602001828103825260228152602001807f526f6c65733a206163636f756e7420697320746865207a65726f20616464726581526020017f737300000000000000000000000000000000000000000000000000000000000081525060400191505060405180910390fd5b8260000160008373ffffffffffffffffffffffffffffffffffffffff1673ffffffffffffffffffffffffffffffffffffffff16815260200190815260200160002060009054906101000a900460ff16905092915050565b600080831415620035f45760009050620036aa565b600082840290508284828115156200360857fe5b04141515620036a5576040517f08c379a00000000000000000000000000000000000000000000000000000000081526004018080602001828103825260218152602001807f536166654d6174683a206d756c7469706c69636174696f6e206f766572666c6f81526020017f770000000000000000000000000000000000000000000000000000000000000081525060400191505060405180910390fd5b809150505b92915050565b620036bc8282620034bb565b15151562003732576040517f08c379a000000000000000000000000000000000000000000000000000000000815260040180806020018281038252601f8152602001807f526f6c65733a206163636f756e7420616c72656164792068617320726f6c650081525060200191505060405180910390fd5b60018260000160008373ffffffffffffffffffffffffffffffffffffffff1673ffffffffffffffffffffffffffffffffffffffff16815260200190815260200160002060006101000a81548160ff0219169083151502179055505050565b828054600181600116156101000203166002900490600052602060002090601f016020900481019282601f10620037d357805160ff191683800117855562003804565b8280016001018555821562003804579182015b8281111562003803578251825591602001919060010190620037e6565b5b50905062003813919062003828565b5090565b60405161272e806200385183390190565b6200384d91905b80821115620038495760008160009055506001016200382f565b5090565b9056fe60806040523480156200001157600080fd5b506040516200272e3803806200272e833981018060405260a08110156200003757600080fd5b8101908080519060200190929190805190602001909291908051906020019092919080516401000000008111156200006e57600080fd5b828101905060208101848111156200008557600080fd5b8151856001820283011164010000000082111715620000a357600080fd5b50509291906020018051640100000000811115620000c057600080fd5b82810190506020810184811115620000d757600080fd5b8151856001820283011164010000000082111715620000f557600080fd5b505092919050505033600360006101000a81548173ffffffffffffffffffffffffffffffffffffffff021916908373ffffffffffffffffffffffffffffffffffffffff16021790555084600460006101000a81548173ffffffffffffffffffffffffffffffffffffffff021916908373ffffffffffffffffffffffffffffffffffffffff160217905550600060078190555060006008819055508260068190555083600581905550836002819055508160099080519060200190620001bc9291906200030f565b5080600a9080519060200190620001d59291906200030f565b50600254600080600360009054906101000a900473ffffffffffffffffffffffffffffffffffffffff1673ffffffffffffffffffffffffffffffffffffffff1673ffffffffffffffffffffffffffffffffffffffff1681526020019081526020016000208190555060025460016000600360009054906101000a900473ffffffffffffffffffffffffffffffffffffffff1673ffffffffffffffffffffffffffffffffffffffff1673ffffffffffffffffffffffffffffffffffffffff1681526020019081526020016000206000600460009054906101000a900473ffffffffffffffffffffffffffffffffffffffff1673ffffffffffffffffffffffffffffffffffffffff1673ffffffffffffffffffffffffffffffffffffffff168152602001908152602001600020819055505050505050620003be565b828054600181600116156101000203166002900490600052602060002090601f016020900481019282601f106200035257805160ff191683800117855562000383565b8280016001018555821562000383579182015b828111156200038257825182559160200191906001019062000365565b5b50905062000392919062000396565b5090565b620003bb91905b80821115620003b75760008160009055506001016200039d565b5090565b90565b61236080620003ce6000396000f3fe60806040526004361061011d576000357c0100000000000000000000000000000000000000000000000000000000900463ffffffff168063095ea7b3146101225780630cee1725146101955780631718b22e146101e857806318160ddd1461025b5780631da98960146102865780632384b94f1461031657806323b872dd14610356578063587380f5146103e9578063661884631461057457806370a08231146105e757806371299e361461064c5780637f7650eb146106a35780638d921130146107335780639fbe99321461078a578063a035b1fe146108c7578063a9059cbb146108f2578063aace52fe14610965578063b60d428814610990578063d6c14bbc146109bb578063d73dd623146109e6578063dd62ed3e14610a59575b600080fd5b34801561012e57600080fd5b5061017b6004803603604081101561014557600080fd5b81019080803573ffffffffffffffffffffffffffffffffffffffff16906020019092919080359060200190929190505050610ade565b604051808215151515815260200191505060405180910390f35b3480156101a157600080fd5b506101ce600480360360208110156101b857600080fd5b8101908080359060200190929190505050610bd0565b604051808215151515815260200191505060405180910390f35b3480156101f457600080fd5b506102416004803603604081101561020b57600080fd5b81019080803573ffffffffffffffffffffffffffffffffffffffff16906020019092919080359060200190929190505050610cbc565b604051808215151515815260200191505060405180910390f35b34801561026757600080fd5b50610270611030565b6040518082815260200191505060405180910390f35b34801561029257600080fd5b5061029b61103a565b6040518080602001828103825283818151815260200191508051906020019080838360005b838110156102db5780820151818401526020810190506102c0565b50505050905090810190601f1680156103085780820380516001836020036101000a031916815260200191505b509250505060405180910390f35b34801561032257600080fd5b5061032b6110d8565b6040518085815260200184815260200183815260200182815260200194505050505060405180910390f35b34801561036257600080fd5b506103cf6004803603606081101561037957600080fd5b81019080803573ffffffffffffffffffffffffffffffffffffffff169060200190929190803573ffffffffffffffffffffffffffffffffffffffff1690602001909291908035906020019092919050505061112c565b604051808215151515815260200191505060405180910390f35b3480156103f557600080fd5b5061055a6004803603608081101561040c57600080fd5b8101908080359060200190929190803590602001909291908035906020019064010000000081111561043d57600080fd5b82018360208201111561044f57600080fd5b8035906020019184600183028401116401000000008311171561047157600080fd5b91908080601f016020809104026020016040519081016040528093929190818152602001838380828437600081840152601f19601f820116905080830192505050505050509192919290803590602001906401000000008111156104d457600080fd5b8201836020820111156104e657600080fd5b8035906020019184600183028401116401000000008311171561050857600080fd5b91908080601f016020809104026020016040519081016040528093929190818152602001838380828437600081840152601f19601f8201169050808301925050505050505091929192905050506114e7565b604051808215151515815260200191505060405180910390f35b34801561058057600080fd5b506105cd6004803603604081101561059757600080fd5b81019080803573ffffffffffffffffffffffffffffffffffffffff169060200190929190803590602001909291905050506116b6565b604051808215151515815260200191505060405180910390f35b3480156105f357600080fd5b506106366004803603602081101561060a57600080fd5b81019080803573ffffffffffffffffffffffffffffffffffffffff169060200190929190505050611948565b6040518082815260200191505060405180910390f35b34801561065857600080fd5b50610661611990565b604051808273ffffffffffffffffffffffffffffffffffffffff1673ffffffffffffffffffffffffffffffffffffffff16815260200191505060405180910390f35b3480156106af57600080fd5b506106b86119b6565b6040518080602001828103825283818151815260200191508051906020019080838360005b838110156106f85780820151818401526020810190506106dd565b50505050905090810190601f1680156107255780820380516001836020036101000a031916815260200191505b509250505060405180910390f35b34801561073f57600080fd5b50610748611a54565b604051808273ffffffffffffffffffffffffffffffffffffffff1673ffffffffffffffffffffffffffffffffffffffff16815260200191505060405180910390f35b34801561079657600080fd5b5061079f611a7a565b604051808673ffffffffffffffffffffffffffffffffffffffff1673ffffffffffffffffffffffffffffffffffffffff1681526020018581526020018481526020018060200180602001838103835285818151815260200191508051906020019080838360005b83811015610821578082015181840152602081019050610806565b50505050905090810190601f16801561084e5780820380516001836020036101000a031916815260200191505b50838103825284818151815260200191508051906020019080838360005b8381101561088757808201518184015260208101905061086c565b50505050905090810190601f1680156108b45780820380516001836020036101000a031916815260200191505b5097505050505050505060405180910390f35b3480156108d357600080fd5b506108dc611bf2565b6040518082815260200191505060405180910390f35b3480156108fe57600080fd5b5061094b6004803603604081101561091557600080fd5b81019080803573ffffffffffffffffffffffffffffffffffffffff16906020019092919080359060200190929190505050611bf8565b604051808215151515815260200191505060405180910390f35b34801561097157600080fd5b5061097a611e18565b6040518082815260200191505060405180910390f35b34801561099c57600080fd5b506109a5611e1e565b6040518082815260200191505060405180910390f35b3480156109c757600080fd5b506109d0611e24565b6040518082815260200191505060405180910390f35b3480156109f257600080fd5b50610a3f60048036036040811015610a0957600080fd5b81019080803573ffffffffffffffffffffffffffffffffffffffff16906020019092919080359060200190929190505050611e2a565b604051808215151515815260200191505060405180910390f35b348015610a6557600080fd5b50610ac860048036036040811015610a7c57600080fd5b81019080803573ffffffffffffffffffffffffffffffffffffffff169060200190929190803573ffffffffffffffffffffffffffffffffffffffff169060200190929190505050612026565b6040518082815260200191505060405180910390f35b600081600160003373ffffffffffffffffffffffffffffffffffffffff1673ffffffffffffffffffffffffffffffffffffffff16815260200190815260200160002060008573ffffffffffffffffffffffffffffffffffffffff1673ffffffffffffffffffffffffffffffffffffffff168152602001908152602001600020819055508273ffffffffffffffffffffffffffffffffffffffff163373ffffffffffffffffffffffffffffffffffffffff167f8c5be1e5ebec7d5bd14f71427d1e84f3dd0314c0f7b2291e5b200ac8c7c3b925846040518082815260200191505060405180910390a36001905092915050565b60008160085410151515610c98576040517f08c379a00000000000000000000000000000000000000000000000000000000081526004018080602001828103825260488152602001807f416d6f756e7420696e2066756e642073686f756c64206265206772656174657281526020017f207468616e206f7220657175616c20746f20616d6f756e7420746f206265207781526020017f697468647261776e00000000000000000000000000000000000000000000000081525060600191505060405180910390fd5b610cad826008546120ad90919063ffffffff16565b60088190555060019050919050565b600081600080600360009054906101000a900473ffffffffffffffffffffffffffffffffffffffff1673ffffffffffffffffffffffffffffffffffffffff1673ffffffffffffffffffffffffffffffffffffffff1681526020019081526020016000205410151515610dbc576040517f08c379a00000000000000000000000000000000000000000000000000000000081526004018080602001828103825260348152602001807f5175616e746974792073686f756c64206265206c6573732074686174206f722081526020017f657175616c20746f20746f74616c537570706c7900000000000000000000000081525060400191505060405180910390fd5b610e2f82600080600360009054906101000a900473ffffffffffffffffffffffffffffffffffffffff1673ffffffffffffffffffffffffffffffffffffffff1673ffffffffffffffffffffffffffffffffffffffff168152602001908152602001600020546120ad90919063ffffffff16565b600080600360009054906101000a900473ffffffffffffffffffffffffffffffffffffffff1673ffffffffffffffffffffffffffffffffffffffff1673ffffffffffffffffffffffffffffffffffffffff16815260200190815260200160002081905550610ee4826000808673ffffffffffffffffffffffffffffffffffffffff1673ffffffffffffffffffffffffffffffffffffffff1681526020019081526020016000205461213890919063ffffffff16565b6000808573ffffffffffffffffffffffffffffffffffffffff1673ffffffffffffffffffffffffffffffffffffffff16815260200190815260200160002081905550610f3b826005546120ad90919063ffffffff16565b600581905550610f6a610f59600654846121c290919063ffffffff16565b60075461213890919063ffffffff16565b600781905550610f99610f88600654846121c290919063ffffffff16565b60085461213890919063ffffffff16565b6008819055508273ffffffffffffffffffffffffffffffffffffffff16600360009054906101000a900473ffffffffffffffffffffffffffffffffffffffff1673ffffffffffffffffffffffffffffffffffffffff167fddf252ad1be2c89b69c2b068fc378daa952ba7f163c4a11628f55a4df523b3ef846040518082815260200191505060405180910390a36001905092915050565b6000600254905090565b600a8054600181600116156101000203166002900480601f0160208091040260200160405190810160405280929190818152602001828054600181600116156101000203166002900480156110d05780601f106110a5576101008083540402835291602001916110d0565b820191906000526020600020905b8154815290600101906020018083116110b357829003601f168201915b505050505081565b600080600080600754935083600854935083611115600360009054906101000a900473ffffffffffffffffffffffffffffffffffffffff16611948565b935083600254935083935093509350935090919293565b60008060008573ffffffffffffffffffffffffffffffffffffffff1673ffffffffffffffffffffffffffffffffffffffff16815260200190815260200160002054821115151561117b57600080fd5b600160008573ffffffffffffffffffffffffffffffffffffffff1673ffffffffffffffffffffffffffffffffffffffff16815260200190815260200160002060003373ffffffffffffffffffffffffffffffffffffffff1673ffffffffffffffffffffffffffffffffffffffff16815260200190815260200160002054821115151561120657600080fd5b600073ffffffffffffffffffffffffffffffffffffffff168373ffffffffffffffffffffffffffffffffffffffff161415151561124257600080fd5b611293826000808773ffffffffffffffffffffffffffffffffffffffff1673ffffffffffffffffffffffffffffffffffffffff168152602001908152602001600020546120ad90919063ffffffff16565b6000808673ffffffffffffffffffffffffffffffffffffffff1673ffffffffffffffffffffffffffffffffffffffff16815260200190815260200160002081905550611326826000808673ffffffffffffffffffffffffffffffffffffffff1673ffffffffffffffffffffffffffffffffffffffff1681526020019081526020016000205461213890919063ffffffff16565b6000808573ffffffffffffffffffffffffffffffffffffffff1673ffffffffffffffffffffffffffffffffffffffff168152602001908152602001600020819055506113f782600160008773ffffffffffffffffffffffffffffffffffffffff1673ffffffffffffffffffffffffffffffffffffffff16815260200190815260200160002060003373ffffffffffffffffffffffffffffffffffffffff1673ffffffffffffffffffffffffffffffffffffffff168152602001908152602001600020546120ad90919063ffffffff16565b600160008673ffffffffffffffffffffffffffffffffffffffff1673ffffffffffffffffffffffffffffffffffffffff16815260200190815260200160002060003373ffffffffffffffffffffffffffffffffffffffff1673ffffffffffffffffffffffffffffffffffffffff168152602001908152602001600020819055508273ffffffffffffffffffffffffffffffffffffffff168473ffffffffffffffffffffffffffffffffffffffff167fddf252ad1be2c89b69c2b068fc378daa952ba7f163c4a11628f55a4df523b3ef846040518082815260200191505060405180910390a3600190509392505050565b6000600254851115156114fc57846005819055505b600084111561150d57836006819055505b60008351111561152f57826009908051906020019061152d92919061228f565b505b6000825111156115515781600a908051906020019061154f92919061228f565b505b7fd50ee4ceeaa6387d71b557329cd0912888db516f987f923133c6836793ab56a76005546006546009600a6040518085815260200184815260200180602001806020018381038352858181546001816001161561010002031660029004815260200191508054600181600116156101000203166002900480156116155780601f106115ea57610100808354040283529160200191611615565b820191906000526020600020905b8154815290600101906020018083116115f857829003601f168201915b50508381038252848181546001816001161561010002031660029004815260200191508054600181600116156101000203166002900480156116985780601f1061166d57610100808354040283529160200191611698565b820191906000526020600020905b81548152906001019060200180831161167b57829003601f168201915b5050965050505050505060405180910390a160019050949350505050565b600080600160003373ffffffffffffffffffffffffffffffffffffffff1673ffffffffffffffffffffffffffffffffffffffff16815260200190815260200160002060008573ffffffffffffffffffffffffffffffffffffffff1673ffffffffffffffffffffffffffffffffffffffff16815260200190815260200160002054905080831015156117c8576000600160003373ffffffffffffffffffffffffffffffffffffffff1673ffffffffffffffffffffffffffffffffffffffff16815260200190815260200160002060008673ffffffffffffffffffffffffffffffffffffffff1673ffffffffffffffffffffffffffffffffffffffff1681526020019081526020016000208190555061185c565b6117db83826120ad90919063ffffffff16565b600160003373ffffffffffffffffffffffffffffffffffffffff1673ffffffffffffffffffffffffffffffffffffffff16815260200190815260200160002060008673ffffffffffffffffffffffffffffffffffffffff1673ffffffffffffffffffffffffffffffffffffffff168152602001908152602001600020819055505b8373ffffffffffffffffffffffffffffffffffffffff163373ffffffffffffffffffffffffffffffffffffffff167f8c5be1e5ebec7d5bd14f71427d1e84f3dd0314c0f7b2291e5b200ac8c7c3b925600160003373ffffffffffffffffffffffffffffffffffffffff1673ffffffffffffffffffffffffffffffffffffffff16815260200190815260200160002060008873ffffffffffffffffffffffffffffffffffffffff1673ffffffffffffffffffffffffffffffffffffffff168152602001908152602001600020546040518082815260200191505060405180910390a3600191505092915050565b60008060008373ffffffffffffffffffffffffffffffffffffffff1673ffffffffffffffffffffffffffffffffffffffff168152602001908152602001600020549050919050565b600360009054906101000a900473ffffffffffffffffffffffffffffffffffffffff1681565b60098054600181600116156101000203166002900480601f016020809104026020016040519081016040528092919081815260200182805460018160011615610100020316600290048015611a4c5780601f10611a2157610100808354040283529160200191611a4c565b820191906000526020600020905b815481529060010190602001808311611a2f57829003601f168201915b505050505081565b600460009054906101000a900473ffffffffffffffffffffffffffffffffffffffff1681565b6000806000606080600360009054906101000a900473ffffffffffffffffffffffffffffffffffffffff1694506005549350600654925060098054600181600116156101000203166002900480601f016020809104026020016040519081016040528092919081815260200182805460018160011615610100020316600290048015611b475780601f10611b1c57610100808354040283529160200191611b47565b820191906000526020600020905b815481529060010190602001808311611b2a57829003601f168201915b50505050509150600a8054600181600116156101000203166002900480601f016020809104026020016040519081016040528092919081815260200182805460018160011615610100020316600290048015611be45780601f10611bb957610100808354040283529160200191611be4565b820191906000526020600020905b815481529060010190602001808311611bc757829003601f168201915b505050505090509091929394565b60065481565b60008060003373ffffffffffffffffffffffffffffffffffffffff1673ffffffffffffffffffffffffffffffffffffffff168152602001908152602001600020548211151515611c4757600080fd5b600073ffffffffffffffffffffffffffffffffffffffff168373ffffffffffffffffffffffffffffffffffffffff1614151515611c8357600080fd5b611cd4826000803373ffffffffffffffffffffffffffffffffffffffff1673ffffffffffffffffffffffffffffffffffffffff168152602001908152602001600020546120ad90919063ffffffff16565b6000803373ffffffffffffffffffffffffffffffffffffffff1673ffffffffffffffffffffffffffffffffffffffff16815260200190815260200160002081905550611d67826000808673ffffffffffffffffffffffffffffffffffffffff1673ffffffffffffffffffffffffffffffffffffffff1681526020019081526020016000205461213890919063ffffffff16565b6000808573ffffffffffffffffffffffffffffffffffffffff1673ffffffffffffffffffffffffffffffffffffffff168152602001908152602001600020819055508273ffffffffffffffffffffffffffffffffffffffff163373ffffffffffffffffffffffffffffffffffffffff167fddf252ad1be2c89b69c2b068fc378daa952ba7f163c4a11628f55a4df523b3ef846040518082815260200191505060405180910390a36001905092915050565b60075481565b60085481565b60055481565b6000611ebb82600160003373ffffffffffffffffffffffffffffffffffffffff1673ffffffffffffffffffffffffffffffffffffffff16815260200190815260200160002060008673ffffffffffffffffffffffffffffffffffffffff1673ffffffffffffffffffffffffffffffffffffffff1681526020019081526020016000205461213890919063ffffffff16565b600160003373ffffffffffffffffffffffffffffffffffffffff1673ffffffffffffffffffffffffffffffffffffffff16815260200190815260200160002060008573ffffffffffffffffffffffffffffffffffffffff1673ffffffffffffffffffffffffffffffffffffffff168152602001908152602001600020819055508273ffffffffffffffffffffffffffffffffffffffff163373ffffffffffffffffffffffffffffffffffffffff167f8c5be1e5ebec7d5bd14f71427d1e84f3dd0314c0f7b2291e5b200ac8c7c3b925600160003373ffffffffffffffffffffffffffffffffffffffff1673ffffffffffffffffffffffffffffffffffffffff16815260200190815260200160002060008773ffffffffffffffffffffffffffffffffffffffff1673ffffffffffffffffffffffffffffffffffffffff168152602001908152602001600020546040518082815260200191505060405180910390a36001905092915050565b6000600160008473ffffffffffffffffffffffffffffffffffffffff1673ffffffffffffffffffffffffffffffffffffffff16815260200190815260200160002060008373ffffffffffffffffffffffffffffffffffffffff1673ffffffffffffffffffffffffffffffffffffffff16815260200190815260200160002054905092915050565b6000828211151515612127576040517f08c379a000000000000000000000000000000000000000000000000000000000815260040180806020018281038252601e8152602001807f536166654d6174683a207375627472616374696f6e206f766572666c6f77000081525060200191505060405180910390fd5b600082840390508091505092915050565b60008082840190508381101515156121b8576040517f08c379a000000000000000000000000000000000000000000000000000000000815260040180806020018281038252601b8152602001807f536166654d6174683a206164646974696f6e206f766572666c6f77000000000081525060200191505060405180910390fd5b8091505092915050565b6000808314156121d55760009050612289565b600082840290508284828115156121e857fe5b04141515612284576040517f08c379a00000000000000000000000000000000000000000000000000000000081526004018080602001828103825260218152602001807f536166654d6174683a206d756c7469706c69636174696f6e206f766572666c6f81526020017f770000000000000000000000000000000000000000000000000000000000000081525060400191505060405180910390fd5b809150505b92915050565b828054600181600116156101000203166002900490600052602060002090601f016020900481019282601f106122d057805160ff19168380011785556122fe565b828001600101855582156122fe579182015b828111156122fd5782518255916020019190600101906122e2565b5b50905061230b919061230f565b5090565b61233191905b8082111561232d576000816000905550600101612315565b5090565b9056fea165627a7a72305820505586669f20c91b57adb8a90458b3c3773296b705f2ab036642cde540015bde0029a165627a7a723058206cdaa8be041f37c9d67549d31f291b69a4d28f8e6f87d8f9dcfc3a2ea70713ed0029",
  "source": "pragma solidity >=0.4.21 <0.6.0;\nimport \"./Roles.sol\";\nimport \"./SafeMath.sol\";\nimport {StoreProduct as Product} from \"./StoreProduct.sol\";\n\ncontract TumbulaStore{\n\n    /*\n    Contract for the Tumbula online store.\n\n    ------------------------------------\n    ROLES.\n    1. Admin.\n    2. Store Owner.\n    ------------------------------------\n     */\n    using Roles for Roles.Role;\n    using SafeMath for uint;\n    using SafeMath for uint8;\n\n    Roles.Role private admin;\n    Roles.Role private store_owner;\n    \n\n    uint public storeOwnerNumber;\n    uint public storeFrontNumber;\n\n    /*Products array*/\n    address[] public products;\n\n    /*  */\n\n    /*Boolean value to track emergency mode for circuit breaker pattern */\n    bool private emergency;\n\n    struct StoreOwner{\n        uint    id;\n        address storeowneraddress;\n        string  firstname;\n        string  lastname;\n        string  password;\n        string  email;\n        string  role;\n        bool    active;\n    }\n\n    struct StoreFront{\n        uint    id;\n        address storeowner;\n        string  storename;\n        string  storelocation;\n        string  storemerchandise;\n    }\n\n    mapping(uint => StoreOwner) public storeowners;\n\n    mapping(uint => StoreFront) public storefronts;\n\n    /*Mapping of storefronts to storeowner address */\n    mapping(address => uint[]) public storefrontIds;\n\n    event storeOwnerCreated(\n        uint id,\n        address storeowneraddress,\n        string firstname,\n        string lastname,\n        string password,\n        string email,\n        string role,\n        bool active\n    );\n\n    event roleAdded(\n        address role_address,\n        address added_by\n    );\n\n    event storeFrontCreated(\n        uint   id,\n        address storeowner,\n        string storename,\n        string storelocation,\n        string storemerchandise\n    );\n\n    event productCreated(\n        address product,\n        uint availableStock,\n        uint price,\n        string productName, \n        string shortDescription\n    );\n\n    event productsBought(\n        address product, \n        address buyer,\n        uint price,\n        uint quantity\n    );\n\n    event FundWithdrawn(\n        uint indexed date,\n        address indexed product, \n        address recipient, \n        uint amount\n    );\n\n    /* Modifer that checks if the msg.sender has an admin role */\n    modifier onlyAdmin {\n        require(\n            admin.has(msg.sender),\n            \"Only the admin can call this function\"\n            );\n        _;\n    }\n\n    /* Modifer that checks if the msg.sender has a store owner role */\n    modifier onlyStoreOwner {\n        require(\n            store_owner.has(msg.sender),\n            \"Only the store owner can call this function\"\n            );\n        _;\n    }\n\n    /*Modifier that checks if msg.sender is the productowner of the product */\n    modifier onlyProductOwner(address product) {\n        require(\n            msg.sender == Product(product).storeowner(),\n            \"Only the product owner can call this method\");\n        _;\n    }\n\n\n    /*Circuit breaker pattern modifiers */\n    modifier stopInEmergency { \n        require(!emergency, \"Contract currently in emergency mode, Function can't be called\"); \n        _; \n    }\n    \n    modifier onlyInEmergency { \n        require(emergency, \"Function callable only in emergency mode\"); \n        _;\n    }\n\n    constructor() public {\n        admin.add(msg.sender);\n        emergency = false;\n\n        storeOwnerNumber = 0;\n        storeFrontNumber = 0;\n    }\n    \n    /*\n    --------------------------------------------------------\n    Admin Functions\n    --------------------------------------------------------\n    */\n\n     /** @dev Lets admin add more admins \n     * @return Boolean for testing in solidity\n     */\n    function addAdmin(address _address) public onlyAdmin onlyInEmergency {\n        admin.add(_address);\n        emit roleAdded(\n            _address,\n            msg.sender\n        );\n    }\n\n    /** @dev Creates a new storeOwner \n     * @param _firstname Firstname of the store owner\n     * @param _lastname last name of the store owner\n     * @param _email Email address of the store owner \n     * @return Boolean for testing in solidity\n     */\n    function addStoreOwner(\n        address _storeowneraddress,\n        string memory _firstname, \n        string memory _lastname, \n        string memory _email\n    ) \n            public \n            onlyAdmin\n            onlyInEmergency\n    {\n        storeowners[storeOwnerNumber] = StoreOwner(\n            storeOwnerNumber, \n            _storeowneraddress, \n            _firstname, \n            _lastname, \n            \"default123\", \n            _email, \n            \"store_owner\", \n            true);\n\n        storeOwnerNumber = storeOwnerNumber + 1;\n\n        //Add the store owner to store owner roles\n        store_owner.add(_storeowneraddress);\n\n        emit storeOwnerCreated(\n            storeOwnerNumber, \n            _storeowneraddress,\n            _firstname, \n            _lastname, \n            \"default123\", \n            _email, \n            \"store_owner\", \n            true\n        );\n    }\n\n    /** @dev Lets admin toggle the state of emergency \n     * @return Boolean for testing in solidity\n     */\n    function toggleEmergency() public onlyAdmin returns (bool) {\n        emergency = !emergency;\n        return true;\n    }\n\n    /*\n    ---------------------------------------------------------------\n    Store Owner Functions\n    ---------------------------------------------------------------\n    */\n\n    /** @dev Adds a new store front \n     * @param _storename Name of the storefront\n     * @param _storelocation Location of the storefront\n     * @param _storemerchandise Type of merchandise dealt in by storefront\n     * @return Boolean for testing in solidity\n     */\n    function addStoreFront(\n        string memory _storename, \n        string memory _storelocation, \n        string memory _storemerchandise\n        ) \n            public \n            onlyStoreOwner\n            stopInEmergency\n        {\n        storefronts[storeFrontNumber] = StoreFront(storeFrontNumber, msg.sender, _storename, _storelocation, _storemerchandise);\n        storeFrontNumber = storeFrontNumber + 1;\n        storefrontIds[msg.sender].push(storeFrontNumber);\n        emit storeFrontCreated(\n            storeFrontNumber, \n            msg.sender, \n            _storename, \n            _storelocation, \n            _storemerchandise\n        );\n    }\n\n    /** @dev Gets storefonts owned by particular storeowner \n     * @param _userAddress Address of the owner\n     * @return Array of store fronts owned\n     */\n\n    function getStoreFronts(address _userAddress) public view onlyStoreOwner returns (uint[] memory storefrontsarray){\n        return storefrontIds[_userAddress];\n    }\n\n    function getStoreFrontNumber() public view returns (uint) {\n        return storeFrontNumber;\n    }\n\n    /** @dev Creates ERC20 token per product \n     * @param availableStock Quantity of products available for each individual product\n     * @param price Price of each product\n     * @param productName Name of the product \n     * @param shortDescription Short description of the product\n     * @return Boolean for testing in solidity\n     */\n    function createProduct(uint availableStock, uint price, string memory productName, string memory shortDescription) \n        public \n        onlyStoreOwner\n        stopInEmergency\n        returns (bool)\n    {\n        require(price > 0, \"Price should be greater than zero\");\n        require(bytes(productName).length > 0, \"There should be a name\");\n        require(bytes(shortDescription).length > 0, \"There should be a short description\");\n\n        Product product = new Product(msg.sender, availableStock, price, productName, shortDescription);\n        products.push(address(product));\n        \n        emit productCreated(\n            address(product),\n            availableStock,\n            price,\n            productName,\n            shortDescription   \n        );\n        return true;\n    }\n\n    /** @dev Purchases movie tickets\n     * @param _product Address of product token\n     * @param _quantity quantity to be purchased\n     */\n    function buyProducts(address _product, uint _quantity)\n        public \n        payable\n        stopInEmergency\n    {\n        require(_quantity > 0, \"Ensure quantity is greater than zero\");\n        Product product = Product(_product);\n        uint price = product.price();\n        uint availableStock = product.availableStock();\n\n        // check available quantity\n        require(availableStock >= _quantity, \"Ensure quantity is less than available Stock\");\n        \n        // check payment amount\n        require(msg.value >= _quantity.mul(price), \"Ensure price paid is enough to cover costs\");\n        \n        // // check excess payment\n        // uint excess = msg.value.sub(quantity.mul(price));\n        // if (excess > 0) emit ExcessPaid(now, movie, msg.sender, excess);\n        \n        product.buyProducts(msg.sender, _quantity);\n        emit productsBought(address(product), msg.sender, price, _quantity);\n    }\n\n    /** @dev Withdraws from fund \n     * @param _product Address of product token\n     * @param _recipient Address of recipient to be paid\n     * @param _amount Amount in wei to pay\n     * @return Boolean for testing in solidity\n     */\n    function withdrawFund(address _product, address payable _recipient, uint _amount) \n        public \n        stopInEmergency\n        // onlyProductOwner(_product)\n        returns (bool)\n    {\n        require(_recipient != address(0), \"Admins should not be reciepients\");\n        require(_amount > 0, \"Amount should be greater than zero\");\n        \n        Product(_product).withdrawFund(_amount);\n        \n        emit FundWithdrawn(now, _product, _recipient, _amount);\n        _recipient.transfer(_amount);\n        return true;\n    }\n\n\n    /** @dev Checks for the role of a specific address\n     * @param _theAddress Address for which role is to be checked\n     * @return uint indicating specific role\n     */\n\n    function checkAdressRole(address _theAddress) public view returns (uint){\n\n        if (admin.has(_theAddress)) {\n            return 0;\n        }\n\n        if (store_owner.has(_theAddress)) {\n            return 1;\n        }\n\n        if (!store_owner.has(_theAddress) && !admin.has(_theAddress)) {\n            return 2;\n        }\n    }\n\n    /** @dev Returns array of product token addresses\n     * @return Product token addresses\n     */\n    function getProducts() public view returns (address[] memory) {\n        return products;\n    }\n\n}",
  "sourcePath": "/Users/allan-only/projects/blockchain/final_project/tumbula-app/tumbula-store/contracts/TumbulaStore.sol",
  "compiler": {
    "name": "solc",
    "version": "0.5.0+commit.1d4f565a.Emscripten.clang"
  },
  "schemaVersion": "3.0.1",
  "updatedAt": "2019-06-28T22:39:10.487Z",
  "devdoc": {
    "methods": {
      "addAdmin(address)": {
        "details": "Lets admin add more admins ",
        "return": "Boolean for testing in solidity"
      },
      "addStoreFront(string,string,string)": {
        "details": "Adds a new store front ",
        "params": {
          "_storelocation": "Location of the storefront",
          "_storemerchandise": "Type of merchandise dealt in by storefront",
          "_storename": "Name of the storefront"
        },
        "return": "Boolean for testing in solidity"
      },
      "addStoreOwner(address,string,string,string)": {
        "details": "Creates a new storeOwner ",
        "params": {
          "_email": "Email address of the store owner ",
          "_firstname": "Firstname of the store owner",
          "_lastname": "last name of the store owner"
        },
        "return": "Boolean for testing in solidity"
      },
      "buyProducts(address,uint256)": {
        "details": "Purchases movie tickets",
        "params": {
          "_product": "Address of product token",
          "_quantity": "quantity to be purchased"
        }
      },
      "checkAdressRole(address)": {
        "details": "Checks for the role of a specific address",
        "params": {
          "_theAddress": "Address for which role is to be checked"
        },
        "return": "uint indicating specific role"
      },
      "createProduct(uint256,uint256,string,string)": {
        "details": "Creates ERC20 token per product ",
        "params": {
          "availableStock": "Quantity of products available for each individual product",
          "price": "Price of each product",
          "productName": "Name of the product ",
          "shortDescription": "Short description of the product"
        },
        "return": "Boolean for testing in solidity"
      },
      "getProducts()": {
        "details": "Returns array of product token addresses",
        "return": "Product token addresses"
      },
      "getStoreFronts(address)": {
        "details": "Gets storefonts owned by particular storeowner ",
        "params": {
          "_userAddress": "Address of the owner"
        },
        "return": "Array of store fronts owned"
      },
      "toggleEmergency()": {
        "details": "Lets admin toggle the state of emergency ",
        "return": "Boolean for testing in solidity"
      },
      "withdrawFund(address,address,uint256)": {
        "details": "Withdraws from fund ",
        "params": {
          "_amount": "Amount in wei to pay",
          "_product": "Address of product token",
          "_recipient": "Address of recipient to be paid"
        },
        "return": "Boolean for testing in solidity"
      }
    }
  },
  "userdoc": {
    "methods": {}
  }
}