{
  "contractName": "TumbulaStore",
  "abi": [
    {
      "constant": true,
      "inputs": [],
      "name": "storeFrontNumber",
      "outputs": [
        {
          "name": "",
          "type": "uint256"
        }
      ],
      "payable": false,
      "stateMutability": "view",
      "type": "function",
      "signature": "0x1b689e8b"
    },
    {
      "constant": true,
      "inputs": [
        {
          "name": "",
          "type": "address"
        },
        {
          "name": "",
          "type": "uint256"
        }
      ],
      "name": "storefrontIds",
      "outputs": [
        {
          "name": "",
          "type": "uint256"
        }
      ],
      "payable": false,
      "stateMutability": "view",
      "type": "function",
      "signature": "0x3db1dbfd"
    },
    {
      "constant": true,
      "inputs": [
        {
          "name": "",
          "type": "uint256"
        }
      ],
      "name": "storefronts",
      "outputs": [
        {
          "name": "id",
          "type": "uint256"
        },
        {
          "name": "storeowner",
          "type": "address"
        },
        {
          "name": "storename",
          "type": "string"
        },
        {
          "name": "storelocation",
          "type": "string"
        },
        {
          "name": "storemerchandise",
          "type": "string"
        }
      ],
      "payable": false,
      "stateMutability": "view",
      "type": "function",
      "signature": "0x6c3aedfb"
    },
    {
      "constant": true,
      "inputs": [
        {
          "name": "",
          "type": "uint256"
        }
      ],
      "name": "products",
      "outputs": [
        {
          "name": "",
          "type": "address"
        }
      ],
      "payable": false,
      "stateMutability": "view",
      "type": "function",
      "signature": "0x7acc0b20"
    },
    {
      "constant": true,
      "inputs": [
        {
          "name": "",
          "type": "uint256"
        }
      ],
      "name": "storeowners",
      "outputs": [
        {
          "name": "id",
          "type": "uint256"
        },
        {
          "name": "storeowneraddress",
          "type": "address"
        },
        {
          "name": "firstname",
          "type": "string"
        },
        {
          "name": "lastname",
          "type": "string"
        },
        {
          "name": "password",
          "type": "string"
        },
        {
          "name": "email",
          "type": "string"
        },
        {
          "name": "role",
          "type": "string"
        },
        {
          "name": "active",
          "type": "bool"
        }
      ],
      "payable": false,
      "stateMutability": "view",
      "type": "function",
      "signature": "0x8a610565"
    },
    {
      "constant": true,
      "inputs": [],
      "name": "storeOwnerNumber",
      "outputs": [
        {
          "name": "",
          "type": "uint256"
        }
      ],
      "payable": false,
      "stateMutability": "view",
      "type": "function",
      "signature": "0xa726f30a"
    },
    {
      "inputs": [],
      "payable": false,
      "stateMutability": "nonpayable",
      "type": "constructor",
      "signature": "constructor"
    },
    {
      "anonymous": false,
      "inputs": [
        {
          "indexed": false,
          "name": "id",
          "type": "uint256"
        },
        {
          "indexed": false,
          "name": "storeowneraddress",
          "type": "address"
        },
        {
          "indexed": false,
          "name": "firstname",
          "type": "string"
        },
        {
          "indexed": false,
          "name": "lastname",
          "type": "string"
        },
        {
          "indexed": false,
          "name": "password",
          "type": "string"
        },
        {
          "indexed": false,
          "name": "email",
          "type": "string"
        },
        {
          "indexed": false,
          "name": "role",
          "type": "string"
        },
        {
          "indexed": false,
          "name": "active",
          "type": "bool"
        }
      ],
      "name": "storeOwnerCreated",
      "type": "event",
      "signature": "0xcd97f319b0838c4ab135ad9bad031c7bb084beb9aedced11dc9e83875e57368c"
    },
    {
      "anonymous": false,
      "inputs": [
        {
          "indexed": false,
          "name": "role_address",
          "type": "address"
        },
        {
          "indexed": false,
          "name": "added_by",
          "type": "address"
        }
      ],
      "name": "roleAdded",
      "type": "event",
      "signature": "0xc91daac650a2962f6712b7ea2b91b57d03046d0f5e6f74225c6d99b435db311c"
    },
    {
      "anonymous": false,
      "inputs": [
        {
          "indexed": false,
          "name": "id",
          "type": "uint256"
        },
        {
          "indexed": false,
          "name": "storeowner",
          "type": "address"
        },
        {
          "indexed": false,
          "name": "storename",
          "type": "string"
        },
        {
          "indexed": false,
          "name": "storelocation",
          "type": "string"
        },
        {
          "indexed": false,
          "name": "storemerchandise",
          "type": "string"
        }
      ],
      "name": "storeFrontCreated",
      "type": "event",
      "signature": "0x846f140bb6ce8522d3684a2d7a3aad94bb9b8c4e41207390b9a6667ca3fee902"
    },
    {
      "anonymous": false,
      "inputs": [
        {
          "indexed": false,
          "name": "product",
          "type": "address"
        },
        {
          "indexed": false,
          "name": "availableStock",
          "type": "uint256"
        },
        {
          "indexed": false,
          "name": "price",
          "type": "uint256"
        },
        {
          "indexed": false,
          "name": "productName",
          "type": "string"
        },
        {
          "indexed": false,
          "name": "shortDescription",
          "type": "string"
        }
      ],
      "name": "productCreated",
      "type": "event",
      "signature": "0xcb4454c9f75f7c4f224ba8cbfc7e2009cfd9bfe533fb35ae33baec4227f59267"
    },
    {
      "anonymous": false,
      "inputs": [
        {
          "indexed": false,
          "name": "product",
          "type": "address"
        },
        {
          "indexed": false,
          "name": "buyer",
          "type": "address"
        },
        {
          "indexed": false,
          "name": "price",
          "type": "uint256"
        },
        {
          "indexed": false,
          "name": "quantity",
          "type": "uint256"
        }
      ],
      "name": "productsBought",
      "type": "event",
      "signature": "0x63dc35ab5de9d27611173a7063178977d3b185916a4fff05f83c07ace07d7c6f"
    },
    {
      "constant": false,
      "inputs": [
        {
          "name": "_address",
          "type": "address"
        }
      ],
      "name": "addAdmin",
      "outputs": [],
      "payable": false,
      "stateMutability": "nonpayable",
      "type": "function",
      "signature": "0x70480275"
    },
    {
      "constant": false,
      "inputs": [
        {
          "name": "_storeowneraddress",
          "type": "address"
        },
        {
          "name": "_firstname",
          "type": "string"
        },
        {
          "name": "_lastname",
          "type": "string"
        },
        {
          "name": "_email",
          "type": "string"
        }
      ],
      "name": "addStoreOwner",
      "outputs": [],
      "payable": false,
      "stateMutability": "nonpayable",
      "type": "function",
      "signature": "0xe95dc1f7"
    },
    {
      "constant": false,
      "inputs": [],
      "name": "toggleEmergency",
      "outputs": [
        {
          "name": "",
          "type": "bool"
        }
      ],
      "payable": false,
      "stateMutability": "nonpayable",
      "type": "function",
      "signature": "0x2d1d2744"
    },
    {
      "constant": false,
      "inputs": [
        {
          "name": "_storename",
          "type": "string"
        },
        {
          "name": "_storelocation",
          "type": "string"
        },
        {
          "name": "_storemerchandise",
          "type": "string"
        }
      ],
      "name": "addStoreFront",
      "outputs": [],
      "payable": false,
      "stateMutability": "nonpayable",
      "type": "function",
      "signature": "0x0eb13ab7"
    },
    {
      "constant": true,
      "inputs": [
        {
          "name": "_userAddress",
          "type": "address"
        }
      ],
      "name": "getStoreFronts",
      "outputs": [
        {
          "name": "storefrontsarray",
          "type": "uint256[]"
        }
      ],
      "payable": false,
      "stateMutability": "view",
      "type": "function",
      "signature": "0xcfd175c4"
    },
    {
      "constant": true,
      "inputs": [],
      "name": "getStoreFrontNumber",
      "outputs": [
        {
          "name": "",
          "type": "uint256"
        }
      ],
      "payable": false,
      "stateMutability": "view",
      "type": "function",
      "signature": "0x94c881f4"
    },
    {
      "constant": false,
      "inputs": [
        {
          "name": "availableStock",
          "type": "uint256"
        },
        {
          "name": "price",
          "type": "uint256"
        },
        {
          "name": "productName",
          "type": "string"
        },
        {
          "name": "shortDescription",
          "type": "string"
        }
      ],
      "name": "createProduct",
      "outputs": [
        {
          "name": "",
          "type": "bool"
        }
      ],
      "payable": false,
      "stateMutability": "nonpayable",
      "type": "function",
      "signature": "0xfc1c3a2d"
    },
    {
      "constant": false,
      "inputs": [
        {
          "name": "_product",
          "type": "address"
        },
        {
          "name": "_quantity",
          "type": "uint256"
        }
      ],
      "name": "buyProduct",
      "outputs": [],
      "payable": true,
      "stateMutability": "payable",
      "type": "function",
      "signature": "0xcddb8e94"
    },
    {
      "constant": true,
      "inputs": [
        {
          "name": "_theAddress",
          "type": "address"
        }
      ],
      "name": "checkAdressRole",
      "outputs": [
        {
          "name": "",
          "type": "uint256"
        }
      ],
      "payable": false,
      "stateMutability": "view",
      "type": "function",
      "signature": "0x750bfb97"
    }
  ],
  "bytecode": "0x60806040523480156200001157600080fd5b5062000036336000620000676401000000000262002f5c179091906401000000009004565b6000600560006101000a81548160ff021916908315150217905550600060028190555060006003819055506200027a565b62000082828262000156640100000000026401000000009004565b151515620000f8576040517f08c379a000000000000000000000000000000000000000000000000000000000815260040180806020018281038252601f8152602001807f526f6c65733a206163636f756e7420616c72656164792068617320726f6c650081525060200191505060405180910390fd5b60018260000160008373ffffffffffffffffffffffffffffffffffffffff1673ffffffffffffffffffffffffffffffffffffffff16815260200190815260200160002060006101000a81548160ff0219169083151502179055505050565b60008073ffffffffffffffffffffffffffffffffffffffff168273ffffffffffffffffffffffffffffffffffffffff161415151562000223576040517f08c379a00000000000000000000000000000000000000000000000000000000081526004018080602001828103825260228152602001807f526f6c65733a206163636f756e7420697320746865207a65726f20616464726581526020017f737300000000000000000000000000000000000000000000000000000000000081525060400191505060405180910390fd5b8260000160008373ffffffffffffffffffffffffffffffffffffffff1673ffffffffffffffffffffffffffffffffffffffff16815260200190815260200160002060009054906101000a900460ff16905092915050565b61577f806200028a6000396000f3fe608060405260043610620000eb576000357c0100000000000000000000000000000000000000000000000000000000900463ffffffff1680630eb13ab714620000f05780631b689e8b14620002f35780632d1d274414620003215780633db1dbfd14620003535780636c3aedfb14620003c6578063704802751462000599578063750bfb9714620005ee5780637acc0b2014620006575780638a61056514620006d657806394c881f41462000992578063a726f30a14620009c0578063cddb8e9414620009ee578063cfd175c41462000a3f578063e95dc1f71462000aeb578063fc1c3a2d1462000d0e575b600080fd5b348015620000fd57600080fd5b50620002f1600480360360608110156200011657600080fd5b81019080803590602001906401000000008111156200013457600080fd5b8201836020820111156200014757600080fd5b803590602001918460018302840111640100000000831117156200016a57600080fd5b91908080601f016020809104026020016040519081016040528093929190818152602001838380828437600081840152601f19601f82011690508083019250505050505050919291929080359060200190640100000000811115620001ce57600080fd5b820183602082011115620001e157600080fd5b803590602001918460018302840111640100000000831117156200020457600080fd5b91908080601f016020809104026020016040519081016040528093929190818152602001838380828437600081840152601f19601f820116905080830192505050505050509192919290803590602001906401000000008111156200026857600080fd5b8201836020820111156200027b57600080fd5b803590602001918460018302840111640100000000831117156200029e57600080fd5b91908080601f016020809104026020016040519081016040528093929190818152602001838380828437600081840152601f19601f82011690508083019250505050505050919291929050505062000ea3565b005b3480156200030057600080fd5b506200030b6200133f565b6040518082815260200191505060405180910390f35b3480156200032e57600080fd5b506200033962001345565b604051808215151515815260200191505060405180910390f35b3480156200036057600080fd5b50620003b0600480360360408110156200037957600080fd5b81019080803573ffffffffffffffffffffffffffffffffffffffff1690602001909291908035906020019092919050505062001429565b6040518082815260200191505060405180910390f35b348015620003d357600080fd5b506200040360048036036020811015620003ec57600080fd5b81019080803590602001909291905050506200145a565b604051808681526020018573ffffffffffffffffffffffffffffffffffffffff1673ffffffffffffffffffffffffffffffffffffffff168152602001806020018060200180602001848103845287818151815260200191508051906020019080838360005b838110156200048557808201518184015260208101905062000468565b50505050905090810190601f168015620004b35780820380516001836020036101000a031916815260200191505b50848103835286818151815260200191508051906020019080838360005b83811015620004ee578082015181840152602081019050620004d1565b50505050905090810190601f1680156200051c5780820380516001836020036101000a031916815260200191505b50848103825285818151815260200191508051906020019080838360005b83811015620005575780820151818401526020810190506200053a565b50505050905090810190601f168015620005855780820380516001836020036101000a031916815260200191505b509850505050505050505060405180910390f35b348015620005a657600080fd5b50620005ec60048036036020811015620005bf57600080fd5b81019080803573ffffffffffffffffffffffffffffffffffffffff16906020019092919050505062001684565b005b348015620005fb57600080fd5b5062000641600480360360208110156200061457600080fd5b81019080803573ffffffffffffffffffffffffffffffffffffffff169060200190929190505050620017e5565b6040518082815260200191505060405180910390f35b3480156200066457600080fd5b5062000694600480360360208110156200067d57600080fd5b810190808035906020019092919050505062001880565b604051808273ffffffffffffffffffffffffffffffffffffffff1673ffffffffffffffffffffffffffffffffffffffff16815260200191505060405180910390f35b348015620006e357600080fd5b506200071360048036036020811015620006fc57600080fd5b8101908080359060200190929190505050620018bf565b604051808981526020018873ffffffffffffffffffffffffffffffffffffffff1673ffffffffffffffffffffffffffffffffffffffff16815260200180602001806020018060200180602001806020018715151515815260200186810386528c818151815260200191508051906020019080838360005b83811015620007a75780820151818401526020810190506200078a565b50505050905090810190601f168015620007d55780820380516001836020036101000a031916815260200191505b5086810385528b818151815260200191508051906020019080838360005b8381101562000810578082015181840152602081019050620007f3565b50505050905090810190601f1680156200083e5780820380516001836020036101000a031916815260200191505b5086810384528a818151815260200191508051906020019080838360005b83811015620008795780820151818401526020810190506200085c565b50505050905090810190601f168015620008a75780820380516001836020036101000a031916815260200191505b50868103835289818151815260200191508051906020019080838360005b83811015620008e2578082015181840152602081019050620008c5565b50505050905090810190601f168015620009105780820380516001836020036101000a031916815260200191505b50868103825288818151815260200191508051906020019080838360005b838110156200094b5780820151818401526020810190506200092e565b50505050905090810190601f168015620009795780820380516001836020036101000a031916815260200191505b509d505050505050505050505050505060405180910390f35b3480156200099f57600080fd5b50620009aa62001c40565b6040518082815260200191505060405180910390f35b348015620009cd57600080fd5b50620009d862001c4a565b6040518082815260200191505060405180910390f35b62000a3d6004803603604081101562000a0657600080fd5b81019080803573ffffffffffffffffffffffffffffffffffffffff1690602001909291908035906020019092919050505062001c50565b005b34801562000a4c57600080fd5b5062000a926004803603602081101562000a6557600080fd5b81019080803573ffffffffffffffffffffffffffffffffffffffff169060200190929190505050620021c4565b6040518080602001828103825283818151815260200191508051906020019060200280838360005b8381101562000ad757808201518184015260208101905062000aba565b505050509050019250505060405180910390f35b34801562000af857600080fd5b5062000d0c6004803603608081101562000b1157600080fd5b81019080803573ffffffffffffffffffffffffffffffffffffffff1690602001909291908035906020019064010000000081111562000b4f57600080fd5b82018360208201111562000b6257600080fd5b8035906020019184600183028401116401000000008311171562000b8557600080fd5b91908080601f016020809104026020016040519081016040528093929190818152602001838380828437600081840152601f19601f8201169050808301925050505050505091929192908035906020019064010000000081111562000be957600080fd5b82018360208201111562000bfc57600080fd5b8035906020019184600183028401116401000000008311171562000c1f57600080fd5b91908080601f016020809104026020016040519081016040528093929190818152602001838380828437600081840152601f19601f8201169050808301925050505050505091929192908035906020019064010000000081111562000c8357600080fd5b82018360208201111562000c9657600080fd5b8035906020019184600183028401116401000000008311171562000cb957600080fd5b91908080601f016020809104026020016040519081016040528093929190818152602001838380828437600081840152601f19601f8201169050808301925050505050505091929192905050506200230e565b005b34801562000d1b57600080fd5b5062000e896004803603608081101562000d3457600080fd5b8101908080359060200190929190803590602001909291908035906020019064010000000081111562000d6657600080fd5b82018360208201111562000d7957600080fd5b8035906020019184600183028401116401000000008311171562000d9c57600080fd5b91908080601f016020809104026020016040519081016040528093929190818152602001838380828437600081840152601f19601f8201169050808301925050505050505091929192908035906020019064010000000081111562000e0057600080fd5b82018360208201111562000e1357600080fd5b8035906020019184600183028401116401000000008311171562000e3657600080fd5b91908080601f016020809104026020016040519081016040528093929190818152602001838380828437600081840152601f19601f82011690508083019250505050505050919291929050505062002807565b604051808215151515815260200191505060405180910390f35b62000eb933600162002e3890919063ffffffff16565b151562000f54576040517f08c379a000000000000000000000000000000000000000000000000000000000815260040180806020018281038252602b8152602001807f4f6e6c79207468652073746f7265206f776e65722063616e2063616c6c20746881526020017f69732066756e6374696f6e00000000000000000000000000000000000000000081525060400191505060405180910390fd5b600560009054906101000a900460ff1615151562001000576040517f08c379a000000000000000000000000000000000000000000000000000000000815260040180806020018281038252603e8152602001807f436f6e74726163742063757272656e746c7920696e20656d657267656e63792081526020017f6d6f64652c2046756e6374696f6e2063616e27742062652063616c6c6564000081525060400191505060405180910390fd5b60a06040519081016040528060035481526020013373ffffffffffffffffffffffffffffffffffffffff168152602001848152602001838152602001828152506007600060035481526020019081526020016000206000820151816000015560208201518160010160006101000a81548173ffffffffffffffffffffffffffffffffffffffff021916908373ffffffffffffffffffffffffffffffffffffffff1602179055506040820151816002019080519060200190620010c49291906200310d565b506060820151816003019080519060200190620010e39291906200310d565b506080820151816004019080519060200190620011029291906200310d565b50905050600160035401600381905550600860003373ffffffffffffffffffffffffffffffffffffffff1673ffffffffffffffffffffffffffffffffffffffff16815260200190815260200160002060035490806001815401808255809150509060018203906000526020600020016000909192909190915055507f846f140bb6ce8522d3684a2d7a3aad94bb9b8c4e41207390b9a6667ca3fee90260035433858585604051808681526020018573ffffffffffffffffffffffffffffffffffffffff1673ffffffffffffffffffffffffffffffffffffffff168152602001806020018060200180602001848103845287818151815260200191508051906020019080838360005b83811015620012275780820151818401526020810190506200120a565b50505050905090810190601f168015620012555780820380516001836020036101000a031916815260200191505b50848103835286818151815260200191508051906020019080838360005b838110156200129057808201518184015260208101905062001273565b50505050905090810190601f168015620012be5780820380516001836020036101000a031916815260200191505b50848103825285818151815260200191508051906020019080838360005b83811015620012f9578082015181840152602081019050620012dc565b50505050905090810190601f168015620013275780820380516001836020036101000a031916815260200191505b509850505050505050505060405180910390a1505050565b60035481565b60006200135d33600062002e3890919063ffffffff16565b1515620013f8576040517f08c379a00000000000000000000000000000000000000000000000000000000081526004018080602001828103825260258152602001807f4f6e6c79207468652061646d696e2063616e2063616c6c20746869732066756e81526020017f6374696f6e00000000000000000000000000000000000000000000000000000081525060400191505060405180910390fd5b600560009054906101000a900460ff1615600560006101000a81548160ff0219169083151502179055506001905090565b6008602052816000526040600020818154811015156200144557fe5b90600052602060002001600091509150505481565b60076020528060005260406000206000915090508060000154908060010160009054906101000a900473ffffffffffffffffffffffffffffffffffffffff1690806002018054600181600116156101000203166002900480601f016020809104026020016040519081016040528092919081815260200182805460018160011615610100020316600290048015620015365780601f106200150a5761010080835404028352916020019162001536565b820191906000526020600020905b8154815290600101906020018083116200151857829003601f168201915b505050505090806003018054600181600116156101000203166002900480601f016020809104026020016040519081016040528092919081815260200182805460018160011615610100020316600290048015620015d85780601f10620015ac57610100808354040283529160200191620015d8565b820191906000526020600020905b815481529060010190602001808311620015ba57829003601f168201915b505050505090806004018054600181600116156101000203166002900480601f0160208091040260200160405190810160405280929190818152602001828054600181600116156101000203166002900480156200167a5780601f106200164e576101008083540402835291602001916200167a565b820191906000526020600020905b8154815290600101906020018083116200165c57829003601f168201915b5050505050905085565b6200169a33600062002e3890919063ffffffff16565b151562001735576040517f08c379a00000000000000000000000000000000000000000000000000000000081526004018080602001828103825260258152602001807f4f6e6c79207468652061646d696e2063616e2063616c6c20746869732066756e81526020017f6374696f6e00000000000000000000000000000000000000000000000000000081525060400191505060405180910390fd5b6200174b81600062002f5c90919063ffffffff16565b7fc91daac650a2962f6712b7ea2b91b57d03046d0f5e6f74225c6d99b435db311c8133604051808373ffffffffffffffffffffffffffffffffffffffff1673ffffffffffffffffffffffffffffffffffffffff1681526020018273ffffffffffffffffffffffffffffffffffffffff1673ffffffffffffffffffffffffffffffffffffffff1681526020019250505060405180910390a150565b6000620017fd82600062002e3890919063ffffffff16565b156200180d57600090506200187b565b6200182382600162002e3890919063ffffffff16565b156200183357600190506200187b565b6200184982600162002e3890919063ffffffff16565b1580156200186a57506200186882600062002e3890919063ffffffff16565b155b156200187a57600290506200187b565b5b919050565b6004818154811015156200189057fe5b906000526020600020016000915054906101000a900473ffffffffffffffffffffffffffffffffffffffff1681565b60066020528060005260406000206000915090508060000154908060010160009054906101000a900473ffffffffffffffffffffffffffffffffffffffff1690806002018054600181600116156101000203166002900480601f0160208091040260200160405190810160405280929190818152602001828054600181600116156101000203166002900480156200199b5780601f106200196f576101008083540402835291602001916200199b565b820191906000526020600020905b8154815290600101906020018083116200197d57829003601f168201915b505050505090806003018054600181600116156101000203166002900480601f01602080910402602001604051908101604052809291908181526020018280546001816001161561010002031660029004801562001a3d5780601f1062001a115761010080835404028352916020019162001a3d565b820191906000526020600020905b81548152906001019060200180831162001a1f57829003601f168201915b505050505090806004018054600181600116156101000203166002900480601f01602080910402602001604051908101604052809291908181526020018280546001816001161561010002031660029004801562001adf5780601f1062001ab35761010080835404028352916020019162001adf565b820191906000526020600020905b81548152906001019060200180831162001ac157829003601f168201915b505050505090806005018054600181600116156101000203166002900480601f01602080910402602001604051908101604052809291908181526020018280546001816001161561010002031660029004801562001b815780601f1062001b555761010080835404028352916020019162001b81565b820191906000526020600020905b81548152906001019060200180831162001b6357829003601f168201915b505050505090806006018054600181600116156101000203166002900480601f01602080910402602001604051908101604052809291908181526020018280546001816001161561010002031660029004801562001c235780601f1062001bf75761010080835404028352916020019162001c23565b820191906000526020600020905b81548152906001019060200180831162001c0557829003601f168201915b5050505050908060070160009054906101000a900460ff16905088565b6000600354905090565b60025481565b600560009054906101000a900460ff1615151562001cfc576040517f08c379a000000000000000000000000000000000000000000000000000000000815260040180806020018281038252603e8152602001807f436f6e74726163742063757272656e746c7920696e20656d657267656e63792081526020017f6d6f64652c2046756e6374696f6e2063616e27742062652063616c6c6564000081525060400191505060405180910390fd5b60008111151562001d9b576040517f08c379a00000000000000000000000000000000000000000000000000000000081526004018080602001828103825260248152602001807f456e73757265207175616e746974792069732067726561746572207468616e2081526020017f7a65726f0000000000000000000000000000000000000000000000000000000081525060400191505060405180910390fd5b600082905060008173ffffffffffffffffffffffffffffffffffffffff1663a035b1fe6040518163ffffffff167c010000000000000000000000000000000000000000000000000000000002815260040160206040518083038186803b15801562001e0557600080fd5b505afa15801562001e1a573d6000803e3d6000fd5b505050506040513d602081101562001e3157600080fd5b810190808051906020019092919050505090508173ffffffffffffffffffffffffffffffffffffffff1663d6c14bbc6040518163ffffffff167c010000000000000000000000000000000000000000000000000000000002815260040160206040518083038186803b15801562001ea757600080fd5b505afa15801562001ebc573d6000803e3d6000fd5b505050506040513d602081101562001ed357600080fd5b8101908080519060200190929190505050831115151562001f82576040517f08c379a000000000000000000000000000000000000000000000000000000000815260040180806020018281038252602c8152602001807f456e73757265207175616e74697479206973206c657373207468616e2061766181526020017f696c61626c652053746f636b000000000000000000000000000000000000000081525060400191505060405180910390fd5b62001f9781846200303c90919063ffffffff16565b341015151562002035576040517f08c379a000000000000000000000000000000000000000000000000000000000815260040180806020018281038252602a8152602001807f456e73757265207072696365207061696420697320656e6f75676820746f206381526020017f6f76657220636f7374730000000000000000000000000000000000000000000081525060400191505060405180910390fd5b8173ffffffffffffffffffffffffffffffffffffffff16631718b22e33856040518363ffffffff167c0100000000000000000000000000000000000000000000000000000000028152600401808373ffffffffffffffffffffffffffffffffffffffff1673ffffffffffffffffffffffffffffffffffffffff16815260200182815260200192505050602060405180830381600087803b158015620020d957600080fd5b505af1158015620020ee573d6000803e3d6000fd5b505050506040513d60208110156200210557600080fd5b8101908080519060200190929190505050507f63dc35ab5de9d27611173a7063178977d3b185916a4fff05f83c07ace07d7c6f82338386604051808573ffffffffffffffffffffffffffffffffffffffff1673ffffffffffffffffffffffffffffffffffffffff1681526020018473ffffffffffffffffffffffffffffffffffffffff1673ffffffffffffffffffffffffffffffffffffffff16815260200183815260200182815260200194505050505060405180910390a150505050565b6060620021dc33600162002e3890919063ffffffff16565b151562002277576040517f08c379a000000000000000000000000000000000000000000000000000000000815260040180806020018281038252602b8152602001807f4f6e6c79207468652073746f7265206f776e65722063616e2063616c6c20746881526020017f69732066756e6374696f6e00000000000000000000000000000000000000000081525060400191505060405180910390fd5b600860008373ffffffffffffffffffffffffffffffffffffffff1673ffffffffffffffffffffffffffffffffffffffff1681526020019081526020016000208054806020026020016040519081016040528092919081815260200182805480156200230257602002820191906000526020600020905b815481526020019060010190808311620022ed575b50505050509050919050565b6200232433600062002e3890919063ffffffff16565b1515620023bf576040517f08c379a00000000000000000000000000000000000000000000000000000000081526004018080602001828103825260258152602001807f4f6e6c79207468652061646d696e2063616e2063616c6c20746869732066756e81526020017f6374696f6e00000000000000000000000000000000000000000000000000000081525060400191505060405180910390fd5b6101006040519081016040528060025481526020018573ffffffffffffffffffffffffffffffffffffffff1681526020018481526020018381526020016040805190810160405280600a81526020017f64656661756c743132330000000000000000000000000000000000000000000081525081526020018281526020016040805190810160405280600b81526020017f73746f72655f6f776e65720000000000000000000000000000000000000000008152508152602001600115158152506006600060025481526020019081526020016000206000820151816000015560208201518160010160006101000a81548173ffffffffffffffffffffffffffffffffffffffff021916908373ffffffffffffffffffffffffffffffffffffffff1602179055506040820151816002019080519060200190620025039291906200310d565b506060820151816003019080519060200190620025229291906200310d565b506080820151816004019080519060200190620025419291906200310d565b5060a0820151816005019080519060200190620025609291906200310d565b5060c08201518160060190805190602001906200257f9291906200310d565b5060e08201518160070160006101000a81548160ff021916908315150217905550905050600160025401600281905550620025c584600162002f5c90919063ffffffff16565b7fcd97f319b0838c4ab135ad9bad031c7bb084beb9aedced11dc9e83875e57368c600254858585856001604051808781526020018673ffffffffffffffffffffffffffffffffffffffff1673ffffffffffffffffffffffffffffffffffffffff16815260200180602001806020018060200180602001806020018715151515815260200186810386528a818151815260200191508051906020019080838360005b838110156200268357808201518184015260208101905062002666565b50505050905090810190601f168015620026b15780820380516001836020036101000a031916815260200191505b50868103855289818151815260200191508051906020019080838360005b83811015620026ec578082015181840152602081019050620026cf565b50505050905090810190601f1680156200271a5780820380516001836020036101000a031916815260200191505b508681038452600a8152602001807f64656661756c7431323300000000000000000000000000000000000000000000815250602001868103835288818151815260200191508051906020019080838360005b83811015620027895780820151818401526020810190506200276c565b50505050905090810190601f168015620027b75780820380516001836020036101000a031916815260200191505b508681038252600b8152602001807f73746f72655f6f776e65720000000000000000000000000000000000000000008152506020019b50505050505050505050505060405180910390a150505050565b60006200281f33600162002e3890919063ffffffff16565b1515620028ba576040517f08c379a000000000000000000000000000000000000000000000000000000000815260040180806020018281038252602b8152602001807f4f6e6c79207468652073746f7265206f776e65722063616e2063616c6c20746881526020017f69732066756e6374696f6e00000000000000000000000000000000000000000081525060400191505060405180910390fd5b600560009054906101000a900460ff1615151562002966576040517f08c379a000000000000000000000000000000000000000000000000000000000815260040180806020018281038252603e8152602001807f436f6e74726163742063757272656e746c7920696e20656d657267656e63792081526020017f6d6f64652c2046756e6374696f6e2063616e27742062652063616c6c6564000081525060400191505060405180910390fd5b60008411151562002a05576040517f08c379a00000000000000000000000000000000000000000000000000000000081526004018080602001828103825260218152602001807f50726963652073686f756c642062652067726561746572207468616e207a657281526020017f6f0000000000000000000000000000000000000000000000000000000000000081525060400191505060405180910390fd5b6000835111151562002a7f576040517f08c379a00000000000000000000000000000000000000000000000000000000081526004018080602001828103825260168152602001807f54686572652073686f756c642062652061206e616d650000000000000000000081525060200191505060405180910390fd5b6000825111151562002b1f576040517f08c379a00000000000000000000000000000000000000000000000000000000081526004018080602001828103825260238152602001807f54686572652073686f756c6420626520612073686f727420646573637269707481526020017f696f6e000000000000000000000000000000000000000000000000000000000081525060400191505060405180910390fd5b6000338686868662002b3062003194565b808673ffffffffffffffffffffffffffffffffffffffff1673ffffffffffffffffffffffffffffffffffffffff1681526020018581526020018481526020018060200180602001838103835285818151815260200191508051906020019080838360005b8381101562002bb157808201518184015260208101905062002b94565b50505050905090810190601f16801562002bdf5780820380516001836020036101000a031916815260200191505b50838103825284818151815260200191508051906020019080838360005b8381101562002c1a57808201518184015260208101905062002bfd565b50505050905090810190601f16801562002c485780820380516001836020036101000a031916815260200191505b50975050505050505050604051809103906000f08015801562002c6f573d6000803e3d6000fd5b50905060048190806001815401808255809150509060018203906000526020600020016000909192909190916101000a81548173ffffffffffffffffffffffffffffffffffffffff021916908373ffffffffffffffffffffffffffffffffffffffff160217905550507fcb4454c9f75f7c4f224ba8cbfc7e2009cfd9bfe533fb35ae33baec4227f592678187878787604051808673ffffffffffffffffffffffffffffffffffffffff1673ffffffffffffffffffffffffffffffffffffffff1681526020018581526020018481526020018060200180602001838103835285818151815260200191508051906020019080838360005b8381101562002d8257808201518184015260208101905062002d65565b50505050905090810190601f16801562002db05780820380516001836020036101000a031916815260200191505b50838103825284818151815260200191508051906020019080838360005b8381101562002deb57808201518184015260208101905062002dce565b50505050905090810190601f16801562002e195780820380516001836020036101000a031916815260200191505b5097505050505050505060405180910390a16001915050949350505050565b60008073ffffffffffffffffffffffffffffffffffffffff168273ffffffffffffffffffffffffffffffffffffffff161415151562002f05576040517f08c379a00000000000000000000000000000000000000000000000000000000081526004018080602001828103825260228152602001807f526f6c65733a206163636f756e7420697320746865207a65726f20616464726581526020017f737300000000000000000000000000000000000000000000000000000000000081525060400191505060405180910390fd5b8260000160008373ffffffffffffffffffffffffffffffffffffffff1673ffffffffffffffffffffffffffffffffffffffff16815260200190815260200160002060009054906101000a900460ff16905092915050565b62002f68828262002e38565b15151562002fde576040517f08c379a000000000000000000000000000000000000000000000000000000000815260040180806020018281038252601f8152602001807f526f6c65733a206163636f756e7420616c72656164792068617320726f6c650081525060200191505060405180910390fd5b60018260000160008373ffffffffffffffffffffffffffffffffffffffff1673ffffffffffffffffffffffffffffffffffffffff16815260200190815260200160002060006101000a81548160ff0219169083151502179055505050565b60008083141562003051576000905062003107565b600082840290508284828115156200306557fe5b0414151562003102576040517f08c379a00000000000000000000000000000000000000000000000000000000081526004018080602001828103825260218152602001807f536166654d6174683a206d756c7469706c69636174696f6e206f766572666c6f81526020017f770000000000000000000000000000000000000000000000000000000000000081525060400191505060405180910390fd5b809150505b92915050565b828054600181600116156101000203166002900490600052602060002090601f016020900481019282601f106200315057805160ff191683800117855562003181565b8280016001018555821562003181579182015b828111156200318057825182559160200191906001019062003163565b5b509050620031909190620031a5565b5090565b60405161258680620031ce83390190565b620031ca91905b80821115620031c6576000816000905550600101620031ac565b5090565b9056fe60806040523480156200001157600080fd5b506040516200258638038062002586833981018060405260a08110156200003757600080fd5b8101908080519060200190929190805190602001909291908051906020019092919080516401000000008111156200006e57600080fd5b828101905060208101848111156200008557600080fd5b8151856001820283011164010000000082111715620000a357600080fd5b50509291906020018051640100000000811115620000c057600080fd5b82810190506020810184811115620000d757600080fd5b8151856001820283011164010000000082111715620000f557600080fd5b505092919050505033600560006101000a81548173ffffffffffffffffffffffffffffffffffffffff021916908373ffffffffffffffffffffffffffffffffffffffff16021790555084600660006101000a81548173ffffffffffffffffffffffffffffffffffffffff021916908373ffffffffffffffffffffffffffffffffffffffff1602179055506000600981905550826008819055508360028190555081600a9080519060200190620001ad92919062000300565b5080600b9080519060200190620001c692919062000300565b50600254600080600560009054906101000a900473ffffffffffffffffffffffffffffffffffffffff1673ffffffffffffffffffffffffffffffffffffffff1673ffffffffffffffffffffffffffffffffffffffff1681526020019081526020016000208190555060025460016000600560009054906101000a900473ffffffffffffffffffffffffffffffffffffffff1673ffffffffffffffffffffffffffffffffffffffff1673ffffffffffffffffffffffffffffffffffffffff1681526020019081526020016000206000600660009054906101000a900473ffffffffffffffffffffffffffffffffffffffff1673ffffffffffffffffffffffffffffffffffffffff1673ffffffffffffffffffffffffffffffffffffffff168152602001908152602001600020819055505050505050620003af565b828054600181600116156101000203166002900490600052602060002090601f016020900481019282601f106200034357805160ff191683800117855562000374565b8280016001018555821562000374579182015b828111156200037357825182559160200191906001019062000356565b5b50905062000383919062000387565b5090565b620003ac91905b80821115620003a85760008160009055506001016200038e565b5090565b90565b6121c780620003bf6000396000f3fe608060405260043610610107576000357c0100000000000000000000000000000000000000000000000000000000900463ffffffff168063095ea7b31461010c5780631718b22e1461017f57806318160ddd146101f25780631da989601461021d5780632384b94f146102ad57806323b872dd146102ed578063587380f514610380578063661884631461050b57806370a082311461057e57806371299e36146105e35780637f7650eb1461063a5780638d921130146106ca5780639fbe993214610721578063a035b1fe1461085e578063a9059cbb14610889578063aace52fe146108fc578063d6c14bbc14610927578063d73dd62314610952578063dd62ed3e146109c5575b600080fd5b34801561011857600080fd5b506101656004803603604081101561012f57600080fd5b81019080803573ffffffffffffffffffffffffffffffffffffffff16906020019092919080359060200190929190505050610a4a565b604051808215151515815260200191505060405180910390f35b34801561018b57600080fd5b506101d8600480360360408110156101a257600080fd5b81019080803573ffffffffffffffffffffffffffffffffffffffff16906020019092919080359060200190929190505050610b3c565b604051808215151515815260200191505060405180910390f35b3480156101fe57600080fd5b50610207610e81565b6040518082815260200191505060405180910390f35b34801561022957600080fd5b50610232610e8b565b6040518080602001828103825283818151815260200191508051906020019080838360005b83811015610272578082015181840152602081019050610257565b50505050905090810190601f16801561029f5780820380516001836020036101000a031916815260200191505b509250505060405180910390f35b3480156102b957600080fd5b506102c2610f29565b6040518085815260200184815260200183815260200182815260200194505050505060405180910390f35b3480156102f957600080fd5b506103666004803603606081101561031057600080fd5b81019080803573ffffffffffffffffffffffffffffffffffffffff169060200190929190803573ffffffffffffffffffffffffffffffffffffffff16906020019092919080359060200190929190505050610f99565b604051808215151515815260200191505060405180910390f35b34801561038c57600080fd5b506104f1600480360360808110156103a357600080fd5b810190808035906020019092919080359060200190929190803590602001906401000000008111156103d457600080fd5b8201836020820111156103e657600080fd5b8035906020019184600183028401116401000000008311171561040857600080fd5b91908080601f016020809104026020016040519081016040528093929190818152602001838380828437600081840152601f19601f8201169050808301925050505050505091929192908035906020019064010000000081111561046b57600080fd5b82018360208201111561047d57600080fd5b8035906020019184600183028401116401000000008311171561049f57600080fd5b91908080601f016020809104026020016040519081016040528093929190818152602001838380828437600081840152601f19601f820116905080830192505050505050509192919290505050611354565b604051808215151515815260200191505060405180910390f35b34801561051757600080fd5b506105646004803603604081101561052e57600080fd5b81019080803573ffffffffffffffffffffffffffffffffffffffff16906020019092919080359060200190929190505050611523565b604051808215151515815260200191505060405180910390f35b34801561058a57600080fd5b506105cd600480360360208110156105a157600080fd5b81019080803573ffffffffffffffffffffffffffffffffffffffff1690602001909291905050506117b5565b6040518082815260200191505060405180910390f35b3480156105ef57600080fd5b506105f86117fd565b604051808273ffffffffffffffffffffffffffffffffffffffff1673ffffffffffffffffffffffffffffffffffffffff16815260200191505060405180910390f35b34801561064657600080fd5b5061064f611823565b6040518080602001828103825283818151815260200191508051906020019080838360005b8381101561068f578082015181840152602081019050610674565b50505050905090810190601f1680156106bc5780820380516001836020036101000a031916815260200191505b509250505060405180910390f35b3480156106d657600080fd5b506106df6118c1565b604051808273ffffffffffffffffffffffffffffffffffffffff1673ffffffffffffffffffffffffffffffffffffffff16815260200191505060405180910390f35b34801561072d57600080fd5b506107366118e7565b604051808673ffffffffffffffffffffffffffffffffffffffff1673ffffffffffffffffffffffffffffffffffffffff1681526020018581526020018481526020018060200180602001838103835285818151815260200191508051906020019080838360005b838110156107b857808201518184015260208101905061079d565b50505050905090810190601f1680156107e55780820380516001836020036101000a031916815260200191505b50838103825284818151815260200191508051906020019080838360005b8381101561081e578082015181840152602081019050610803565b50505050905090810190601f16801561084b5780820380516001836020036101000a031916815260200191505b5097505050505050505060405180910390f35b34801561086a57600080fd5b50610873611a5f565b6040518082815260200191505060405180910390f35b34801561089557600080fd5b506108e2600480360360408110156108ac57600080fd5b81019080803573ffffffffffffffffffffffffffffffffffffffff16906020019092919080359060200190929190505050611a65565b604051808215151515815260200191505060405180910390f35b34801561090857600080fd5b50610911611c85565b6040518082815260200191505060405180910390f35b34801561093357600080fd5b5061093c611c8b565b6040518082815260200191505060405180910390f35b34801561095e57600080fd5b506109ab6004803603604081101561097557600080fd5b81019080803573ffffffffffffffffffffffffffffffffffffffff16906020019092919080359060200190929190505050611c91565b604051808215151515815260200191505060405180910390f35b3480156109d157600080fd5b50610a34600480360360408110156109e857600080fd5b81019080803573ffffffffffffffffffffffffffffffffffffffff169060200190929190803573ffffffffffffffffffffffffffffffffffffffff169060200190929190505050611e8d565b6040518082815260200191505060405180910390f35b600081600160003373ffffffffffffffffffffffffffffffffffffffff1673ffffffffffffffffffffffffffffffffffffffff16815260200190815260200160002060008573ffffffffffffffffffffffffffffffffffffffff1673ffffffffffffffffffffffffffffffffffffffff168152602001908152602001600020819055508273ffffffffffffffffffffffffffffffffffffffff163373ffffffffffffffffffffffffffffffffffffffff167f8c5be1e5ebec7d5bd14f71427d1e84f3dd0314c0f7b2291e5b200ac8c7c3b925846040518082815260200191505060405180910390a36001905092915050565b600081600080600560009054906101000a900473ffffffffffffffffffffffffffffffffffffffff1673ffffffffffffffffffffffffffffffffffffffff1673ffffffffffffffffffffffffffffffffffffffff1681526020019081526020016000205410151515610c3c576040517f08c379a00000000000000000000000000000000000000000000000000000000081526004018080602001828103825260348152602001807f5175616e746974792073686f756c64206265206c6573732074686174206f722081526020017f657175616c20746f20746f74616c537570706c7900000000000000000000000081525060400191505060405180910390fd5b610caf82600080600560009054906101000a900473ffffffffffffffffffffffffffffffffffffffff1673ffffffffffffffffffffffffffffffffffffffff1673ffffffffffffffffffffffffffffffffffffffff16815260200190815260200160002054611f1490919063ffffffff16565b600080600560009054906101000a900473ffffffffffffffffffffffffffffffffffffffff1673ffffffffffffffffffffffffffffffffffffffff1673ffffffffffffffffffffffffffffffffffffffff16815260200190815260200160002081905550610d64826000808673ffffffffffffffffffffffffffffffffffffffff1673ffffffffffffffffffffffffffffffffffffffff16815260200190815260200160002054611f9f90919063ffffffff16565b6000808573ffffffffffffffffffffffffffffffffffffffff1673ffffffffffffffffffffffffffffffffffffffff16815260200190815260200160002081905550610dbb82600754611f1490919063ffffffff16565b600781905550610dea610dd96008548461202990919063ffffffff16565b600954611f9f90919063ffffffff16565b6009819055508273ffffffffffffffffffffffffffffffffffffffff16600560009054906101000a900473ffffffffffffffffffffffffffffffffffffffff1673ffffffffffffffffffffffffffffffffffffffff167fddf252ad1be2c89b69c2b068fc378daa952ba7f163c4a11628f55a4df523b3ef846040518082815260200191505060405180910390a36001905092915050565b6000600254905090565b600b8054600181600116156101000203166002900480601f016020809104026020016040519081016040528092919081815260200182805460018160011615610100020316600290048015610f215780601f10610ef657610100808354040283529160200191610f21565b820191906000526020600020905b815481529060010190602001808311610f0457829003601f168201915b505050505081565b600080600080600954610f5d600660009054906101000a900473ffffffffffffffffffffffffffffffffffffffff166117b5565b610f88600560009054906101000a900473ffffffffffffffffffffffffffffffffffffffff166117b5565b600254935093509350935090919293565b60008060008573ffffffffffffffffffffffffffffffffffffffff1673ffffffffffffffffffffffffffffffffffffffff168152602001908152602001600020548211151515610fe857600080fd5b600160008573ffffffffffffffffffffffffffffffffffffffff1673ffffffffffffffffffffffffffffffffffffffff16815260200190815260200160002060003373ffffffffffffffffffffffffffffffffffffffff1673ffffffffffffffffffffffffffffffffffffffff16815260200190815260200160002054821115151561107357600080fd5b600073ffffffffffffffffffffffffffffffffffffffff168373ffffffffffffffffffffffffffffffffffffffff16141515156110af57600080fd5b611100826000808773ffffffffffffffffffffffffffffffffffffffff1673ffffffffffffffffffffffffffffffffffffffff16815260200190815260200160002054611f1490919063ffffffff16565b6000808673ffffffffffffffffffffffffffffffffffffffff1673ffffffffffffffffffffffffffffffffffffffff16815260200190815260200160002081905550611193826000808673ffffffffffffffffffffffffffffffffffffffff1673ffffffffffffffffffffffffffffffffffffffff16815260200190815260200160002054611f9f90919063ffffffff16565b6000808573ffffffffffffffffffffffffffffffffffffffff1673ffffffffffffffffffffffffffffffffffffffff1681526020019081526020016000208190555061126482600160008773ffffffffffffffffffffffffffffffffffffffff1673ffffffffffffffffffffffffffffffffffffffff16815260200190815260200160002060003373ffffffffffffffffffffffffffffffffffffffff1673ffffffffffffffffffffffffffffffffffffffff16815260200190815260200160002054611f1490919063ffffffff16565b600160008673ffffffffffffffffffffffffffffffffffffffff1673ffffffffffffffffffffffffffffffffffffffff16815260200190815260200160002060003373ffffffffffffffffffffffffffffffffffffffff1673ffffffffffffffffffffffffffffffffffffffff168152602001908152602001600020819055508273ffffffffffffffffffffffffffffffffffffffff168473ffffffffffffffffffffffffffffffffffffffff167fddf252ad1be2c89b69c2b068fc378daa952ba7f163c4a11628f55a4df523b3ef846040518082815260200191505060405180910390a3600190509392505050565b60006002548511151561136957846007819055505b600084111561137a57836008819055505b60008351111561139c5782600a908051906020019061139a9291906120f6565b505b6000825111156113be5781600b90805190602001906113bc9291906120f6565b505b7fd50ee4ceeaa6387d71b557329cd0912888db516f987f923133c6836793ab56a7600754600854600a600b6040518085815260200184815260200180602001806020018381038352858181546001816001161561010002031660029004815260200191508054600181600116156101000203166002900480156114825780601f1061145757610100808354040283529160200191611482565b820191906000526020600020905b81548152906001019060200180831161146557829003601f168201915b50508381038252848181546001816001161561010002031660029004815260200191508054600181600116156101000203166002900480156115055780601f106114da57610100808354040283529160200191611505565b820191906000526020600020905b8154815290600101906020018083116114e857829003601f168201915b5050965050505050505060405180910390a160019050949350505050565b600080600160003373ffffffffffffffffffffffffffffffffffffffff1673ffffffffffffffffffffffffffffffffffffffff16815260200190815260200160002060008573ffffffffffffffffffffffffffffffffffffffff1673ffffffffffffffffffffffffffffffffffffffff1681526020019081526020016000205490508083101515611635576000600160003373ffffffffffffffffffffffffffffffffffffffff1673ffffffffffffffffffffffffffffffffffffffff16815260200190815260200160002060008673ffffffffffffffffffffffffffffffffffffffff1673ffffffffffffffffffffffffffffffffffffffff168152602001908152602001600020819055506116c9565b6116488382611f1490919063ffffffff16565b600160003373ffffffffffffffffffffffffffffffffffffffff1673ffffffffffffffffffffffffffffffffffffffff16815260200190815260200160002060008673ffffffffffffffffffffffffffffffffffffffff1673ffffffffffffffffffffffffffffffffffffffff168152602001908152602001600020819055505b8373ffffffffffffffffffffffffffffffffffffffff163373ffffffffffffffffffffffffffffffffffffffff167f8c5be1e5ebec7d5bd14f71427d1e84f3dd0314c0f7b2291e5b200ac8c7c3b925600160003373ffffffffffffffffffffffffffffffffffffffff1673ffffffffffffffffffffffffffffffffffffffff16815260200190815260200160002060008873ffffffffffffffffffffffffffffffffffffffff1673ffffffffffffffffffffffffffffffffffffffff168152602001908152602001600020546040518082815260200191505060405180910390a3600191505092915050565b60008060008373ffffffffffffffffffffffffffffffffffffffff1673ffffffffffffffffffffffffffffffffffffffff168152602001908152602001600020549050919050565b600560009054906101000a900473ffffffffffffffffffffffffffffffffffffffff1681565b600a8054600181600116156101000203166002900480601f0160208091040260200160405190810160405280929190818152602001828054600181600116156101000203166002900480156118b95780601f1061188e576101008083540402835291602001916118b9565b820191906000526020600020905b81548152906001019060200180831161189c57829003601f168201915b505050505081565b600660009054906101000a900473ffffffffffffffffffffffffffffffffffffffff1681565b6000806000606080600560009054906101000a900473ffffffffffffffffffffffffffffffffffffffff16945060075493506008549250600a8054600181600116156101000203166002900480601f0160208091040260200160405190810160405280929190818152602001828054600181600116156101000203166002900480156119b45780601f10611989576101008083540402835291602001916119b4565b820191906000526020600020905b81548152906001019060200180831161199757829003601f168201915b50505050509150600b8054600181600116156101000203166002900480601f016020809104026020016040519081016040528092919081815260200182805460018160011615610100020316600290048015611a515780601f10611a2657610100808354040283529160200191611a51565b820191906000526020600020905b815481529060010190602001808311611a3457829003601f168201915b505050505090509091929394565b60085481565b60008060003373ffffffffffffffffffffffffffffffffffffffff1673ffffffffffffffffffffffffffffffffffffffff168152602001908152602001600020548211151515611ab457600080fd5b600073ffffffffffffffffffffffffffffffffffffffff168373ffffffffffffffffffffffffffffffffffffffff1614151515611af057600080fd5b611b41826000803373ffffffffffffffffffffffffffffffffffffffff1673ffffffffffffffffffffffffffffffffffffffff16815260200190815260200160002054611f1490919063ffffffff16565b6000803373ffffffffffffffffffffffffffffffffffffffff1673ffffffffffffffffffffffffffffffffffffffff16815260200190815260200160002081905550611bd4826000808673ffffffffffffffffffffffffffffffffffffffff1673ffffffffffffffffffffffffffffffffffffffff16815260200190815260200160002054611f9f90919063ffffffff16565b6000808573ffffffffffffffffffffffffffffffffffffffff1673ffffffffffffffffffffffffffffffffffffffff168152602001908152602001600020819055508273ffffffffffffffffffffffffffffffffffffffff163373ffffffffffffffffffffffffffffffffffffffff167fddf252ad1be2c89b69c2b068fc378daa952ba7f163c4a11628f55a4df523b3ef846040518082815260200191505060405180910390a36001905092915050565b60095481565b60075481565b6000611d2282600160003373ffffffffffffffffffffffffffffffffffffffff1673ffffffffffffffffffffffffffffffffffffffff16815260200190815260200160002060008673ffffffffffffffffffffffffffffffffffffffff1673ffffffffffffffffffffffffffffffffffffffff16815260200190815260200160002054611f9f90919063ffffffff16565b600160003373ffffffffffffffffffffffffffffffffffffffff1673ffffffffffffffffffffffffffffffffffffffff16815260200190815260200160002060008573ffffffffffffffffffffffffffffffffffffffff1673ffffffffffffffffffffffffffffffffffffffff168152602001908152602001600020819055508273ffffffffffffffffffffffffffffffffffffffff163373ffffffffffffffffffffffffffffffffffffffff167f8c5be1e5ebec7d5bd14f71427d1e84f3dd0314c0f7b2291e5b200ac8c7c3b925600160003373ffffffffffffffffffffffffffffffffffffffff1673ffffffffffffffffffffffffffffffffffffffff16815260200190815260200160002060008773ffffffffffffffffffffffffffffffffffffffff1673ffffffffffffffffffffffffffffffffffffffff168152602001908152602001600020546040518082815260200191505060405180910390a36001905092915050565b6000600160008473ffffffffffffffffffffffffffffffffffffffff1673ffffffffffffffffffffffffffffffffffffffff16815260200190815260200160002060008373ffffffffffffffffffffffffffffffffffffffff1673ffffffffffffffffffffffffffffffffffffffff16815260200190815260200160002054905092915050565b6000828211151515611f8e576040517f08c379a000000000000000000000000000000000000000000000000000000000815260040180806020018281038252601e8152602001807f536166654d6174683a207375627472616374696f6e206f766572666c6f77000081525060200191505060405180910390fd5b600082840390508091505092915050565b600080828401905083811015151561201f576040517f08c379a000000000000000000000000000000000000000000000000000000000815260040180806020018281038252601b8152602001807f536166654d6174683a206164646974696f6e206f766572666c6f77000000000081525060200191505060405180910390fd5b8091505092915050565b60008083141561203c57600090506120f0565b6000828402905082848281151561204f57fe5b041415156120eb576040517f08c379a00000000000000000000000000000000000000000000000000000000081526004018080602001828103825260218152602001807f536166654d6174683a206d756c7469706c69636174696f6e206f766572666c6f81526020017f770000000000000000000000000000000000000000000000000000000000000081525060400191505060405180910390fd5b809150505b92915050565b828054600181600116156101000203166002900490600052602060002090601f016020900481019282601f1061213757805160ff1916838001178555612165565b82800160010185558215612165579182015b82811115612164578251825591602001919060010190612149565b5b5090506121729190612176565b5090565b61219891905b8082111561219457600081600090555060010161217c565b5090565b9056fea165627a7a7230582084b7c36c3b8027551e5b9d95978bf8513b9b51f76e4ab60b931736a43d4403fd0029a165627a7a72305820408e151eae92831281fc0259fe5f175df28111183465399ee73206086188d7b10029",
  "source": "pragma solidity >=0.4.21 <0.6.0;\nimport \"./Roles.sol\";\nimport \"./SafeMath.sol\";\nimport {StoreProduct as Product} from \"./StoreProduct.sol\";\n\ncontract TumbulaStore{\n\n    /*\n    Contract for the Tumbula online store.\n\n    ------------------------------------\n    ROLES.\n    1. Admin.\n    2. Store Owner.\n    ------------------------------------\n     */\n    using Roles for Roles.Role;\n    using SafeMath for uint;\n    using SafeMath for uint8;\n\n    Roles.Role private admin;\n    Roles.Role private store_owner;\n    \n\n    uint public storeOwnerNumber;\n    uint public storeFrontNumber;\n\n    /*Products array*/\n    address[] public products;\n\n    /*  */\n\n    /*Boolean value to track emergency mode for circuit breaker pattern */\n    bool private emergency;\n\n    struct StoreOwner{\n        uint    id;\n        address storeowneraddress;\n        string  firstname;\n        string  lastname;\n        string  password;\n        string  email;\n        string  role;\n        bool    active;\n    }\n\n    struct StoreFront{\n        uint    id;\n        address storeowner;\n        string  storename;\n        string  storelocation;\n        string  storemerchandise;\n    }\n\n    mapping(uint => StoreOwner) public storeowners;\n\n    mapping(uint => StoreFront) public storefronts;\n\n    /*Mapping of storefronts to storeowner address */\n    mapping(address => uint[]) public storefrontIds;\n\n    event storeOwnerCreated(\n        uint id,\n        address storeowneraddress,\n        string firstname,\n        string lastname,\n        string password,\n        string email,\n        string role,\n        bool active\n    );\n\n    event roleAdded(\n        address role_address,\n        address added_by\n    );\n\n    event storeFrontCreated(\n        uint   id,\n        address storeowner,\n        string storename,\n        string storelocation,\n        string storemerchandise\n    );\n\n    event productCreated(\n        address product,\n        uint availableStock,\n        uint price,\n        string productName, \n        string shortDescription\n    );\n\n    event productsBought(\n        address product, \n        address buyer,\n        uint price,\n        uint quantity\n    );\n\n    /* Modifer that checks if the msg.sender has an admin role */\n    modifier onlyAdmin {\n        require(\n            admin.has(msg.sender),\n            \"Only the admin can call this function\"\n            );\n        _;\n    }\n\n    /* Modifer that checks if the msg.sender has a store owner role */\n    modifier onlyStoreOwner {\n        require(\n            store_owner.has(msg.sender),\n            \"Only the store owner can call this function\"\n            );\n        _;\n    }\n\n    /*Circuit breaker pattern modifiers */\n    modifier stopInEmergency { \n        require(!emergency, \"Contract currently in emergency mode, Function can't be called\"); \n        _; \n    }\n    \n    modifier onlyInEmergency { \n        require(emergency, \"Function callable only in emergency mode\"); \n        _;\n    }\n\n    constructor() public {\n        admin.add(msg.sender);\n        emergency = false;\n\n        storeOwnerNumber = 0;\n        storeFrontNumber = 0;\n    }\n    \n    /*\n    --------------------------------------------------------\n    Admin Functions\n    --------------------------------------------------------\n    */\n\n     /** @dev Lets admin add more admins \n     * @return Boolean for testing in solidity\n     */\n    function addAdmin(address _address) public onlyAdmin {\n        admin.add(_address);\n        emit roleAdded(\n            _address,\n            msg.sender\n        );\n    }\n\n    /** @dev Creates a new storeOwner \n     * @param _firstname Firstname of the store owner\n     * @param _lastname last name of the store owner\n     * @param _email Email address of the store owner \n     * @return Boolean for testing in solidity\n     */\n    function addStoreOwner(\n        address _storeowneraddress,\n        string memory _firstname, \n        string memory _lastname, \n        string memory _email\n    ) \n            public \n            onlyAdmin\n    {\n        storeowners[storeOwnerNumber] = StoreOwner(\n            storeOwnerNumber, \n            _storeowneraddress, \n            _firstname, \n            _lastname, \n            \"default123\", \n            _email, \n            \"store_owner\", \n            true);\n\n        storeOwnerNumber = storeOwnerNumber + 1;\n\n        //Add the store owner to store owner roles\n        store_owner.add(_storeowneraddress);\n\n        emit storeOwnerCreated(\n            storeOwnerNumber, \n            _storeowneraddress,\n            _firstname, \n            _lastname, \n            \"default123\", \n            _email, \n            \"store_owner\", \n            true\n        );\n    }\n\n    /** @dev Lets admin toggle the state of emergency \n     * @return Boolean for testing in solidity\n     */\n    function toggleEmergency() public onlyAdmin returns (bool) {\n        emergency = !emergency;\n        return true;\n    }\n\n    /*\n    ---------------------------------------------------------------\n    Store Owner Functions\n    ---------------------------------------------------------------\n    */\n\n    /** @dev Adds a new store front \n     * @param _storename Name of the storefront\n     * @param _storelocation Location of the storefront\n     * @param _storemerchandise Type of merchandise dealt in by storefront\n     * @return Boolean for testing in solidity\n     */\n    function addStoreFront(\n        string memory _storename, \n        string memory _storelocation, \n        string memory _storemerchandise\n        ) \n            public \n            onlyStoreOwner\n            stopInEmergency\n        {\n        storefronts[storeFrontNumber] = StoreFront(storeFrontNumber, msg.sender, _storename, _storelocation, _storemerchandise);\n        storeFrontNumber = storeFrontNumber + 1;\n        storefrontIds[msg.sender].push(storeFrontNumber);\n        emit storeFrontCreated(\n            storeFrontNumber, \n            msg.sender, \n            _storename, \n            _storelocation, \n            _storemerchandise\n        );\n    }\n\n    /** @dev Gets storefonts owned by particular storeowner \n     * @param _userAddress Address of the owner\n     * @return Array of store fronts owned\n     */\n\n    function getStoreFronts(address _userAddress) public view onlyStoreOwner returns (uint[] memory storefrontsarray){\n        return storefrontIds[_userAddress];\n    }\n\n    function getStoreFrontNumber() public view returns (uint) {\n        return storeFrontNumber;\n    }\n\n    /** @dev Creates ERC20 token per product \n     * @param availableStock Quantity of products available for each individual product\n     * @param price Price of each product\n     * @param productName Name of the product \n     * @param shortDescription Short description of the product\n     * @return Boolean for testing in solidity\n     */\n    function createProduct(uint availableStock, uint price, string memory productName, string memory shortDescription) \n        public \n        onlyStoreOwner\n        stopInEmergency\n        returns (bool)\n    {\n        require(price > 0, \"Price should be greater than zero\");\n        require(bytes(productName).length > 0, \"There should be a name\");\n        require(bytes(shortDescription).length > 0, \"There should be a short description\");\n\n        Product product = new Product(msg.sender, availableStock, price, productName, shortDescription);\n        products.push(address(product));\n        \n        emit productCreated(\n            address(product),\n            availableStock,\n            price,\n            productName,\n            shortDescription   \n        );\n        return true;\n    }\n\n    /** @dev Purchases movie tickets\n     * @param _product Address of product token\n     * @param _quantity quantity to be purchased\n     */\n    function buyProduct(address _product, uint _quantity)\n        public \n        payable\n        stopInEmergency\n    {\n        require(_quantity > 0, \"Ensure quantity is greater than zero\");\n        Product product = Product(_product);\n        uint price = product.price();\n        \n        // check available quantity\n        require(_quantity <= product.availableStock(), \"Ensure quantity is less than available Stock\");\n        \n        // check payment amount\n        require(msg.value >= _quantity.mul(price), \"Ensure price paid is enough to cover costs\");\n        \n        // // check excess payment\n        // uint excess = msg.value.sub(quantity.mul(price));\n        // if (excess > 0) emit ExcessPaid(now, movie, msg.sender, excess);\n        \n        product.buyProducts(msg.sender, _quantity);\n        emit productsBought(address(product), msg.sender, price, _quantity);\n    }\n\n\n    /** @dev Checks for the role of a specific address\n     * @param _theAddress Address for which role is to be checked\n     * @return uint indicating specific role\n     */\n\n    function checkAdressRole(address _theAddress) public view returns (uint){\n\n        if (admin.has(_theAddress)) {\n            return 0;\n        }\n\n        if (store_owner.has(_theAddress)) {\n            return 1;\n        }\n\n        if (!store_owner.has(_theAddress) && !admin.has(_theAddress)) {\n            return 2;\n        }\n    }\n\n    /** @dev Returns array of product token addresses\n     * @return Product token addresses\n     */\n    // function getProducts() public view returns (address[]) {\n    //     return products;\n    // }\n\n}",
  "sourcePath": "/Users/allan-only/projects/blockchain/final_project/tumbula-app/tumbula-store/contracts/TumbulaStore.sol",
  "compiler": {
    "name": "solc",
    "version": "0.5.0+commit.1d4f565a.Emscripten.clang"
  },
  "schemaVersion": "3.0.1",
  "updatedAt": "2019-06-27T04:50:39.716Z",
  "devdoc": {
    "methods": {
      "addAdmin(address)": {
        "details": "Lets admin add more admins ",
        "return": "Boolean for testing in solidity"
      },
      "addStoreFront(string,string,string)": {
        "details": "Adds a new store front ",
        "params": {
          "_storelocation": "Location of the storefront",
          "_storemerchandise": "Type of merchandise dealt in by storefront",
          "_storename": "Name of the storefront"
        },
        "return": "Boolean for testing in solidity"
      },
      "addStoreOwner(address,string,string,string)": {
        "details": "Creates a new storeOwner ",
        "params": {
          "_email": "Email address of the store owner ",
          "_firstname": "Firstname of the store owner",
          "_lastname": "last name of the store owner"
        },
        "return": "Boolean for testing in solidity"
      },
      "buyProduct(address,uint256)": {
        "details": "Purchases movie tickets",
        "params": {
          "_product": "Address of product token",
          "_quantity": "quantity to be purchased"
        }
      },
      "checkAdressRole(address)": {
        "details": "Checks for the role of a specific address",
        "params": {
          "_theAddress": "Address for which role is to be checked"
        },
        "return": "uint indicating specific role"
      },
      "createProduct(uint256,uint256,string,string)": {
        "details": "Creates ERC20 token per product ",
        "params": {
          "availableStock": "Quantity of products available for each individual product",
          "price": "Price of each product",
          "productName": "Name of the product ",
          "shortDescription": "Short description of the product"
        },
        "return": "Boolean for testing in solidity"
      },
      "getStoreFronts(address)": {
        "details": "Gets storefonts owned by particular storeowner ",
        "params": {
          "_userAddress": "Address of the owner"
        },
        "return": "Array of store fronts owned"
      },
      "toggleEmergency()": {
        "details": "Lets admin toggle the state of emergency ",
        "return": "Boolean for testing in solidity"
      }
    }
  },
  "userdoc": {
    "methods": {}
  }
}