{
  "contractName": "TumbulaStore",
  "abi": [
    {
      "constant": true,
      "inputs": [],
      "name": "storeFrontNumber",
      "outputs": [
        {
          "name": "",
          "type": "uint256"
        }
      ],
      "payable": false,
      "stateMutability": "view",
      "type": "function",
      "signature": "0x1b689e8b"
    },
    {
      "constant": true,
      "inputs": [
        {
          "name": "",
          "type": "uint256"
        }
      ],
      "name": "storefronts",
      "outputs": [
        {
          "name": "id",
          "type": "uint256"
        },
        {
          "name": "storeowner",
          "type": "address"
        },
        {
          "name": "storename",
          "type": "string"
        },
        {
          "name": "storelocation",
          "type": "string"
        },
        {
          "name": "storemerchandise",
          "type": "string"
        }
      ],
      "payable": false,
      "stateMutability": "view",
      "type": "function",
      "signature": "0x6c3aedfb"
    },
    {
      "constant": true,
      "inputs": [
        {
          "name": "",
          "type": "uint256"
        }
      ],
      "name": "products",
      "outputs": [
        {
          "name": "",
          "type": "address"
        }
      ],
      "payable": false,
      "stateMutability": "view",
      "type": "function",
      "signature": "0x7acc0b20"
    },
    {
      "constant": true,
      "inputs": [
        {
          "name": "",
          "type": "uint256"
        }
      ],
      "name": "storeowners",
      "outputs": [
        {
          "name": "id",
          "type": "uint256"
        },
        {
          "name": "firstname",
          "type": "string"
        },
        {
          "name": "lastname",
          "type": "string"
        },
        {
          "name": "password",
          "type": "string"
        },
        {
          "name": "email",
          "type": "string"
        },
        {
          "name": "role",
          "type": "string"
        },
        {
          "name": "active",
          "type": "bool"
        }
      ],
      "payable": false,
      "stateMutability": "view",
      "type": "function",
      "signature": "0x8a610565"
    },
    {
      "constant": true,
      "inputs": [],
      "name": "storeOwnerNumber",
      "outputs": [
        {
          "name": "",
          "type": "uint256"
        }
      ],
      "payable": false,
      "stateMutability": "view",
      "type": "function",
      "signature": "0xa726f30a"
    },
    {
      "inputs": [],
      "payable": false,
      "stateMutability": "nonpayable",
      "type": "constructor",
      "signature": "constructor"
    },
    {
      "anonymous": false,
      "inputs": [
        {
          "indexed": false,
          "name": "id",
          "type": "uint256"
        },
        {
          "indexed": false,
          "name": "firstname",
          "type": "string"
        },
        {
          "indexed": false,
          "name": "lastname",
          "type": "string"
        },
        {
          "indexed": false,
          "name": "password",
          "type": "string"
        },
        {
          "indexed": false,
          "name": "email",
          "type": "string"
        },
        {
          "indexed": false,
          "name": "role",
          "type": "string"
        },
        {
          "indexed": false,
          "name": "active",
          "type": "bool"
        }
      ],
      "name": "storeOwnerCreated",
      "type": "event",
      "signature": "0xbffe56ea2d628d83e81f9ea646bd624e8d4dd1c2f9a69f1d11cb11a7ebb0e362"
    },
    {
      "anonymous": false,
      "inputs": [
        {
          "indexed": false,
          "name": "role_address",
          "type": "address"
        },
        {
          "indexed": false,
          "name": "added_by",
          "type": "address"
        }
      ],
      "name": "roleAdded",
      "type": "event",
      "signature": "0xc91daac650a2962f6712b7ea2b91b57d03046d0f5e6f74225c6d99b435db311c"
    },
    {
      "anonymous": false,
      "inputs": [
        {
          "indexed": false,
          "name": "id",
          "type": "uint256"
        },
        {
          "indexed": false,
          "name": "storeowner",
          "type": "address"
        },
        {
          "indexed": false,
          "name": "storename",
          "type": "string"
        },
        {
          "indexed": false,
          "name": "storelocation",
          "type": "string"
        },
        {
          "indexed": false,
          "name": "storemerchandise",
          "type": "string"
        }
      ],
      "name": "storeFrontCreated",
      "type": "event",
      "signature": "0x846f140bb6ce8522d3684a2d7a3aad94bb9b8c4e41207390b9a6667ca3fee902"
    },
    {
      "anonymous": false,
      "inputs": [
        {
          "indexed": false,
          "name": "product",
          "type": "address"
        },
        {
          "indexed": false,
          "name": "availableStock",
          "type": "uint256"
        },
        {
          "indexed": false,
          "name": "price",
          "type": "uint256"
        },
        {
          "indexed": false,
          "name": "productName",
          "type": "string"
        },
        {
          "indexed": false,
          "name": "shortDescription",
          "type": "string"
        }
      ],
      "name": "ProductCreated",
      "type": "event",
      "signature": "0xce7bbb0b63185f3f0cf844c930f49979aa2f727cdf4f7f676016c40eacc8ac25"
    },
    {
      "anonymous": false,
      "inputs": [
        {
          "indexed": false,
          "name": "product",
          "type": "address"
        },
        {
          "indexed": false,
          "name": "buyer",
          "type": "address"
        },
        {
          "indexed": false,
          "name": "price",
          "type": "uint256"
        },
        {
          "indexed": false,
          "name": "quantity",
          "type": "uint256"
        }
      ],
      "name": "ProductsBought",
      "type": "event",
      "signature": "0x53c5b00f5602940fc886970f32f79e56d4af0057e68547ff9d7b15405f4ae8fc"
    },
    {
      "constant": false,
      "inputs": [
        {
          "name": "_firstname",
          "type": "string"
        },
        {
          "name": "_lastname",
          "type": "string"
        },
        {
          "name": "_email",
          "type": "string"
        }
      ],
      "name": "addStoreOwner",
      "outputs": [],
      "payable": false,
      "stateMutability": "nonpayable",
      "type": "function",
      "signature": "0x49c7f893"
    },
    {
      "constant": false,
      "inputs": [
        {
          "name": "_address",
          "type": "address"
        }
      ],
      "name": "addAdmin",
      "outputs": [],
      "payable": false,
      "stateMutability": "nonpayable",
      "type": "function",
      "signature": "0x70480275"
    },
    {
      "constant": false,
      "inputs": [],
      "name": "toggleEmergency",
      "outputs": [
        {
          "name": "",
          "type": "bool"
        }
      ],
      "payable": false,
      "stateMutability": "nonpayable",
      "type": "function",
      "signature": "0x2d1d2744"
    },
    {
      "constant": false,
      "inputs": [
        {
          "name": "_storename",
          "type": "string"
        },
        {
          "name": "_storelocation",
          "type": "string"
        },
        {
          "name": "_storemerchandise",
          "type": "string"
        }
      ],
      "name": "addStoreFront",
      "outputs": [],
      "payable": false,
      "stateMutability": "nonpayable",
      "type": "function",
      "signature": "0x0eb13ab7"
    },
    {
      "constant": false,
      "inputs": [
        {
          "name": "availableStock",
          "type": "uint256"
        },
        {
          "name": "price",
          "type": "uint256"
        },
        {
          "name": "productName",
          "type": "string"
        },
        {
          "name": "shortDescription",
          "type": "string"
        }
      ],
      "name": "createProduct",
      "outputs": [
        {
          "name": "",
          "type": "bool"
        }
      ],
      "payable": false,
      "stateMutability": "nonpayable",
      "type": "function",
      "signature": "0xfc1c3a2d"
    }
  ],
  "bytecode": "0x6080604052600060025560006003553480156200001b57600080fd5b5062000040336000620000616401000000000262002295179091906401000000009004565b6000600560006101000a81548160ff02191690831515021790555062000274565b6200007c828262000150640100000000026401000000009004565b151515620000f2576040517f08c379a000000000000000000000000000000000000000000000000000000000815260040180806020018281038252601f8152602001807f526f6c65733a206163636f756e7420616c72656164792068617320726f6c650081525060200191505060405180910390fd5b60018260000160008373ffffffffffffffffffffffffffffffffffffffff1673ffffffffffffffffffffffffffffffffffffffff16815260200190815260200160002060006101000a81548160ff0219169083151502179055505050565b60008073ffffffffffffffffffffffffffffffffffffffff168273ffffffffffffffffffffffffffffffffffffffff16141515156200021d576040517f08c379a00000000000000000000000000000000000000000000000000000000081526004018080602001828103825260228152602001807f526f6c65733a206163636f756e7420697320746865207a65726f20616464726581526020017f737300000000000000000000000000000000000000000000000000000000000081525060400191505060405180910390fd5b8260000160008373ffffffffffffffffffffffffffffffffffffffff1673ffffffffffffffffffffffffffffffffffffffff16815260200190815260200160002060009054906101000a900460ff16905092915050565b614b2e80620002846000396000f3fe608060405260043610620000af576000357c0100000000000000000000000000000000000000000000000000000000900463ffffffff1680630eb13ab714620000b45780631b689e8b14620002b75780632d1d274414620002e557806349c7f89314620003175780636c3aedfb146200051a5780637048027514620006ed5780637acc0b2014620007425780638a61056514620007c1578063a726f30a1462000a4a578063fc1c3a2d1462000a78575b600080fd5b348015620000c157600080fd5b50620002b560048036036060811015620000da57600080fd5b8101908080359060200190640100000000811115620000f857600080fd5b8201836020820111156200010b57600080fd5b803590602001918460018302840111640100000000831117156200012e57600080fd5b91908080601f016020809104026020016040519081016040528093929190818152602001838380828437600081840152601f19601f820116905080830192505050505050509192919290803590602001906401000000008111156200019257600080fd5b820183602082011115620001a557600080fd5b80359060200191846001830284011164010000000083111715620001c857600080fd5b91908080601f016020809104026020016040519081016040528093929190818152602001838380828437600081840152601f19601f820116905080830192505050505050509192919290803590602001906401000000008111156200022c57600080fd5b8201836020820111156200023f57600080fd5b803590602001918460018302840111640100000000831117156200026257600080fd5b91908080601f016020809104026020016040519081016040528093929190818152602001838380828437600081840152601f19601f82011690508083019250505050505050919291929050505062000c0d565b005b348015620002c457600080fd5b50620002cf62000f92565b6040518082815260200191505060405180910390f35b348015620002f257600080fd5b50620002fd62000f98565b604051808215151515815260200191505060405180910390f35b3480156200032457600080fd5b5062000518600480360360608110156200033d57600080fd5b81019080803590602001906401000000008111156200035b57600080fd5b8201836020820111156200036e57600080fd5b803590602001918460018302840111640100000000831117156200039157600080fd5b91908080601f016020809104026020016040519081016040528093929190818152602001838380828437600081840152601f19601f82011690508083019250505050505050919291929080359060200190640100000000811115620003f557600080fd5b8201836020820111156200040857600080fd5b803590602001918460018302840111640100000000831117156200042b57600080fd5b91908080601f016020809104026020016040519081016040528093929190818152602001838380828437600081840152601f19601f820116905080830192505050505050509192919290803590602001906401000000008111156200048f57600080fd5b820183602082011115620004a257600080fd5b80359060200191846001830284011164010000000083111715620004c557600080fd5b91908080601f016020809104026020016040519081016040528093929190818152602001838380828437600081840152601f19601f8201169050808301925050505050505091929192905050506200107c565b005b3480156200052757600080fd5b5062000557600480360360208110156200054057600080fd5b8101908080359060200190929190505050620014c6565b604051808681526020018573ffffffffffffffffffffffffffffffffffffffff1673ffffffffffffffffffffffffffffffffffffffff168152602001806020018060200180602001848103845287818151815260200191508051906020019080838360005b83811015620005d9578082015181840152602081019050620005bc565b50505050905090810190601f168015620006075780820380516001836020036101000a031916815260200191505b50848103835286818151815260200191508051906020019080838360005b838110156200064257808201518184015260208101905062000625565b50505050905090810190601f168015620006705780820380516001836020036101000a031916815260200191505b50848103825285818151815260200191508051906020019080838360005b83811015620006ab5780820151818401526020810190506200068e565b50505050905090810190601f168015620006d95780820380516001836020036101000a031916815260200191505b509850505050505050505060405180910390f35b348015620006fa57600080fd5b5062000740600480360360208110156200071357600080fd5b81019080803573ffffffffffffffffffffffffffffffffffffffff169060200190929190505050620016f0565b005b3480156200074f57600080fd5b506200077f600480360360208110156200076857600080fd5b810190808035906020019092919050505062001851565b604051808273ffffffffffffffffffffffffffffffffffffffff1673ffffffffffffffffffffffffffffffffffffffff16815260200191505060405180910390f35b348015620007ce57600080fd5b50620007fe60048036036020811015620007e757600080fd5b810190808035906020019092919050505062001890565b6040518088815260200180602001806020018060200180602001806020018715151515815260200186810386528c818151815260200191508051906020019080838360005b838110156200086057808201518184015260208101905062000843565b50505050905090810190601f1680156200088e5780820380516001836020036101000a031916815260200191505b5086810385528b818151815260200191508051906020019080838360005b83811015620008c9578082015181840152602081019050620008ac565b50505050905090810190601f168015620008f75780820380516001836020036101000a031916815260200191505b5086810384528a818151815260200191508051906020019080838360005b838110156200093257808201518184015260208101905062000915565b50505050905090810190601f168015620009605780820380516001836020036101000a031916815260200191505b50868103835289818151815260200191508051906020019080838360005b838110156200099b5780820151818401526020810190506200097e565b50505050905090810190601f168015620009c95780820380516001836020036101000a031916815260200191505b50868103825288818151815260200191508051906020019080838360005b8381101562000a04578082015181840152602081019050620009e7565b50505050905090810190601f16801562000a325780820380516001836020036101000a031916815260200191505b509c5050505050505050505050505060405180910390f35b34801562000a5757600080fd5b5062000a6262001beb565b6040518082815260200191505060405180910390f35b34801562000a8557600080fd5b5062000bf36004803603608081101562000a9e57600080fd5b8101908080359060200190929190803590602001909291908035906020019064010000000081111562000ad057600080fd5b82018360208201111562000ae357600080fd5b8035906020019184600183028401116401000000008311171562000b0657600080fd5b91908080601f016020809104026020016040519081016040528093929190818152602001838380828437600081840152601f19601f8201169050808301925050505050505091929192908035906020019064010000000081111562000b6a57600080fd5b82018360208201111562000b7d57600080fd5b8035906020019184600183028401116401000000008311171562000ba057600080fd5b91908080601f016020809104026020016040519081016040528093929190818152602001838380828437600081840152601f19601f82011690508083019250505050505050919291929050505062001bf1565b604051808215151515815260200191505060405180910390f35b62000c233360016200217190919063ffffffff16565b151562000cbe576040517f08c379a000000000000000000000000000000000000000000000000000000000815260040180806020018281038252602b8152602001807f4f6e6c79207468652073746f7265206f776e65722063616e2063616c6c20746881526020017f69732066756e6374696f6e00000000000000000000000000000000000000000081525060400191505060405180910390fd5b60a06040519081016040528060035481526020013373ffffffffffffffffffffffffffffffffffffffff168152602001848152602001838152602001828152506007600060035481526020019081526020016000206000820151816000015560208201518160010160006101000a81548173ffffffffffffffffffffffffffffffffffffffff021916908373ffffffffffffffffffffffffffffffffffffffff160217905550604082015181600201908051906020019062000d8292919062002375565b50606082015181600301908051906020019062000da192919062002375565b50608082015181600401908051906020019062000dc092919062002375565b509050506001600354016003819055507f846f140bb6ce8522d3684a2d7a3aad94bb9b8c4e41207390b9a6667ca3fee90260035433858585604051808681526020018573ffffffffffffffffffffffffffffffffffffffff1673ffffffffffffffffffffffffffffffffffffffff168152602001806020018060200180602001848103845287818151815260200191508051906020019080838360005b8381101562000e7a57808201518184015260208101905062000e5d565b50505050905090810190601f16801562000ea85780820380516001836020036101000a031916815260200191505b50848103835286818151815260200191508051906020019080838360005b8381101562000ee357808201518184015260208101905062000ec6565b50505050905090810190601f16801562000f115780820380516001836020036101000a031916815260200191505b50848103825285818151815260200191508051906020019080838360005b8381101562000f4c57808201518184015260208101905062000f2f565b50505050905090810190601f16801562000f7a5780820380516001836020036101000a031916815260200191505b509850505050505050505060405180910390a1505050565b60035481565b600062000fb03360006200217190919063ffffffff16565b15156200104b576040517f08c379a00000000000000000000000000000000000000000000000000000000081526004018080602001828103825260258152602001807f4f6e6c79207468652061646d696e2063616e2063616c6c20746869732066756e81526020017f6374696f6e00000000000000000000000000000000000000000000000000000081525060400191505060405180910390fd5b600560009054906101000a900460ff1615600560006101000a81548160ff0219169083151502179055506001905090565b620010923360006200217190919063ffffffff16565b15156200112d576040517f08c379a00000000000000000000000000000000000000000000000000000000081526004018080602001828103825260258152602001807f4f6e6c79207468652061646d696e2063616e2063616c6c20746869732066756e81526020017f6374696f6e00000000000000000000000000000000000000000000000000000081525060400191505060405180910390fd5b60e06040519081016040528060025481526020018481526020018381526020016040805190810160405280600a81526020017f64656661756c743132330000000000000000000000000000000000000000000081525081526020018281526020016040805190810160405280600b81526020017f73746f72655f6f776e65720000000000000000000000000000000000000000008152508152602001600115158152506006600060025481526020019081526020016000206000820151816000015560208201518160010190805190602001906200120d92919062002375565b5060408201518160020190805190602001906200122c92919062002375565b5060608201518160030190805190602001906200124b92919062002375565b5060808201518160040190805190602001906200126a92919062002375565b5060a08201518160050190805190602001906200128992919062002375565b5060c08201518160060160006101000a81548160ff0219169083151502179055509050506001600254016002819055507fbffe56ea2d628d83e81f9ea646bd624e8d4dd1c2f9a69f1d11cb11a7ebb0e36260025484848460016040518086815260200180602001806020018060200180602001806020018715151515815260200186810386528a818151815260200191508051906020019080838360005b838110156200134457808201518184015260208101905062001327565b50505050905090810190601f168015620013725780820380516001836020036101000a031916815260200191505b50868103855289818151815260200191508051906020019080838360005b83811015620013ad57808201518184015260208101905062001390565b50505050905090810190601f168015620013db5780820380516001836020036101000a031916815260200191505b508681038452600a8152602001807f64656661756c7431323300000000000000000000000000000000000000000000815250602001868103835288818151815260200191508051906020019080838360005b838110156200144a5780820151818401526020810190506200142d565b50505050905090810190601f168015620014785780820380516001836020036101000a031916815260200191505b508681038252600b8152602001807f73746f72655f6f776e65720000000000000000000000000000000000000000008152506020019a505050505050505050505060405180910390a1505050565b60076020528060005260406000206000915090508060000154908060010160009054906101000a900473ffffffffffffffffffffffffffffffffffffffff1690806002018054600181600116156101000203166002900480601f016020809104026020016040519081016040528092919081815260200182805460018160011615610100020316600290048015620015a25780601f106200157657610100808354040283529160200191620015a2565b820191906000526020600020905b8154815290600101906020018083116200158457829003601f168201915b505050505090806003018054600181600116156101000203166002900480601f016020809104026020016040519081016040528092919081815260200182805460018160011615610100020316600290048015620016445780601f10620016185761010080835404028352916020019162001644565b820191906000526020600020905b8154815290600101906020018083116200162657829003601f168201915b505050505090806004018054600181600116156101000203166002900480601f016020809104026020016040519081016040528092919081815260200182805460018160011615610100020316600290048015620016e65780601f10620016ba57610100808354040283529160200191620016e6565b820191906000526020600020905b815481529060010190602001808311620016c857829003601f168201915b5050505050905085565b620017063360006200217190919063ffffffff16565b1515620017a1576040517f08c379a00000000000000000000000000000000000000000000000000000000081526004018080602001828103825260258152602001807f4f6e6c79207468652061646d696e2063616e2063616c6c20746869732066756e81526020017f6374696f6e00000000000000000000000000000000000000000000000000000081525060400191505060405180910390fd5b620017b78160006200229590919063ffffffff16565b7fc91daac650a2962f6712b7ea2b91b57d03046d0f5e6f74225c6d99b435db311c8133604051808373ffffffffffffffffffffffffffffffffffffffff1673ffffffffffffffffffffffffffffffffffffffff1681526020018273ffffffffffffffffffffffffffffffffffffffff1673ffffffffffffffffffffffffffffffffffffffff1681526020019250505060405180910390a150565b6004818154811015156200186157fe5b906000526020600020016000915054906101000a900473ffffffffffffffffffffffffffffffffffffffff1681565b6006602052806000526040600020600091509050806000015490806001018054600181600116156101000203166002900480601f016020809104026020016040519081016040528092919081815260200182805460018160011615610100020316600290048015620019465780601f106200191a5761010080835404028352916020019162001946565b820191906000526020600020905b8154815290600101906020018083116200192857829003601f168201915b505050505090806002018054600181600116156101000203166002900480601f016020809104026020016040519081016040528092919081815260200182805460018160011615610100020316600290048015620019e85780601f10620019bc57610100808354040283529160200191620019e8565b820191906000526020600020905b815481529060010190602001808311620019ca57829003601f168201915b505050505090806003018054600181600116156101000203166002900480601f01602080910402602001604051908101604052809291908181526020018280546001816001161561010002031660029004801562001a8a5780601f1062001a5e5761010080835404028352916020019162001a8a565b820191906000526020600020905b81548152906001019060200180831162001a6c57829003601f168201915b505050505090806004018054600181600116156101000203166002900480601f01602080910402602001604051908101604052809291908181526020018280546001816001161561010002031660029004801562001b2c5780601f1062001b005761010080835404028352916020019162001b2c565b820191906000526020600020905b81548152906001019060200180831162001b0e57829003601f168201915b505050505090806005018054600181600116156101000203166002900480601f01602080910402602001604051908101604052809291908181526020018280546001816001161561010002031660029004801562001bce5780601f1062001ba25761010080835404028352916020019162001bce565b820191906000526020600020905b81548152906001019060200180831162001bb057829003601f168201915b5050505050908060060160009054906101000a900460ff16905087565b60025481565b6000600560009054906101000a900460ff1615151562001c9f576040517f08c379a000000000000000000000000000000000000000000000000000000000815260040180806020018281038252603e8152602001807f436f6e74726163742063757272656e746c7920696e20656d657267656e63792081526020017f6d6f64652c2046756e6374696f6e2063616e27742062652063616c6c6564000081525060400191505060405180910390fd5b60008411151562001d3e576040517f08c379a00000000000000000000000000000000000000000000000000000000081526004018080602001828103825260218152602001807f50726963652073686f756c642062652067726561746572207468616e207a657281526020017f6f0000000000000000000000000000000000000000000000000000000000000081525060400191505060405180910390fd5b6000835111151562001db8576040517f08c379a00000000000000000000000000000000000000000000000000000000081526004018080602001828103825260168152602001807f54686572652073686f756c642062652061206e616d650000000000000000000081525060200191505060405180910390fd5b6000825111151562001e58576040517f08c379a00000000000000000000000000000000000000000000000000000000081526004018080602001828103825260238152602001807f54686572652073686f756c6420626520612073686f727420646573637269707481526020017f696f6e000000000000000000000000000000000000000000000000000000000081525060400191505060405180910390fd5b6000338686868662001e69620023fc565b808673ffffffffffffffffffffffffffffffffffffffff1673ffffffffffffffffffffffffffffffffffffffff1681526020018581526020018481526020018060200180602001838103835285818151815260200191508051906020019080838360005b8381101562001eea57808201518184015260208101905062001ecd565b50505050905090810190601f16801562001f185780820380516001836020036101000a031916815260200191505b50838103825284818151815260200191508051906020019080838360005b8381101562001f5357808201518184015260208101905062001f36565b50505050905090810190601f16801562001f815780820380516001836020036101000a031916815260200191505b50975050505050505050604051809103906000f08015801562001fa8573d6000803e3d6000fd5b50905060048190806001815401808255809150509060018203906000526020600020016000909192909190916101000a81548173ffffffffffffffffffffffffffffffffffffffff021916908373ffffffffffffffffffffffffffffffffffffffff160217905550507fce7bbb0b63185f3f0cf844c930f49979aa2f727cdf4f7f676016c40eacc8ac258187878787604051808673ffffffffffffffffffffffffffffffffffffffff1673ffffffffffffffffffffffffffffffffffffffff1681526020018581526020018481526020018060200180602001838103835285818151815260200191508051906020019080838360005b83811015620020bb5780820151818401526020810190506200209e565b50505050905090810190601f168015620020e95780820380516001836020036101000a031916815260200191505b50838103825284818151815260200191508051906020019080838360005b838110156200212457808201518184015260208101905062002107565b50505050905090810190601f168015620021525780820380516001836020036101000a031916815260200191505b5097505050505050505060405180910390a16001915050949350505050565b60008073ffffffffffffffffffffffffffffffffffffffff168273ffffffffffffffffffffffffffffffffffffffff16141515156200223e576040517f08c379a00000000000000000000000000000000000000000000000000000000081526004018080602001828103825260228152602001807f526f6c65733a206163636f756e7420697320746865207a65726f20616464726581526020017f737300000000000000000000000000000000000000000000000000000000000081525060400191505060405180910390fd5b8260000160008373ffffffffffffffffffffffffffffffffffffffff1673ffffffffffffffffffffffffffffffffffffffff16815260200190815260200160002060009054906101000a900460ff16905092915050565b620022a1828262002171565b15151562002317576040517f08c379a000000000000000000000000000000000000000000000000000000000815260040180806020018281038252601f8152602001807f526f6c65733a206163636f756e7420616c72656164792068617320726f6c650081525060200191505060405180910390fd5b60018260000160008373ffffffffffffffffffffffffffffffffffffffff1673ffffffffffffffffffffffffffffffffffffffff16815260200190815260200160002060006101000a81548160ff0219169083151502179055505050565b828054600181600116156101000203166002900490600052602060002090601f016020900481019282601f10620023b857805160ff1916838001178555620023e9565b82800160010185558215620023e9579182015b82811115620023e8578251825591602001919060010190620023cb565b5b509050620023f891906200240d565b5090565b6040516126cd806200243683390190565b6200243291905b808211156200242e57600081600090555060010162002414565b5090565b9056fe60806040523480156200001157600080fd5b50604051620026cd380380620026cd833981018060405260a08110156200003757600080fd5b8101908080519060200190929190805190602001909291908051906020019092919080516401000000008111156200006e57600080fd5b828101905060208101848111156200008557600080fd5b8151856001820283011164010000000082111715620000a357600080fd5b50509291906020018051640100000000811115620000c057600080fd5b82810190506020810184811115620000d757600080fd5b8151856001820283011164010000000082111715620000f557600080fd5b505092919050505033600460006101000a81548173ffffffffffffffffffffffffffffffffffffffff021916908373ffffffffffffffffffffffffffffffffffffffff16021790555084600360006101000a81548173ffffffffffffffffffffffffffffffffffffffff021916908373ffffffffffffffffffffffffffffffffffffffff160217905550600060078190555082600681905550836002819055508160089080519060200190620001ad92919062000300565b508060099080519060200190620001c692919062000300565b50600254600080600360009054906101000a900473ffffffffffffffffffffffffffffffffffffffff1673ffffffffffffffffffffffffffffffffffffffff1673ffffffffffffffffffffffffffffffffffffffff1681526020019081526020016000208190555060025460016000600360009054906101000a900473ffffffffffffffffffffffffffffffffffffffff1673ffffffffffffffffffffffffffffffffffffffff1673ffffffffffffffffffffffffffffffffffffffff1681526020019081526020016000206000600460009054906101000a900473ffffffffffffffffffffffffffffffffffffffff1673ffffffffffffffffffffffffffffffffffffffff1673ffffffffffffffffffffffffffffffffffffffff168152602001908152602001600020819055505050505050620003af565b828054600181600116156101000203166002900490600052602060002090601f016020900481019282601f106200034357805160ff191683800117855562000374565b8280016001018555821562000374579182015b828111156200037357825182559160200191906001019062000356565b5b50905062000383919062000387565b5090565b620003ac91905b80821115620003a85760008160009055506001016200038e565b5090565b90565b61230e80620003bf6000396000f3fe608060405260043610610107576000357c0100000000000000000000000000000000000000000000000000000000900463ffffffff168063095ea7b31461010c5780631718b22e1461017f57806318160ddd146101f25780631da989601461021d5780632384b94f146102ad57806323b872dd146102ed578063587380f514610380578063661884631461050b57806370a082311461057e57806371299e36146105e35780637f7650eb1461063a5780638d921130146106ca5780639fbe993214610721578063a035b1fe1461085e578063a9059cbb14610889578063aace52fe146108fc578063d6c14bbc14610927578063d73dd62314610952578063dd62ed3e146109c5575b600080fd5b34801561011857600080fd5b506101656004803603604081101561012f57600080fd5b81019080803573ffffffffffffffffffffffffffffffffffffffff16906020019092919080359060200190929190505050610a4a565b604051808215151515815260200191505060405180910390f35b34801561018b57600080fd5b506101d8600480360360408110156101a257600080fd5b81019080803573ffffffffffffffffffffffffffffffffffffffff16906020019092919080359060200190929190505050610b3c565b604051808215151515815260200191505060405180910390f35b3480156101fe57600080fd5b50610207610edd565b6040518082815260200191505060405180910390f35b34801561022957600080fd5b50610232610ee7565b6040518080602001828103825283818151815260200191508051906020019080838360005b83811015610272578082015181840152602081019050610257565b50505050905090810190601f16801561029f5780820380516001836020036101000a031916815260200191505b509250505060405180910390f35b3480156102b957600080fd5b506102c2610f85565b6040518085815260200184815260200183815260200182815260200194505050505060405180910390f35b3480156102f957600080fd5b506103666004803603606081101561031057600080fd5b81019080803573ffffffffffffffffffffffffffffffffffffffff169060200190929190803573ffffffffffffffffffffffffffffffffffffffff16906020019092919080359060200190929190505050610ff5565b604051808215151515815260200191505060405180910390f35b34801561038c57600080fd5b506104f1600480360360808110156103a357600080fd5b810190808035906020019092919080359060200190929190803590602001906401000000008111156103d457600080fd5b8201836020820111156103e657600080fd5b8035906020019184600183028401116401000000008311171561040857600080fd5b91908080601f016020809104026020016040519081016040528093929190818152602001838380828437600081840152601f19601f8201169050808301925050505050505091929192908035906020019064010000000081111561046b57600080fd5b82018360208201111561047d57600080fd5b8035906020019184600183028401116401000000008311171561049f57600080fd5b91908080601f016020809104026020016040519081016040528093929190818152602001838380828437600081840152601f19601f8201169050808301925050505050505091929192905050506113b0565b604051808215151515815260200191505060405180910390f35b34801561051757600080fd5b506105646004803603604081101561052e57600080fd5b81019080803573ffffffffffffffffffffffffffffffffffffffff1690602001909291908035906020019092919050505061166a565b604051808215151515815260200191505060405180910390f35b34801561058a57600080fd5b506105cd600480360360208110156105a157600080fd5b81019080803573ffffffffffffffffffffffffffffffffffffffff1690602001909291905050506118fc565b6040518082815260200191505060405180910390f35b3480156105ef57600080fd5b506105f8611944565b604051808273ffffffffffffffffffffffffffffffffffffffff1673ffffffffffffffffffffffffffffffffffffffff16815260200191505060405180910390f35b34801561064657600080fd5b5061064f61196a565b6040518080602001828103825283818151815260200191508051906020019080838360005b8381101561068f578082015181840152602081019050610674565b50505050905090810190601f1680156106bc5780820380516001836020036101000a031916815260200191505b509250505060405180910390f35b3480156106d657600080fd5b506106df611a08565b604051808273ffffffffffffffffffffffffffffffffffffffff1673ffffffffffffffffffffffffffffffffffffffff16815260200191505060405180910390f35b34801561072d57600080fd5b50610736611a2e565b604051808673ffffffffffffffffffffffffffffffffffffffff1673ffffffffffffffffffffffffffffffffffffffff1681526020018581526020018481526020018060200180602001838103835285818151815260200191508051906020019080838360005b838110156107b857808201518184015260208101905061079d565b50505050905090810190601f1680156107e55780820380516001836020036101000a031916815260200191505b50838103825284818151815260200191508051906020019080838360005b8381101561081e578082015181840152602081019050610803565b50505050905090810190601f16801561084b5780820380516001836020036101000a031916815260200191505b5097505050505050505060405180910390f35b34801561086a57600080fd5b50610873611ba6565b6040518082815260200191505060405180910390f35b34801561089557600080fd5b506108e2600480360360408110156108ac57600080fd5b81019080803573ffffffffffffffffffffffffffffffffffffffff16906020019092919080359060200190929190505050611bac565b604051808215151515815260200191505060405180910390f35b34801561090857600080fd5b50610911611dcc565b6040518082815260200191505060405180910390f35b34801561093357600080fd5b5061093c611dd2565b6040518082815260200191505060405180910390f35b34801561095e57600080fd5b506109ab6004803603604081101561097557600080fd5b81019080803573ffffffffffffffffffffffffffffffffffffffff16906020019092919080359060200190929190505050611dd8565b604051808215151515815260200191505060405180910390f35b3480156109d157600080fd5b50610a34600480360360408110156109e857600080fd5b81019080803573ffffffffffffffffffffffffffffffffffffffff169060200190929190803573ffffffffffffffffffffffffffffffffffffffff169060200190929190505050611fd4565b6040518082815260200191505060405180910390f35b600081600160003373ffffffffffffffffffffffffffffffffffffffff1673ffffffffffffffffffffffffffffffffffffffff16815260200190815260200160002060008573ffffffffffffffffffffffffffffffffffffffff1673ffffffffffffffffffffffffffffffffffffffff168152602001908152602001600020819055508273ffffffffffffffffffffffffffffffffffffffff163373ffffffffffffffffffffffffffffffffffffffff167f8c5be1e5ebec7d5bd14f71427d1e84f3dd0314c0f7b2291e5b200ac8c7c3b925846040518082815260200191505060405180910390a36001905092915050565b6000600460009054906101000a900473ffffffffffffffffffffffffffffffffffffffff1673ffffffffffffffffffffffffffffffffffffffff163373ffffffffffffffffffffffffffffffffffffffff16141515610c29576040517f08c379a00000000000000000000000000000000000000000000000000000000081526004018080602001828103825260258152602001807f4f6e6c792073746f72652066726f6e742063616e2063616c6c2074686973206d81526020017f6574686f6400000000000000000000000000000000000000000000000000000081525060400191505060405180910390fd5b81600080600360009054906101000a900473ffffffffffffffffffffffffffffffffffffffff1673ffffffffffffffffffffffffffffffffffffffff1673ffffffffffffffffffffffffffffffffffffffff1681526020019081526020016000205410151515610c9857600080fd5b610d0b82600080600360009054906101000a900473ffffffffffffffffffffffffffffffffffffffff1673ffffffffffffffffffffffffffffffffffffffff1673ffffffffffffffffffffffffffffffffffffffff1681526020019081526020016000205461205b90919063ffffffff16565b600080600360009054906101000a900473ffffffffffffffffffffffffffffffffffffffff1673ffffffffffffffffffffffffffffffffffffffff1673ffffffffffffffffffffffffffffffffffffffff16815260200190815260200160002081905550610dc0826000808673ffffffffffffffffffffffffffffffffffffffff1673ffffffffffffffffffffffffffffffffffffffff168152602001908152602001600020546120e690919063ffffffff16565b6000808573ffffffffffffffffffffffffffffffffffffffff1673ffffffffffffffffffffffffffffffffffffffff16815260200190815260200160002081905550610e178260055461205b90919063ffffffff16565b600581905550610e46610e356006548461217090919063ffffffff16565b6007546120e690919063ffffffff16565b6007819055508273ffffffffffffffffffffffffffffffffffffffff16600360009054906101000a900473ffffffffffffffffffffffffffffffffffffffff1673ffffffffffffffffffffffffffffffffffffffff167fddf252ad1be2c89b69c2b068fc378daa952ba7f163c4a11628f55a4df523b3ef846040518082815260200191505060405180910390a36001905092915050565b6000600254905090565b60098054600181600116156101000203166002900480601f016020809104026020016040519081016040528092919081815260200182805460018160011615610100020316600290048015610f7d5780601f10610f5257610100808354040283529160200191610f7d565b820191906000526020600020905b815481529060010190602001808311610f6057829003601f168201915b505050505081565b600080600080600754610fb9600460009054906101000a900473ffffffffffffffffffffffffffffffffffffffff166118fc565b610fe4600360009054906101000a900473ffffffffffffffffffffffffffffffffffffffff166118fc565b600254935093509350935090919293565b60008060008573ffffffffffffffffffffffffffffffffffffffff1673ffffffffffffffffffffffffffffffffffffffff16815260200190815260200160002054821115151561104457600080fd5b600160008573ffffffffffffffffffffffffffffffffffffffff1673ffffffffffffffffffffffffffffffffffffffff16815260200190815260200160002060003373ffffffffffffffffffffffffffffffffffffffff1673ffffffffffffffffffffffffffffffffffffffff1681526020019081526020016000205482111515156110cf57600080fd5b600073ffffffffffffffffffffffffffffffffffffffff168373ffffffffffffffffffffffffffffffffffffffff161415151561110b57600080fd5b61115c826000808773ffffffffffffffffffffffffffffffffffffffff1673ffffffffffffffffffffffffffffffffffffffff1681526020019081526020016000205461205b90919063ffffffff16565b6000808673ffffffffffffffffffffffffffffffffffffffff1673ffffffffffffffffffffffffffffffffffffffff168152602001908152602001600020819055506111ef826000808673ffffffffffffffffffffffffffffffffffffffff1673ffffffffffffffffffffffffffffffffffffffff168152602001908152602001600020546120e690919063ffffffff16565b6000808573ffffffffffffffffffffffffffffffffffffffff1673ffffffffffffffffffffffffffffffffffffffff168152602001908152602001600020819055506112c082600160008773ffffffffffffffffffffffffffffffffffffffff1673ffffffffffffffffffffffffffffffffffffffff16815260200190815260200160002060003373ffffffffffffffffffffffffffffffffffffffff1673ffffffffffffffffffffffffffffffffffffffff1681526020019081526020016000205461205b90919063ffffffff16565b600160008673ffffffffffffffffffffffffffffffffffffffff1673ffffffffffffffffffffffffffffffffffffffff16815260200190815260200160002060003373ffffffffffffffffffffffffffffffffffffffff1673ffffffffffffffffffffffffffffffffffffffff168152602001908152602001600020819055508273ffffffffffffffffffffffffffffffffffffffff168473ffffffffffffffffffffffffffffffffffffffff167fddf252ad1be2c89b69c2b068fc378daa952ba7f163c4a11628f55a4df523b3ef846040518082815260200191505060405180910390a3600190509392505050565b6000600360009054906101000a900473ffffffffffffffffffffffffffffffffffffffff1673ffffffffffffffffffffffffffffffffffffffff163373ffffffffffffffffffffffffffffffffffffffff1614151561149d576040517f08c379a00000000000000000000000000000000000000000000000000000000081526004018080602001828103825260258152602001807f4f6e6c792073746f7265206f776e65722063616e2063616c6c2074686973206d81526020017f6574686f6400000000000000000000000000000000000000000000000000000081525060400191505060405180910390fd5b600254851115156114b057846005819055505b60008411156114c157836006819055505b6000835111156114e35782600890805190602001906114e192919061223d565b505b60008251111561150557816009908051906020019061150392919061223d565b505b7fd50ee4ceeaa6387d71b557329cd0912888db516f987f923133c6836793ab56a7600554600654600860096040518085815260200184815260200180602001806020018381038352858181546001816001161561010002031660029004815260200191508054600181600116156101000203166002900480156115c95780601f1061159e576101008083540402835291602001916115c9565b820191906000526020600020905b8154815290600101906020018083116115ac57829003601f168201915b505083810382528481815460018160011615610100020316600290048152602001915080546001816001161561010002031660029004801561164c5780601f106116215761010080835404028352916020019161164c565b820191906000526020600020905b81548152906001019060200180831161162f57829003601f168201915b5050965050505050505060405180910390a160019050949350505050565b600080600160003373ffffffffffffffffffffffffffffffffffffffff1673ffffffffffffffffffffffffffffffffffffffff16815260200190815260200160002060008573ffffffffffffffffffffffffffffffffffffffff1673ffffffffffffffffffffffffffffffffffffffff168152602001908152602001600020549050808310151561177c576000600160003373ffffffffffffffffffffffffffffffffffffffff1673ffffffffffffffffffffffffffffffffffffffff16815260200190815260200160002060008673ffffffffffffffffffffffffffffffffffffffff1673ffffffffffffffffffffffffffffffffffffffff16815260200190815260200160002081905550611810565b61178f838261205b90919063ffffffff16565b600160003373ffffffffffffffffffffffffffffffffffffffff1673ffffffffffffffffffffffffffffffffffffffff16815260200190815260200160002060008673ffffffffffffffffffffffffffffffffffffffff1673ffffffffffffffffffffffffffffffffffffffff168152602001908152602001600020819055505b8373ffffffffffffffffffffffffffffffffffffffff163373ffffffffffffffffffffffffffffffffffffffff167f8c5be1e5ebec7d5bd14f71427d1e84f3dd0314c0f7b2291e5b200ac8c7c3b925600160003373ffffffffffffffffffffffffffffffffffffffff1673ffffffffffffffffffffffffffffffffffffffff16815260200190815260200160002060008873ffffffffffffffffffffffffffffffffffffffff1673ffffffffffffffffffffffffffffffffffffffff168152602001908152602001600020546040518082815260200191505060405180910390a3600191505092915050565b60008060008373ffffffffffffffffffffffffffffffffffffffff1673ffffffffffffffffffffffffffffffffffffffff168152602001908152602001600020549050919050565b600360009054906101000a900473ffffffffffffffffffffffffffffffffffffffff1681565b60088054600181600116156101000203166002900480601f016020809104026020016040519081016040528092919081815260200182805460018160011615610100020316600290048015611a005780601f106119d557610100808354040283529160200191611a00565b820191906000526020600020905b8154815290600101906020018083116119e357829003601f168201915b505050505081565b600460009054906101000a900473ffffffffffffffffffffffffffffffffffffffff1681565b6000806000606080600360009054906101000a900473ffffffffffffffffffffffffffffffffffffffff1694506005549350600654925060088054600181600116156101000203166002900480601f016020809104026020016040519081016040528092919081815260200182805460018160011615610100020316600290048015611afb5780601f10611ad057610100808354040283529160200191611afb565b820191906000526020600020905b815481529060010190602001808311611ade57829003601f168201915b5050505050915060098054600181600116156101000203166002900480601f016020809104026020016040519081016040528092919081815260200182805460018160011615610100020316600290048015611b985780601f10611b6d57610100808354040283529160200191611b98565b820191906000526020600020905b815481529060010190602001808311611b7b57829003601f168201915b505050505090509091929394565b60065481565b60008060003373ffffffffffffffffffffffffffffffffffffffff1673ffffffffffffffffffffffffffffffffffffffff168152602001908152602001600020548211151515611bfb57600080fd5b600073ffffffffffffffffffffffffffffffffffffffff168373ffffffffffffffffffffffffffffffffffffffff1614151515611c3757600080fd5b611c88826000803373ffffffffffffffffffffffffffffffffffffffff1673ffffffffffffffffffffffffffffffffffffffff1681526020019081526020016000205461205b90919063ffffffff16565b6000803373ffffffffffffffffffffffffffffffffffffffff1673ffffffffffffffffffffffffffffffffffffffff16815260200190815260200160002081905550611d1b826000808673ffffffffffffffffffffffffffffffffffffffff1673ffffffffffffffffffffffffffffffffffffffff168152602001908152602001600020546120e690919063ffffffff16565b6000808573ffffffffffffffffffffffffffffffffffffffff1673ffffffffffffffffffffffffffffffffffffffff168152602001908152602001600020819055508273ffffffffffffffffffffffffffffffffffffffff163373ffffffffffffffffffffffffffffffffffffffff167fddf252ad1be2c89b69c2b068fc378daa952ba7f163c4a11628f55a4df523b3ef846040518082815260200191505060405180910390a36001905092915050565b60075481565b60055481565b6000611e6982600160003373ffffffffffffffffffffffffffffffffffffffff1673ffffffffffffffffffffffffffffffffffffffff16815260200190815260200160002060008673ffffffffffffffffffffffffffffffffffffffff1673ffffffffffffffffffffffffffffffffffffffff168152602001908152602001600020546120e690919063ffffffff16565b600160003373ffffffffffffffffffffffffffffffffffffffff1673ffffffffffffffffffffffffffffffffffffffff16815260200190815260200160002060008573ffffffffffffffffffffffffffffffffffffffff1673ffffffffffffffffffffffffffffffffffffffff168152602001908152602001600020819055508273ffffffffffffffffffffffffffffffffffffffff163373ffffffffffffffffffffffffffffffffffffffff167f8c5be1e5ebec7d5bd14f71427d1e84f3dd0314c0f7b2291e5b200ac8c7c3b925600160003373ffffffffffffffffffffffffffffffffffffffff1673ffffffffffffffffffffffffffffffffffffffff16815260200190815260200160002060008773ffffffffffffffffffffffffffffffffffffffff1673ffffffffffffffffffffffffffffffffffffffff168152602001908152602001600020546040518082815260200191505060405180910390a36001905092915050565b6000600160008473ffffffffffffffffffffffffffffffffffffffff1673ffffffffffffffffffffffffffffffffffffffff16815260200190815260200160002060008373ffffffffffffffffffffffffffffffffffffffff1673ffffffffffffffffffffffffffffffffffffffff16815260200190815260200160002054905092915050565b60008282111515156120d5576040517f08c379a000000000000000000000000000000000000000000000000000000000815260040180806020018281038252601e8152602001807f536166654d6174683a207375627472616374696f6e206f766572666c6f77000081525060200191505060405180910390fd5b600082840390508091505092915050565b6000808284019050838110151515612166576040517f08c379a000000000000000000000000000000000000000000000000000000000815260040180806020018281038252601b8152602001807f536166654d6174683a206164646974696f6e206f766572666c6f77000000000081525060200191505060405180910390fd5b8091505092915050565b6000808314156121835760009050612237565b6000828402905082848281151561219657fe5b04141515612232576040517f08c379a00000000000000000000000000000000000000000000000000000000081526004018080602001828103825260218152602001807f536166654d6174683a206d756c7469706c69636174696f6e206f766572666c6f81526020017f770000000000000000000000000000000000000000000000000000000000000081525060400191505060405180910390fd5b809150505b92915050565b828054600181600116156101000203166002900490600052602060002090601f016020900481019282601f1061227e57805160ff19168380011785556122ac565b828001600101855582156122ac579182015b828111156122ab578251825591602001919060010190612290565b5b5090506122b991906122bd565b5090565b6122df91905b808211156122db5760008160009055506001016122c3565b5090565b9056fea165627a7a723058209dbc745795e600dfdf6b809b64211fe3471c736fc6bc092fc79102e0162dd5160029a165627a7a72305820d9a3647fc9dcaf5f142862707dbf9251c7de989bfea3aa475c946dcba333c5290029",
  "source": "pragma solidity >=0.4.21 <0.6.0;\nimport \"./Roles.sol\";\nimport \"./SafeMath.sol\";\nimport {StoreProduct as Product} from \"./StoreProduct.sol\";\n\ncontract TumbulaStore{\n\n    /*\n    Contract for the Tumbula online store.\n\n    ------------------------------------\n    ROLES.\n    1. Admin.\n    2. Store Owner.\n    ------------------------------------\n     */\n    using Roles for Roles.Role;\n    using SafeMath for uint;\n    using SafeMath for uint8;\n\n    Roles.Role private admin;\n    Roles.Role private store_owner;\n    \n\n    uint public storeOwnerNumber = 0;\n    uint public storeFrontNumber = 0;\n\n    /*Products array*/\n    address[] public products;\n\n    /*Boolean value to track emergency mode for circuit breaker pattern */\n    bool private emergency;\n\n    struct StoreOwner{\n        uint    id;\n        string  firstname;\n        string  lastname;\n        string  password;\n        string  email;\n        string  role;\n        bool    active;\n    }\n\n    struct StoreFront{\n        uint    id;\n        address storeowner;\n        string  storename;\n        string  storelocation;\n        string  storemerchandise;\n    }\n\n    mapping(uint => StoreOwner) public storeowners;\n\n    mapping(uint => StoreFront) public storefronts;\n\n    event storeOwnerCreated(\n        uint id,\n        string firstname,\n        string lastname,\n        string password,\n        string email,\n        string role,\n        bool active\n    );\n\n    event roleAdded(\n        address role_address,\n        address added_by\n    );\n\n    event storeFrontCreated(\n        uint   id,\n        address storeowner,\n        string storename,\n        string storelocation,\n        string storemerchandise\n    );\n\n    event ProductCreated(\n        address product,\n        uint availableStock,\n        uint price,\n        string productName, \n        string shortDescription\n    );\n\n    event ProductsBought(\n        address product, \n        address buyer,\n        uint price,\n        uint quantity\n    );\n\n    /* Modifer that checks if the msg.sender has an admin role */\n    modifier onlyAdmin {\n        require(\n            admin.has(msg.sender),\n            \"Only the admin can call this function\"\n            );\n        _;\n    }\n\n    /* Modifer that checks if the msg.sender has a store owner role */\n    modifier onlyStoreOwner {\n        require(\n            store_owner.has(msg.sender),\n            \"Only the store owner can call this function\"\n            );\n        _;\n    }\n\n    /*Circuit breaker pattern modifiers */\n    modifier stopInEmergency { \n        require(!emergency, \"Contract currently in emergency mode, Function can't be called\"); \n        _; \n    }\n    \n    modifier onlyInEmergency { \n        require(emergency, \"Function callable only in emergency mode\"); \n        _;\n    }\n\n    constructor() public {\n        admin.add(msg.sender);\n        emergency = false;\n    }\n    \n    /*\n    --------------------------------------------------------\n    Admin Functions\n    --------------------------------------------------------\n    */\n    /** @dev Creates a new storeOwner \n     * @param _firstname Firstname of the store owner\n     * @param _lastname last name of the store owner\n     * @param _email Email address of the store owner \n     * @return Boolean for testing in solidity\n     */\n    function addStoreOwner(\n        string memory _firstname, \n        string memory _lastname, \n        string memory _email\n    ) \n            public \n            onlyAdmin\n    {\n        storeowners[storeOwnerNumber] = StoreOwner(storeOwnerNumber, _firstname, _lastname, \"default123\", _email, \"store_owner\", true);\n        storeOwnerNumber = storeOwnerNumber + 1;\n        emit storeOwnerCreated(\n            storeOwnerNumber, \n            _firstname, \n            _lastname, \n            \"default123\", \n            _email, \n            \"store_owner\", \n            true\n        );\n    }\n\n    /** @dev Lets admin add more admins \n     * @return Boolean for testing in solidity\n     */\n    function addAdmin(address _address) public onlyAdmin {\n        admin.add(_address);\n        emit roleAdded(\n            _address,\n            msg.sender\n        );\n    }\n\n    /** @dev Lets admin toggle the state of emergency \n     * @return Boolean for testing in solidity\n     */\n    function toggleEmergency() public onlyAdmin returns (bool) {\n        emergency = !emergency;\n        return true;\n    }\n\n    /*Store Owner Functions*/\n    /** @dev Adds a new store front \n     * @param _storename Name of the storefront\n     * @param _storelocation Location of the storefront\n     * @param _storemerchandise Type of merchandise dealt in by storefront\n     * @return Boolean for testing in solidity\n     */\n    function addStoreFront(\n        string memory _storename, \n        string memory _storelocation, \n        string memory _storemerchandise\n        ) \n            public \n            onlyStoreOwner\n        {\n        storefronts[storeFrontNumber] = StoreFront(storeFrontNumber, msg.sender, _storename, _storelocation, _storemerchandise);\n        storeFrontNumber = storeFrontNumber + 1;\n        emit storeFrontCreated(\n            storeFrontNumber, \n            msg.sender, \n            _storename, \n            _storelocation, \n            _storemerchandise\n        );\n    }\n\n    /** @dev Creates ERC20 token per product \n     * @param availableStock Quantity of products available for each individual product\n     * @param price Price of each product\n     * @param productName Name of the product \n     * @param shortDescription Short description of the product\n     * @return Boolean for testing in solidity\n     */\n    function createProduct(\n        uint availableStock,\n        uint price,\n        string memory productName,\n        string memory shortDescription\n    ) \n        public \n        stopInEmergency\n        returns (bool)\n    {\n        require(price > 0, \"Price should be greater than zero\");\n        require(bytes(productName).length > 0, \"There should be a name\");\n        require(bytes(shortDescription).length > 0, \"There should be a short description\");\n\n        Product product = new Product(msg.sender, availableStock, price, productName, shortDescription);\n        products.push(address(product));\n        \n        emit ProductCreated(\n            address(product),\n            availableStock,\n            price,\n            productName,\n            shortDescription   \n        );\n        return true;\n    }\n}",
  "sourcePath": "/Users/allan-only/projects/blockchain/final_project/mini-stack/mini-stack-react/contracts/TumbulaStore.sol",
  "compiler": {
    "name": "solc",
    "version": "0.5.0+commit.1d4f565a.Emscripten.clang"
  },
  "schemaVersion": "3.0.1",
  "updatedAt": "2019-06-20T15:17:54.565Z",
  "devdoc": {
    "methods": {
      "addAdmin(address)": {
        "details": "Lets admin add more admins ",
        "return": "Boolean for testing in solidity"
      },
      "addStoreFront(string,string,string)": {
        "details": "Adds a new store front ",
        "params": {
          "_storelocation": "Location of the storefront",
          "_storemerchandise": "Type of merchandise dealt in by storefront",
          "_storename": "Name of the storefront"
        },
        "return": "Boolean for testing in solidity"
      },
      "addStoreOwner(string,string,string)": {
        "details": "Creates a new storeOwner ",
        "params": {
          "_email": "Email address of the store owner ",
          "_firstname": "Firstname of the store owner",
          "_lastname": "last name of the store owner"
        },
        "return": "Boolean for testing in solidity"
      },
      "createProduct(uint256,uint256,string,string)": {
        "details": "Creates ERC20 token per product ",
        "params": {
          "availableStock": "Quantity of products available for each individual product",
          "price": "Price of each product",
          "productName": "Name of the product ",
          "shortDescription": "Short description of the product"
        },
        "return": "Boolean for testing in solidity"
      },
      "toggleEmergency()": {
        "details": "Lets admin toggle the state of emergency ",
        "return": "Boolean for testing in solidity"
      }
    }
  },
  "userdoc": {
    "methods": {}
  }
}