{
  "contractName": "TumbulaStore",
  "abi": [
    {
      "constant": true,
      "inputs": [],
      "name": "storeFrontNumber",
      "outputs": [
        {
          "name": "",
          "type": "uint256"
        }
      ],
      "payable": false,
      "stateMutability": "view",
      "type": "function",
      "signature": "0x1b689e8b"
    },
    {
      "constant": true,
      "inputs": [
        {
          "name": "",
          "type": "uint256"
        }
      ],
      "name": "storefronts",
      "outputs": [
        {
          "name": "id",
          "type": "uint256"
        },
        {
          "name": "store_owner",
          "type": "address"
        },
        {
          "name": "store_name",
          "type": "string"
        },
        {
          "name": "store_location",
          "type": "string"
        },
        {
          "name": "store_merchandise",
          "type": "string"
        }
      ],
      "payable": false,
      "stateMutability": "view",
      "type": "function",
      "signature": "0x6c3aedfb"
    },
    {
      "constant": true,
      "inputs": [
        {
          "name": "",
          "type": "uint256"
        }
      ],
      "name": "storeowners",
      "outputs": [
        {
          "name": "id",
          "type": "uint256"
        },
        {
          "name": "first_name",
          "type": "string"
        },
        {
          "name": "last_name",
          "type": "string"
        },
        {
          "name": "password",
          "type": "string"
        },
        {
          "name": "email",
          "type": "string"
        },
        {
          "name": "role",
          "type": "string"
        },
        {
          "name": "active",
          "type": "bool"
        }
      ],
      "payable": false,
      "stateMutability": "view",
      "type": "function",
      "signature": "0x8a610565"
    },
    {
      "constant": true,
      "inputs": [],
      "name": "storeOwnerNumber",
      "outputs": [
        {
          "name": "",
          "type": "uint256"
        }
      ],
      "payable": false,
      "stateMutability": "view",
      "type": "function",
      "signature": "0xa726f30a"
    },
    {
      "anonymous": false,
      "inputs": [
        {
          "indexed": false,
          "name": "id",
          "type": "uint256"
        },
        {
          "indexed": false,
          "name": "first_name",
          "type": "string"
        },
        {
          "indexed": false,
          "name": "last_name",
          "type": "string"
        },
        {
          "indexed": false,
          "name": "password",
          "type": "string"
        },
        {
          "indexed": false,
          "name": "email",
          "type": "string"
        },
        {
          "indexed": false,
          "name": "role",
          "type": "string"
        },
        {
          "indexed": false,
          "name": "active",
          "type": "bool"
        }
      ],
      "name": "storeOwnerCreated",
      "type": "event",
      "signature": "0xbffe56ea2d628d83e81f9ea646bd624e8d4dd1c2f9a69f1d11cb11a7ebb0e362"
    },
    {
      "anonymous": false,
      "inputs": [
        {
          "indexed": false,
          "name": "id",
          "type": "uint256"
        },
        {
          "indexed": false,
          "name": "store_owner",
          "type": "address"
        },
        {
          "indexed": false,
          "name": "store_name",
          "type": "string"
        },
        {
          "indexed": false,
          "name": "store_location",
          "type": "string"
        },
        {
          "indexed": false,
          "name": "store_merchandise",
          "type": "string"
        }
      ],
      "name": "storeFrontCreated",
      "type": "event",
      "signature": "0x846f140bb6ce8522d3684a2d7a3aad94bb9b8c4e41207390b9a6667ca3fee902"
    },
    {
      "constant": false,
      "inputs": [
        {
          "name": "_first_name",
          "type": "string"
        },
        {
          "name": "_last_name",
          "type": "string"
        },
        {
          "name": "_email",
          "type": "string"
        }
      ],
      "name": "addStoreOwner",
      "outputs": [],
      "payable": false,
      "stateMutability": "nonpayable",
      "type": "function",
      "signature": "0x49c7f893"
    },
    {
      "constant": false,
      "inputs": [],
      "name": "toggleEmergency",
      "outputs": [
        {
          "name": "",
          "type": "bool"
        }
      ],
      "payable": false,
      "stateMutability": "nonpayable",
      "type": "function",
      "signature": "0x2d1d2744"
    },
    {
      "constant": false,
      "inputs": [
        {
          "name": "_store_name",
          "type": "string"
        },
        {
          "name": "_store_location",
          "type": "string"
        },
        {
          "name": "_store_merchandise",
          "type": "string"
        }
      ],
      "name": "addStoreFront",
      "outputs": [],
      "payable": false,
      "stateMutability": "nonpayable",
      "type": "function",
      "signature": "0x0eb13ab7"
    }
  ],
  "bytecode": "0x60806040526000600355600060045534801561001a57600080fd5b506117c68061002a6000396000f3fe608060405260043610610083576000357c0100000000000000000000000000000000000000000000000000000000900463ffffffff1680630eb13ab7146100885780631b689e8b1461027e5780632d1d2744146102a957806349c7f893146102d85780636c3aedfb146104ce5780638a61056514610694578063a726f30a1461090a575b600080fd5b34801561009457600080fd5b5061027c600480360360608110156100ab57600080fd5b81019080803590602001906401000000008111156100c857600080fd5b8201836020820111156100da57600080fd5b803590602001918460018302840111640100000000831117156100fc57600080fd5b91908080601f016020809104026020016040519081016040528093929190818152602001838380828437600081840152601f19601f8201169050808301925050505050505091929192908035906020019064010000000081111561015f57600080fd5b82018360208201111561017157600080fd5b8035906020019184600183028401116401000000008311171561019357600080fd5b91908080601f016020809104026020016040519081016040528093929190818152602001838380828437600081840152601f19601f820116905080830192505050505050509192919290803590602001906401000000008111156101f657600080fd5b82018360208201111561020857600080fd5b8035906020019184600183028401116401000000008311171561022a57600080fd5b91908080601f016020809104026020016040519081016040528093929190818152602001838380828437600081840152601f19601f820116905080830192505050505050509192919290505050610935565b005b34801561028a57600080fd5b50610293610bfa565b6040518082815260200191505060405180910390f35b3480156102b557600080fd5b506102be610c00565b604051808215151515815260200191505060405180910390f35b3480156102e457600080fd5b506104cc600480360360608110156102fb57600080fd5b810190808035906020019064010000000081111561031857600080fd5b82018360208201111561032a57600080fd5b8035906020019184600183028401116401000000008311171561034c57600080fd5b91908080601f016020809104026020016040519081016040528093929190818152602001838380828437600081840152601f19601f820116905080830192505050505050509192919290803590602001906401000000008111156103af57600080fd5b8201836020820111156103c157600080fd5b803590602001918460018302840111640100000000831117156103e357600080fd5b91908080601f016020809104026020016040519081016040528093929190818152602001838380828437600081840152601f19601f8201169050808301925050505050505091929192908035906020019064010000000081111561044657600080fd5b82018360208201111561045857600080fd5b8035906020019184600183028401116401000000008311171561047a57600080fd5b91908080601f016020809104026020016040519081016040528093929190818152602001838380828437600081840152601f19601f820116905080830192505050505050509192919290505050610ce1565b005b3480156104da57600080fd5b50610507600480360360208110156104f157600080fd5b8101908080359060200190929190505050611067565b604051808681526020018573ffffffffffffffffffffffffffffffffffffffff1673ffffffffffffffffffffffffffffffffffffffff168152602001806020018060200180602001848103845287818151815260200191508051906020019080838360005b8381101561058757808201518184015260208101905061056c565b50505050905090810190601f1680156105b45780820380516001836020036101000a031916815260200191505b50848103835286818151815260200191508051906020019080838360005b838110156105ed5780820151818401526020810190506105d2565b50505050905090810190601f16801561061a5780820380516001836020036101000a031916815260200191505b50848103825285818151815260200191508051906020019080838360005b83811015610653578082015181840152602081019050610638565b50505050905090810190601f1680156106805780820380516001836020036101000a031916815260200191505b509850505050505050505060405180910390f35b3480156106a057600080fd5b506106cd600480360360208110156106b757600080fd5b8101908080359060200190929190505050611285565b6040518088815260200180602001806020018060200180602001806020018715151515815260200186810386528c818151815260200191508051906020019080838360005b8381101561072d578082015181840152602081019050610712565b50505050905090810190601f16801561075a5780820380516001836020036101000a031916815260200191505b5086810385528b818151815260200191508051906020019080838360005b83811015610793578082015181840152602081019050610778565b50505050905090810190601f1680156107c05780820380516001836020036101000a031916815260200191505b5086810384528a818151815260200191508051906020019080838360005b838110156107f95780820151818401526020810190506107de565b50505050905090810190601f1680156108265780820380516001836020036101000a031916815260200191505b50868103835289818151815260200191508051906020019080838360005b8381101561085f578082015181840152602081019050610844565b50505050905090810190601f16801561088c5780820380516001836020036101000a031916815260200191505b50868103825288818151815260200191508051906020019080838360005b838110156108c55780820151818401526020810190506108aa565b50505050905090810190601f1680156108f25780820380516001836020036101000a031916815260200191505b509c5050505050505050505050505060405180910390f35b34801561091657600080fd5b5061091f6115cc565b6040518082815260200191505060405180910390f35b60a06040519081016040528060045481526020013373ffffffffffffffffffffffffffffffffffffffff168152602001848152602001838152602001828152506007600060045481526020019081526020016000206000820151816000015560208201518160010160006101000a81548173ffffffffffffffffffffffffffffffffffffffff021916908373ffffffffffffffffffffffffffffffffffffffff16021790555060408201518160020190805190602001906109f79291906116f5565b506060820151816003019080519060200190610a149291906116f5565b506080820151816004019080519060200190610a319291906116f5565b509050506001600454016004819055507f846f140bb6ce8522d3684a2d7a3aad94bb9b8c4e41207390b9a6667ca3fee90260045433858585604051808681526020018573ffffffffffffffffffffffffffffffffffffffff1673ffffffffffffffffffffffffffffffffffffffff168152602001806020018060200180602001848103845287818151815260200191508051906020019080838360005b83811015610ae9578082015181840152602081019050610ace565b50505050905090810190601f168015610b165780820380516001836020036101000a031916815260200191505b50848103835286818151815260200191508051906020019080838360005b83811015610b4f578082015181840152602081019050610b34565b50505050905090810190601f168015610b7c5780820380516001836020036101000a031916815260200191505b50848103825285818151815260200191508051906020019080838360005b83811015610bb5578082015181840152602081019050610b9a565b50505050905090810190601f168015610be25780820380516001836020036101000a031916815260200191505b509850505050505050505060405180910390a1505050565b60045481565b6000610c163360006115d290919063ffffffff16565b1515610cb0576040517f08c379a00000000000000000000000000000000000000000000000000000000081526004018080602001828103825260258152602001807f4f6e6c79207468652061646d696e2063616e2063616c6c20746869732066756e81526020017f6374696f6e00000000000000000000000000000000000000000000000000000081525060400191505060405180910390fd5b600560009054906101000a900460ff1615600560006101000a81548160ff0219169083151502179055506001905090565b60e06040519081016040528060035481526020018481526020018381526020016040805190810160405280600a81526020017f64656661756c743132330000000000000000000000000000000000000000000081525081526020018281526020016040805190810160405280600b81526020017f73746f72655f6f776e6572000000000000000000000000000000000000000000815250815260200160011515815250600660006003548152602001908152602001600020600082015181600001556020820151816001019080519060200190610dbf9291906116f5565b506040820151816002019080519060200190610ddc9291906116f5565b506060820151816003019080519060200190610df99291906116f5565b506080820151816004019080519060200190610e169291906116f5565b5060a0820151816005019080519060200190610e339291906116f5565b5060c08201518160060160006101000a81548160ff0219169083151502179055509050506001600354016003819055507fbffe56ea2d628d83e81f9ea646bd624e8d4dd1c2f9a69f1d11cb11a7ebb0e36260035484848460016040518086815260200180602001806020018060200180602001806020018715151515815260200186810386528a818151815260200191508051906020019080838360005b83811015610eec578082015181840152602081019050610ed1565b50505050905090810190601f168015610f195780820380516001836020036101000a031916815260200191505b50868103855289818151815260200191508051906020019080838360005b83811015610f52578082015181840152602081019050610f37565b50505050905090810190601f168015610f7f5780820380516001836020036101000a031916815260200191505b508681038452600a8152602001807f64656661756c7431323300000000000000000000000000000000000000000000815250602001868103835288818151815260200191508051906020019080838360005b83811015610fec578082015181840152602081019050610fd1565b50505050905090810190601f1680156110195780820380516001836020036101000a031916815260200191505b508681038252600b8152602001807f73746f72655f6f776e65720000000000000000000000000000000000000000008152506020019a505050505050505050505060405180910390a1505050565b60076020528060005260406000206000915090508060000154908060010160009054906101000a900473ffffffffffffffffffffffffffffffffffffffff1690806002018054600181600116156101000203166002900480601f01602080910402602001604051908101604052809291908181526020018280546001816001161561010002031660029004801561113f5780601f106111145761010080835404028352916020019161113f565b820191906000526020600020905b81548152906001019060200180831161112257829003601f168201915b505050505090806003018054600181600116156101000203166002900480601f0160208091040260200160405190810160405280929190818152602001828054600181600116156101000203166002900480156111dd5780601f106111b2576101008083540402835291602001916111dd565b820191906000526020600020905b8154815290600101906020018083116111c057829003601f168201915b505050505090806004018054600181600116156101000203166002900480601f01602080910402602001604051908101604052809291908181526020018280546001816001161561010002031660029004801561127b5780601f106112505761010080835404028352916020019161127b565b820191906000526020600020905b81548152906001019060200180831161125e57829003601f168201915b5050505050905085565b6006602052806000526040600020600091509050806000015490806001018054600181600116156101000203166002900480601f0160208091040260200160405190810160405280929190818152602001828054600181600116156101000203166002900480156113375780601f1061130c57610100808354040283529160200191611337565b820191906000526020600020905b81548152906001019060200180831161131a57829003601f168201915b505050505090806002018054600181600116156101000203166002900480601f0160208091040260200160405190810160405280929190818152602001828054600181600116156101000203166002900480156113d55780601f106113aa576101008083540402835291602001916113d5565b820191906000526020600020905b8154815290600101906020018083116113b857829003601f168201915b505050505090806003018054600181600116156101000203166002900480601f0160208091040260200160405190810160405280929190818152602001828054600181600116156101000203166002900480156114735780601f1061144857610100808354040283529160200191611473565b820191906000526020600020905b81548152906001019060200180831161145657829003601f168201915b505050505090806004018054600181600116156101000203166002900480601f0160208091040260200160405190810160405280929190818152602001828054600181600116156101000203166002900480156115115780601f106114e657610100808354040283529160200191611511565b820191906000526020600020905b8154815290600101906020018083116114f457829003601f168201915b505050505090806005018054600181600116156101000203166002900480601f0160208091040260200160405190810160405280929190818152602001828054600181600116156101000203166002900480156115af5780601f10611584576101008083540402835291602001916115af565b820191906000526020600020905b81548152906001019060200180831161159257829003601f168201915b5050505050908060060160009054906101000a900460ff16905087565b60035481565b60008073ffffffffffffffffffffffffffffffffffffffff168273ffffffffffffffffffffffffffffffffffffffff161415151561169e576040517f08c379a00000000000000000000000000000000000000000000000000000000081526004018080602001828103825260228152602001807f526f6c65733a206163636f756e7420697320746865207a65726f20616464726581526020017f737300000000000000000000000000000000000000000000000000000000000081525060400191505060405180910390fd5b8260000160008373ffffffffffffffffffffffffffffffffffffffff1673ffffffffffffffffffffffffffffffffffffffff16815260200190815260200160002060009054906101000a900460ff16905092915050565b828054600181600116156101000203166002900490600052602060002090601f016020900481019282601f1061173657805160ff1916838001178555611764565b82800160010185558215611764579182015b82811115611763578251825591602001919060010190611748565b5b5090506117719190611775565b5090565b61179791905b8082111561179357600081600090555060010161177b565b5090565b9056fea165627a7a723058205c405616ca73d82e419ea6b4baa6bf5138cdcc9665167bf3a01acf3083ea37ce0029",
  "source": "pragma solidity >=0.4.21 <0.6.0;\nimport \"openzeppelin-solidity/contracts/access/Roles.sol\";\nimport \"openzeppelin-solidity/contracts/math/SafeMath.sol\";\n\ncontract TumbulaStore{\n\n    /*\n    Contract for the Tumbula online store.\n\n    ------------------------------------\n    ROLES.\n    1. Admin.\n    2. Store Owner.\n    ------------------------------------\n     */\n    using Roles for Roles.Role;\n\n    Roles.Role private admin;\n    Roles.Role private store_owner;\n    \n\n    address owner;\n\n    uint public storeOwnerNumber = 0;\n    uint public storeFrontNumber = 0;\n\n    /*Boolean value to track emergency mode for circuit breaker pattern */\n    bool private emergency;\n\n    struct StoreOwner{\n        uint    id;\n        string  first_name;\n        string  last_name;\n        string  password;\n        string  email;\n        string  role;\n        bool    active;\n    }\n\n    struct StoreFront{\n        uint    id;\n        address store_owner;\n        string  store_name;\n        string  store_location;\n        string  store_merchandise;\n    }\n\n    mapping(uint => StoreOwner) public storeowners;\n\n    mapping(uint => StoreFront) public storefronts;\n\n    event storeOwnerCreated(\n        uint id,\n        string first_name,\n        string last_name,\n        string password,\n        string email,\n        string role,\n        bool active\n    );\n\n    event storeFrontCreated(\n        uint   id,\n        address store_owner,\n        string store_name,\n        string store_location,\n        string store_merchandise\n    );\n\n    /* Modifer that checks if the msg.sender has an admin role */\n    modifier onlyAdmin(){\n        require(\n            admin.has(msg.sender),\n            \"Only the admin can call this function\"\n            );\n        _;\n    }\n\n    /* Modifer that checks if the msg.sender has a store owner role */\n    modifier onlyStoreOwner(){\n        require(\n            store_owner.has(msg.sender),\n            \"Only the store owner can call this function\"\n            );\n        _;\n    }\n\n    /*Circuit breaker pattern modifiers */\n    modifier stopInEmergency { \n        require(!emergency, \"Contract currently in emergency mode, Function can't be called\"); \n        _; \n    }\n    \n    modifier onlyInEmergency { \n        require(emergency, \"Function callable only in emergency mode\"); \n        _;\n    }\n\n    // constructor() public {\n    //     addStoreOwner(\"Katongole\", \"Allan\");\n    //     addStoreOwner(\"Assimirwe\", \"Abraham\");\n    // }\n\n    /*Admin Functions*/\n    function addStoreOwner(string memory _first_name, string memory _last_name, string memory _email) public {\n        storeowners[storeOwnerNumber] = StoreOwner(storeOwnerNumber, _first_name, _last_name, \"default123\", _email, \"store_owner\", true);\n        storeOwnerNumber = storeOwnerNumber + 1;\n        emit storeOwnerCreated(storeOwnerNumber, _first_name, _last_name, \"default123\", _email, \"store_owner\", true);\n    }\n\n    /** @dev Lets admin toggle the state of emergency \n     * @return Boolean for testing in solidity\n     */\n    function toggleEmergency() public onlyAdmin returns (bool) {\n        emergency = !emergency;\n        return true;\n    }\n\n    /*Store Owner Functions*/\n    function addStoreFront(string memory _store_name, string memory _store_location, string memory _store_merchandise) public {\n        storefronts[storeFrontNumber] = StoreFront(storeFrontNumber, msg.sender, _store_name, _store_location, _store_merchandise);\n        storeFrontNumber = storeFrontNumber + 1;\n        emit storeFrontCreated(storeFrontNumber, msg.sender, _store_name, _store_location, _store_merchandise);\n    }\n}",
  "sourcePath": "/Users/allan-only/projects/blockchain/final_project/mini-stack/mini-stack-react/contracts/TumbulaStore.sol",
  "compiler": {
    "name": "solc",
    "version": "0.5.0+commit.1d4f565a.Emscripten.clang"
  },
  "schemaVersion": "3.0.1",
  "updatedAt": "2019-06-19T06:02:14.350Z",
  "devdoc": {
    "methods": {
      "toggleEmergency()": {
        "details": "Lets admin toggle the state of emergency ",
        "return": "Boolean for testing in solidity"
      }
    }
  },
  "userdoc": {
    "methods": {}
  }
}