{
  "contractName": "TumbulaStore",
  "abi": [
    {
      "constant": true,
      "inputs": [
        {
          "name": "",
          "type": "uint256"
        }
      ],
      "name": "storeowners",
      "outputs": [
        {
          "name": "id",
          "type": "uint256"
        },
        {
          "name": "first_name",
          "type": "string"
        },
        {
          "name": "last_name",
          "type": "string"
        },
        {
          "name": "active",
          "type": "bool"
        }
      ],
      "payable": false,
      "stateMutability": "view",
      "type": "function",
      "signature": "0x8a610565"
    },
    {
      "constant": true,
      "inputs": [],
      "name": "storeOwnerNumber",
      "outputs": [
        {
          "name": "",
          "type": "uint256"
        }
      ],
      "payable": false,
      "stateMutability": "view",
      "type": "function",
      "signature": "0xa726f30a"
    },
    {
      "inputs": [],
      "payable": false,
      "stateMutability": "nonpayable",
      "type": "constructor",
      "signature": "constructor"
    },
    {
      "anonymous": false,
      "inputs": [
        {
          "indexed": false,
          "name": "id",
          "type": "uint256"
        },
        {
          "indexed": false,
          "name": "first_name",
          "type": "string"
        },
        {
          "indexed": false,
          "name": "last_name",
          "type": "string"
        },
        {
          "indexed": false,
          "name": "active",
          "type": "bool"
        }
      ],
      "name": "storeOwnerCreated",
      "type": "event",
      "signature": "0x40acbe3160a5b335621c414cca9918787adf3bfb8a3e85b34751f79c69bef0c7"
    },
    {
      "constant": false,
      "inputs": [
        {
          "name": "_first_name",
          "type": "string"
        },
        {
          "name": "_last_name",
          "type": "string"
        }
      ],
      "name": "addStoreOwner",
      "outputs": [],
      "payable": false,
      "stateMutability": "nonpayable",
      "type": "function",
      "signature": "0xc2e684b3"
    }
  ],
  "bytecode": "0x6080604052600060015534801561001557600080fd5b506100996040805190810160405280600981526020017f4b61746f6e676f6c6500000000000000000000000000000000000000000000008152506040805190810160405280600581526020017f416c6c616e000000000000000000000000000000000000000000000000000000815250610121640100000000026401000000009004565b61011c6040805190810160405280600981526020017f417373696d6972776500000000000000000000000000000000000000000000008152506040805190810160405280600781526020017f4162726168616d00000000000000000000000000000000000000000000000000815250610121640100000000026401000000009004565b610398565b6080604051908101604052806001548152602001838152602001828152602001600115158152506002600060015481526020019081526020016000206000820151816000015560208201518160010190805190602001906101839291906102f3565b5060408201518160020190805190602001906101a09291906102f3565b5060608201518160030160006101000a81548160ff02191690831515021790555090505060018054016001819055507f40acbe3160a5b335621c414cca9918787adf3bfb8a3e85b34751f79c69bef0c76001548383600160405180858152602001806020018060200184151515158152602001838103835286818151815260200191508051906020019080838360005b8381101561024b578082015181840152602081019050610230565b50505050905090810190601f1680156102785780820380516001836020036101000a031916815260200191505b50838103825285818151815260200191508051906020019080838360005b838110156102b1578082015181840152602081019050610296565b50505050905090810190601f1680156102de5780820380516001836020036101000a031916815260200191505b50965050505050505060405180910390a15050565b828054600181600116156101000203166002900490600052602060002090601f016020900481019282601f1061033457805160ff1916838001178555610362565b82800160010185558215610362579182015b82811115610361578251825591602001919060010190610346565b5b50905061036f9190610373565b5090565b61039591905b80821115610391576000816000905550600101610379565b5090565b90565b61072e806103a76000396000f3fe608060405260043610610057576000357c0100000000000000000000000000000000000000000000000000000000900463ffffffff1680638a6105651461005c578063a726f30a1461018e578063c2e684b3146101b9575b600080fd5b34801561006857600080fd5b506100956004803603602081101561007f57600080fd5b8101908080359060200190929190505050610318565b60405180858152602001806020018060200184151515158152602001838103835286818151815260200191508051906020019080838360005b838110156100e95780820151818401526020810190506100ce565b50505050905090810190601f1680156101165780820380516001836020036101000a031916815260200191505b50838103825285818151815260200191508051906020019080838360005b8381101561014f578082015181840152602081019050610134565b50505050905090810190601f16801561017c5780820380516001836020036101000a031916815260200191505b50965050505050505060405180910390f35b34801561019a57600080fd5b506101a3610485565b6040518082815260200191505060405180910390f35b3480156101c557600080fd5b50610316600480360360408110156101dc57600080fd5b81019080803590602001906401000000008111156101f957600080fd5b82018360208201111561020b57600080fd5b8035906020019184600183028401116401000000008311171561022d57600080fd5b91908080601f016020809104026020016040519081016040528093929190818152602001838380828437600081840152601f19601f8201169050808301925050505050505091929192908035906020019064010000000081111561029057600080fd5b8201836020820111156102a257600080fd5b803590602001918460018302840111640100000000831117156102c457600080fd5b91908080601f016020809104026020016040519081016040528093929190818152602001838380828437600081840152601f19601f82011690508083019250505050505050919291929050505061048b565b005b6002602052806000526040600020600091509050806000015490806001018054600181600116156101000203166002900480601f0160208091040260200160405190810160405280929190818152602001828054600181600116156101000203166002900480156103ca5780601f1061039f576101008083540402835291602001916103ca565b820191906000526020600020905b8154815290600101906020018083116103ad57829003601f168201915b505050505090806002018054600181600116156101000203166002900480601f0160208091040260200160405190810160405280929190818152602001828054600181600116156101000203166002900480156104685780601f1061043d57610100808354040283529160200191610468565b820191906000526020600020905b81548152906001019060200180831161044b57829003601f168201915b5050505050908060030160009054906101000a900460ff16905084565b60015481565b6080604051908101604052806001548152602001838152602001828152602001600115158152506002600060015481526020019081526020016000206000820151816000015560208201518160010190805190602001906104ed92919061065d565b50604082015181600201908051906020019061050a92919061065d565b5060608201518160030160006101000a81548160ff02191690831515021790555090505060018054016001819055507f40acbe3160a5b335621c414cca9918787adf3bfb8a3e85b34751f79c69bef0c76001548383600160405180858152602001806020018060200184151515158152602001838103835286818151815260200191508051906020019080838360005b838110156105b557808201518184015260208101905061059a565b50505050905090810190601f1680156105e25780820380516001836020036101000a031916815260200191505b50838103825285818151815260200191508051906020019080838360005b8381101561061b578082015181840152602081019050610600565b50505050905090810190601f1680156106485780820380516001836020036101000a031916815260200191505b50965050505050505060405180910390a15050565b828054600181600116156101000203166002900490600052602060002090601f016020900481019282601f1061069e57805160ff19168380011785556106cc565b828001600101855582156106cc579182015b828111156106cb5782518255916020019190600101906106b0565b5b5090506106d991906106dd565b5090565b6106ff91905b808211156106fb5760008160009055506001016106e3565b5090565b9056fea165627a7a72305820af1b279ae24d72a5e8d27e6a45fd1fc6d6d28559b58df6dc531e9db773c3edc50029",
  "source": "pragma solidity >=0.4.21 <0.6.0;\n// import \"openzeppelin-solidity/contracts/access/Roles.sol\";\n\ncontract TumbulaStore{\n\n    /*\n    Contract for the Tumbula online store.\n\n    ------------------------------------\n    ROLES.\n    1. Admin.\n    2. Store Owner.\n    ------------------------------------\n     */\n    \n\n    address owner;\n\n    uint public storeOwnerNumber = 0;\n\n    struct StoreOwner{\n        uint    id;\n        string  first_name;\n        string  last_name;\n        bool    active;\n    }\n\n    mapping(uint => StoreOwner) public storeowners;\n\n    event storeOwnerCreated(\n        uint id,\n        string first_name,\n        string last_name,\n        bool active\n    );\n\n    constructor() public {\n        addStoreOwner(\"Katongole\", \"Allan\");\n        addStoreOwner(\"Assimirwe\", \"Abraham\");\n    }\n\n    function addStoreOwner(string memory _first_name, string memory _last_name) public {\n        storeowners[storeOwnerNumber] = StoreOwner(storeOwnerNumber, _first_name, _last_name, true);\n        storeOwnerNumber = storeOwnerNumber + 1;\n        emit storeOwnerCreated(storeOwnerNumber, _first_name, _last_name, true);\n    }\n}",
  "sourcePath": "/Users/allan-only/projects/blockchain/final_project/mini-stack/mini-stack-react/contracts/TumbulaStore.sol",
  "compiler": {
    "name": "solc",
    "version": "0.5.0+commit.1d4f565a.Emscripten.clang"
  },
  "schemaVersion": "3.0.1",
  "updatedAt": "2019-06-18T03:51:48.592Z",
  "devdoc": {
    "methods": {}
  },
  "userdoc": {
    "methods": {}
  }
}